:08000000803102288731F92F3D
:100E0A0022000E14000022000E10080022000E1408
:100E1A000000000000000000000022000E10080080
:100E2A0021000E10190887397038990040302000C7
:100E3A00A0002008FD004030A0002008A500403096
:100E4A00A0002008A4000130F0000030F100873132
:100E5A004A27873120002208A0002008FD00220826
:100E6A00A0002008A5002208A0002008A400013044
:100E7A00A2070030A33D3430A100F130A000A00B3E
:100E8A00442FA10B442F0032282FF301F4017408D8
:100E9A00803AF2007108803A7202031D562F7008D8
:100EAA0073020318F32F8030F7000030F800F501C1
:100EBA00F6017608803AF20080307202083003198F
:100ECA00750203188A2F7308253E860087010108D8
:100EDA0077050319742F87310B278731772F8731CD
:100EEA0005278731780D780CF800770CF700013068
:100EFA00F5070030F63D7608803AF200803072023B
:100F0A00083003197502031C682F8030F70000307F
:100F1A00F800F501F6017608803AF2008030720294
:100F2A000830031975020318BC2F73087D3E86002A
:100F3A008701010877050319A62F87310B27873107
:100F4A00A92F873105278731780D780CF800770C9F
:100F5A00F7000130F5070030F63D7608803AF200D6
:100F6A0080307202083003197502031C9A2F8030F0
:100F7A00F7000030F800F501F6017608803AF20031
:100F8A00803072020830031975020318EE2F7308B5
:100F9A00243E86008701010877050319D82F873177
:100FAA000B278731DB2F873105278731780D780C9E
:100FBA00F800770CF7000130F5070030F63D7608A7
:100FCA00803AF20080307202083003197502031C5D
:100FDA00CC2F0130F3070030F43D4C2F4230F200A1
:100FEA00F20BF52F00000800FD01A401A5017E10F7
:060FFA0020008731152FD5
:020000040001F9
:04000E00E4FFFFFF0D
:00000001FF
