:08000000803102288731D92F5D
:10000A0020008C1400000000000000000000000026
:10001A0000000000000000000000000000000000D6
:10002A0020008C1008002000AA00E001E10161080C
:10003A00803AFB0080307B02031D2528FF306002D6
:10004A00031808002000260827020318AD282730C5
:10005A00FB007B08A900AB012B082702031CB1286F
:10006A00FF30F6000030F7002A08FB00FC017B088D
:10007A00F0007C08F1006108F301F3076008F2015F
:10008A00F2078931B12180317108F901F907700845
:10009A00F801F8078A31102280317608FD00200025
:1000AA002B08C83E860087017D088100FF30F600D4
:1000BA000030F7002408FB00FC017B08F0007C08F4
:1000CA00F1006108F301F3076008F201F2078931D0
:1000DA00B12180317108F901F9077008F801F807B0
:1000EA008A31102280317608FD0020002B08A03EBC
:1000FA00860087017D088100FF30F6000030F70096
:10010A002508FB00FC017B08F0007C08F10061086F
:10011A00F301F3076008F201F2078931B121803156
:10012A007108F901F9077008F801F8078A311022F5
:10013A0080317608FD0020002B08203E8600013021
:10014A0087007D0881000130FB007B08AB0731285E
:10015A002708FB007B08A9002608FB00FC017B0896
:10016A00E2007C08E3006308803A803C031DBF2854
:10017A0062082902031C3A29FF30F6000030F70012
:10018A0020002A08FB00FC017B08F0007C08F10033
:10019A006108F301F3076008F201F2078931B1211E
:1001AA0080317108F901F9077008F801F8078A31F6
:1001BA00102280317608FD0020006208C83E8600C1
:1001CA0087017D088100FF30F6000030F70024081F
:1001DA00FB00FC017B08F0007C08F1006108F301D8
:1001EA00F3076008F201F2078931B1218031710801
:1001FA00F901F9077008F801F8078A3110228031ED
:10020A007608FD0020006208A03E860087017D086E
:10021A008100FF30F6000030F7002508FB00FC01E2
:10022A007B08F0007C08F1006108F301F30760081D
:10023A00F201F2078931B12180317108F901F90718
:10024A007008F801F8078A31102280317608FD001B
:10025A0020006208203E8600013087007D08810068
:10026A000130E2070030E33DB8282830F0000030C2
:10027A00F1008B31F123803120002808FB00FC01BA
:10028A007B08F0007C08F10089316D218031013052
:10029A002000E0070030E13D1C282000E001E101D8
:1002AA006108803AF90080307902031D5E29FC302A
:1002BA0060020318C9292000E201E3016308803AB9
:1002CA00F90080307902031D6C2928306202031874
:1002DA00B02920006308803AF90080307902031DB2
:1002EA0078290A306202031C902920006308803AA8
:1002FA00F90080307902031D842914306202031840
:10030A00902920006008F9006208C83E860087012B
:10031A0079088100962920006208C83E8600870174
:10032A0081016208A03E8600870181016208203EA1
:10033A0086000130870081010130E2070030E33D89
:10034A006308803AF90080307902031DAE2928300B
:10035A006202031C6E292830F0000030F1008B3154
:10036A00F123813120006008043EE0000030613D45
:10037A00E1006108803AF90080307902031DC7293B
:10038A00FC306002031C60290630FB001330FA00BF
:10039A00B130F900F90BCF29FA0BCF29FB0BCF2982
:1003AA000032FC302000E00000302A2A20006308D6
:1003BA00803AF90080307902031DE5290A30620289
:1003CA00031CFD2920006308803AF9008030790275
:1003DA00031DF129143062020318FD292000600868
:1003EA00F9006208C83E8600870179088100032A5D
:1003FA0020006208C83E8600870181016208A03E8B
:10040A008600870181016208203E8600013087004C
:10041A0081010130E2070030E33D6308803AF900C8
:10042A0080307902031D1B2A28306202031CDB2953
:10043A002830F0000030F1008B31F12381312000A7
:10044A006008FC3EE000FF30613DE100E001E101AF
:10045A000630FB001330FA00B130F900F90B332AE9
:10046A00FA0B332AFB0B332A00322000E001E101A8
:10047A006108803AF90080307902031D462AFC306F
:10048A0060020318B12A2000E201E3016308803AFE
:10049A00F90080307902031D542A283062020318B9
:1004AA00982A20006308803AF90080307902031DF7
:1004BA00602A0A306202031C782A20006308803A04
:1004CA00F90080307902031D6C2A14306202031885
:1004DA00782A20006008F9006208C83E8600870171
:1004EA00790881007E2A20006208C83E86008701BA
:1004FA0081016208A03E8600870181016208203ED0
:10050A0086000130870081010130E2070030E33DB7
:10051A006308803AF90080307902031D962A283050
:10052A006202031C562A2830F0000030F1008B3199
:10053A00F123813120006008043EE0000030613D73
:10054A00E1006108803AF90080307902031DAF2A80
:10055A00FC306002031C482A0630FB001330FA0004
:10056A00B130F900F90BB72AFA0BB72AFB0BB72AF5
:10057A000032FC302000E0000030E100E11B242BB7
:10058A00E201E3016308803AF90080307902031D31
:10059A00D02A283062020318142B20006308803AFC
:1005AA00F90080307902031DDC2A0A306202031C3A
:1005BA00F42A20006308803AF90080307902031D8A
:1005CA00E82A143062020318F42A20006008F900AD
:1005DA006208C83E8600870179088100FA2A20004D
:1005EA006208C83E8600870181016208A03E860033
:1005FA00870181016208203E86000130870081015F
:10060A000130E2070030E33D6308803AF9008030A8
:10061A007902031D122B28306202031CD22A2830C9
:10062A00F0000030F1008B31F123813120006008A5
:10063A00FC3EE000FF30613DE100E11FC52A663063
:10064A00FB007730FA002430F900F90B2A2BFA0B59
:10065A002A2BFB0B2A2B000008002000E201E301F1
:10066A006308803AF90080307902031D3E2B283056
:10067A0062020318602B20006208C83E86008701C8
:10068A0081016208A03E8600870181016208203E3E
:10069A0086000130870081010130E2070030E33D26
:1006AA006308803AF90080307902031D5E2B2830F6
:1006BA006202031C402B2830F0000030F1008B311D
:1006CA00F12383312000E001E1016108803AF90059
:1006DA0080307902031D732BFF3060020318C42B8C
:1006EA002000E201E3016308803AF90080307902D0
:1006FA00031D812B283062020318A62B20006008F4
:10070A00F9006208C83E86008701790881006208FC
:10071A00A03E8600870181016208203E86000130E2
:10072A00870081010130E2070030E33D6308803A27
:10073A00F90080307902031DA42B28306202031CC1
:10074A00832B2830F0000030F1008B31F123833104
:10075A000430F0000030F10089317E21833101300C
:10076A002000E0070030E13D6108803AF90080305E
:10077A007902031DC22BFF306002031C752B200077
:10078A00E001E1016108803AF90080307902031D35
:10079A00D02BFF3060020318262C2000E201E3016F
:1007AA006308803AF90080307902031DDE2B283075
:1007BA0062020318082C20006003FF3AFF3EF9008A
:1007CA006208C83E86008701790881006208A03E57
:1007DA008600870181016008F9006208203E8600D0
:1007EA0001308700790881000130E2070030E33DDB
:1007FA006308803AF90080307902031D062C2830FC
:10080A006202031CE02B2830F0000030F1008B312B
:10081A00F12383311830F0000030F10089317E2154
:10082A00833101302000E0070030E13D6108803A61
:10083A00F90080307902031D242CFF306002031C6A
:10084A00D22B2000E001E1016108803AF9008030F2
:10085A007902031D322CFF3060020318882C200015
:10086A00E201E3016308803AF90080307902031D4E
:10087A00402C2830620203186A2C20006208C83E05
:10088A008600870181016008F9006208A03E86009F
:10089A008701790881006003FF3AFF3EF900620888
:1008AA00203E860001308700790881000130E20786
:1008BA000030E33D6308803AF90080307902031D75
:1008CA00682C28306202031C422C2830F0000030C9
:1008DA00F1008B31F12383311830F0000030F10040
:1008EA0089317E21833101302000E0070030E13D6B
:1008FA006108803AF90080307902031D862CFF30A6
:10090A006002031C342C2000E001E1016108803AF6
:10091A00F90080307902031D942CFF30600203181D
:10092A00EA2C2000E201E3016308803AF9008030F2
:10093A007902031DA22C283062020318CC2C200055
:10094A006008F9006208C83E8600870179088100BC
:10095A006003FF3AFF3EF9006208A03E8600870165
:10096A00790881006208203E8600013087008101F3
:10097A000130E2070030E33D6308803AF900803035
:10098A007902031DCA2C28306202031CA42C2830C9
:10099A00F0000030F1008B31F12383311830F00080
:1009AA000030F10089317E21833101302000E007D7
:1009BA000030E13D6108803AF90080307902031D78
:1009CA00E82CFF306002031C962CFF302000E20066
:1009DA000030E300E31B3C2DE001E1016108803AAD
:1009EA00F90080307902031DFC2C283060020318BC
:1009FA00212D20006208F9006008C83E86008701A0
:100A0A00790881006008A03E86008701810160089C
:100A1A00203E86000130870081010130E007003066
:100A2A00E13D6108803AF90080307902031D1F2DEB
:100A3A0028306002031CFE2C2830F0000030F10040
:100A4A008B31F12383310230FB000430FA00BA30D3
:100A5A00F900F90B2E2DFA0B2E2DFB0B2E2D000073
:100A6A00FF302000E207FF30E33DE31FF12C663040
:100A7A00FB007730FA002430F900F90B422DFA0B0B
:100A8A00422DFB0B422D000008002000E001E1018D
:100A9A006108803AC50080304502031D562D1E307C
:100AAA0060020318B42D2000E201E3016308803AD2
:100ABA00C50080304502031D642D283062020318E8
:100ACA008F2D20006008C5006208C83E8600870195
:100ADA00450881006008C5006208A03E86008701BB
:100AEA00450881006008C5006208203E8600013082
:100AFA008700450881000130E2070030E33D6308C2
:100B0A00803AC50080304502031D8D2D28306202CF
:100B1A00031C662D2830F0000030F1008B31F123E0
:100B2A00853102302000C7000430C600BA30C50043
:100B3A00C50B9D2DC60B9D2DC70B9D2D00000130A9
:100B4A002000E0070030E13D6108803AC5008030AE
:100B5A004502031DB22D1E306002031C582D2000D1
:100B6A00DE01DF015F08803AC50080304502031DBF
:100B7A00C02D03305E0203181A2F2000E001E101A4
:100B8A006108803AC50080304502031DCE2D203011
:100B9A00600203180A2F2000E201E3016308803A89
:100BAA00C50080304502031DDC2D2830620203187F
:100BBA00072E1E302000C5006208C83E8600870145
:100BCA00450881001E30C5006208A03E86008701E4
:100BDA00450881001E30C5006208203E86000130AB
:100BEA008700450881000130E2070030E33D6308D1
:100BFA00803AC50080304502031D052E2830620266
:100C0A00031CDE2D1E302000C5006008C83E860089
:100C1A008701450881001E30C5006008A03E860095
:100C2A008701450881008230C5006008203E8600A1
:100C3A0001308700450881001E30C5006008013E6A
:100C4A00C83E86008701450881001E30C50060083D
:100C5A00013EA03E8600870145088100D230C500CA
:100C6A006008013E203E8600013087004508810069
:100C7A001E30C5006008023EC83E8600870145084E
:100C8A0081001E30C5006008023EA03E8600870132
:100C9A0045088100E630C5006008023E203E860015
:100CAA0001308700450881001E30C5006008033EF8
:100CBA00C83E86008701450881001E30C5006008CD
:100CCA00033EA03E8600870145088100FA30C50030
:100CDA006008033E203E86000130870045088100F7
:100CEA001E30C5006008043EC83E860087014508DC
:100CFA0081001E30C5006008043EA03E86008701C0
:100D0A0045088100FA30C5006008043E203E86008E
:100D1A0001308700450881001E30C5006008053E85
:100D2A00C83E86008701450881001E30C50060085C
:100D3A00053EA03E8600870145088100E630C500D1
:100D4A006008053E203E8600013087004508810084
:100D5A001E30C5006008063EC83E86008701450869
:100D6A0081001E30C5006008063EA03E860087014D
:100D7A0045088100D230C5006008063E203E860044
:100D8A0001308700450881001E30C5006008073E13
:100D9A00C83E86008701450881001E30C5006008EC
:100DAA00073EA03E86008701450881008230C500C3
:100DBA006008073E203E8600013087004508810012
:100DCA002830F0000030F1008B31F12385310230F8
:100DDA002000C7000430C600BA30C500C50BF32E88
:100DEA00C60BF32EC70BF32E000001302000E007DC
:100DFA000030E13D6108803AC50080304502031D9C
:100E0A00082F20306002031CD02D01302000DE079D
:100E1A000030DF3D5F08803AC50080304502031D7F
:100E2A00182F03305E02031CC22D8D3157258531E0
:100E3A002000E201E3016308803AC50080304502E0
:100E4A00031D292FFF3062020318792F2000E001C9
:100E5A00E1016108803AC50080304502031D372F41
:100E6A00283060020318622F20006208C50060085B
:100E7A00C83E86008701450881006208C5006008EF
:100E8A00A03E86008701450881006208C500600807
:100E9A00203E860001308700450881000130E007C6
:100EAA000030E13D6108803AC50080304502031DEB
:100EBA00602F28306002031C392F2830F0000030E0
:100ECA00F1008B31F123853101302000E207003037
:100EDA00E33D6308803AC50080304502031D772F41
:100EEA00FF306202031C2B2FFF302000E20000308B
:100EFA00E300E31BCB2FE001E1016108803AC50062
:100F0A0080304502031D8B2F283060020318B62F4C
:100F1A0020006208C5006008C83E860087014508AF
:100F2A0081006208C5006008A03E86008701450866
:100F3A0081006208C5006008203E860001308700F3
:100F4A00450881000130E0070030E13D6108803A40
:100F5A00C50080304502031DB42F28306002031CEF
:100F6A008D2F2830F0000030F1008B31F1238531CC
:100F7A000630F0000030F10089317E218531FF30E2
:100F8A002000E207FF30E33DE31F802FCB30C7008C
:100F9A00ED30C6004C30C500C50BD12FC60BD12F82
:100FAA00C70BD12F003208005B3084000030850067
:100FBA00093089314D218731A03084000030850005
:100FCA00503089314D21873120308400013085002D
:100FDA00283089314D2187315E308400893085007F
:100FEA004C308600003087000F30893147217E104F
:060FFA0020008931CE2920
:101282008D31572589318D3157250800FE00120016
:101292001E00FE0B48290034640080010131890BD5
:1012A2004E29003420008C140000000000000000D1
:1012B2000000000020008C10080000348C349E34A2
:1012C2008834C4342534FF3400346F34FA34503453
:1012D2000034F634483440347108803AF2008030E9
:1012E2007202031D762901307002031C08000000FF
:1012F200FF30F007FF30F13D6D297108803AF200AE
:1013020080307202031D872901307002031C08001D
:101312001A30F300F830F200F20B8D29F30B8D290D
:101322000000FF30F007FF30F13D7E29FB007B0813
:101332002000A000A101A2012008F0002108F10074
:101342002208F2008E30A3002308F300F4018A3150
:1013520064227008F8007108F9007208FA000800A7
:10136200F401F501701CB9297208F4077308F53D00
:101372000130F235F30D890BBA290130F136F00C48
:10138200890BBF2971087004031DB3297508F10187
:10139200F1077408F001F0070800210019088739E5
:1013A20070389900991722008C0121008C012300CA
:1013B2008C0185314A258931E830F0000330F10093
:1013C20089317E218931833132238931E830F0003D
:1013D2000330F10089317E218931813152218931F5
:1013E2008E3121268931E830F0000330F100893155
:1013F2007E2189318B314B238931E830F000033073
:10140200F10089317E218931893141218931D03000
:10141200F0000730F10089317E218931DA2920007C
:10142200A101F71F1B2AF609F709F60A0319F70AA1
:10143200A101A10AF91F262AF809F909F80A0319D4
:10144200F90A0130FA007A08A106A201A30177087D
:1014520076040319552AA001A00AF71B3A2A013083
:10146200F635F70D890B312A0130FA007A08A00708
:101472002E2A0130A235A30D890B3B2A7708790267
:10148200031D452A76087802031C4C2A7608F802C6
:101492007708F93B22140130F736F60C890B4D2AF6
:1014A2000130A002031D3A2A210803195D2AA2096C
:1014B200A309A20A0319A30A2308F701F7072208BE
:1014C200F601F6070800730803196C2A7208710402
:1014D2007004031D7D2A0030F0000030F10000305E
:1014E200F20008000130F5007508F3070130F2360A
:1014F200F10CF00C890B782AFE3072050319962A3A
:10150200732A0130F5007508F3070130F007003047
:1015120003180130F107003003180130F2070130DF
:10152200F236F10CF00C890B912AFF307205031987
:10153200A32A822A0130F3020130F035F10DF20DB7
:10154200890B9E2AF11F9B2A7318AD2AFF30F005E2
:101552007F30F105FF30F2050310F30C7308F5003C
:10156200F601F7011030F535F60DF70D890BB42AA7
:101572007508F0047608F1047708F2047408031978
:101582000800F217080020003408B8003508B90036
:101592003608BA000310390D3A0DBB003B08C100F2
:1015A200C108031DDD2A0030B7000030B60000304C
:1015B200B5000030B40008003408B8003508B9009E
:1015C2003608BA001730BA36B90CB80C890BE42ABF
:1015D2003808BB003B08BC00B517FF30B405FF302C
:1015E200B5050030B6053408BD003508BE00360822
:1015F200BF00C0018E30C102C11F1B2B4108803ABF
:101602008F3E03180D2B0030B7000030B6000030BB
:10161200B5000030B40008000130C036BF0CBE0C6B
:10162200BD0C890B0E2B0130B8003808C107031915
:10163200342B0D2B18304102031C312B0030B70024
:101642000030B6000030B5000030B40008000130B0
:10165200BD35BE0DBF0DC00D890B292B0130C10256
:10166200C108031D282B3C080319422BBD09BE09E2
:10167200BF09C009BD0A0319BE0A0319BF0A03192B
:10168200C00A4008B7003F08B6003E08B5003D0852
:10169200B40008002000E201E3016308803AAC00D4
:1016A20080302C02031D572B283062020318792B3D
:1016B20020006208C83E8600870181016208A03EC0
:1016C2008600870181016208203E86000130870082
:1016D20081010130E2070030E33D6308803AAC004B
:1016E20080302C02031D772B28306202031C592BF9
:1016F20020004D08AC002C08A4004E08AD002D08B7
:10170200A5000730AE002E08A6000C30AF002F084F
:10171200A700A801A80A4C08803118208B31E830B4
:10172200F0000330F10089317E218B312000500816
:10173200AC002C08A4005108AD002D08A5001B30F8
:10174200AE002E08A6002030AF002F08A700A80187
:10175200A80A4F08803118208B31E830F00003309E
:10176200F10089317E218B3120005308AC002C0816
:10177200A4005408AD002D08A5002530AE002E08A7
:10178200A6000230AF002F08A700A801A80A52083D
:10179200803118208B31E830F0000330F1008931BC
:1017A2007E218B3120005608AC002C08A40057087B
:1017B200AD002D08A5001130AE002E08A60016308F
:1017C200AF002F08A700A801A80A550880311820E9
:1017D2008B31E830F0000330F10089317E210800BE
:1017E200F301F4017408803AF2007108803A72023F
:1017F200031DFD2B7008730203189B2C8030F70029
:101802000030F800F501F6017608803AF2008030E7
:1018120072020830031975020318312C7308A03EB6
:10182200860087010108770503191B2C80310520EA
:101832008B311E2C893153218B31780D780CF800B5
:10184200770CF7000130F5070030F63D7608803A54
:10185200F20080307202083003197502031C0F2C4B
:101862008030F7000030F800F501F6017608803A82
:10187200F200803072020830031975020318632CDB
:101882007308C83E860087010108770503194D2CAD
:10189200803105208B31502C893153218B31780DC9
:1018A200780CF800770CF7000130F5070030F63DB0
:1018B2007608803AF200803072020830031975020D
:1018C200031C412C8030F7000030F800F501F601CE
:1018D2007608803AF20080307202083003197502ED
:1018E2000318962C7308203E8600013087000108F9
:1018F20077050319802C803105208B31832C8931A7
:1019020053218B31780D780CF800770CF7000130F9
:10191200F5070030F63D7608803AF2008030720218
:10192200083003197502031C732C0130F3070030D1
:10193200F43DF32BF930F2000000F20B9D2C003243
:101942000000080020002408AA002508AB00260891
:10195200AC0003102B0D2C0DAD002D08AE00AE080F
:10196200031DBA2C0030A4000030A5000030A600F0
:1019720008002708AA002808AB002908AC000310B9
:101982002B0D2C0DAD002D08B300B308031DD02C78
:101992000030A4000030A5000030A6000800330883
:1019A2007B3EAA002A08AE072408AA002508AB003D
:1019B2002608AC001030AC36AB0CAA0C890BDC2C20
:1019C2002A08AD002D08B3002708AA002808AB009A
:1019D2002908AC001030AC36AB0CAA0C890BEC2CED
:1019E2002A08AD002D08B3068030AA002A08B305E4
:1019F200A517A817FF30A705FF30A8050030A905D5
:101A02000030AF000030B0000030B1000730AA0053
:101A12002A08B200241C132D2708AF072808B03D5E
:101A22002908B13D0130A636A50CA40C890B142D52
:101A32000130A735A80DA90D890B1A2D0130B2026C
:101A4200031D0B2D0930AA002A08B200241C2F2DD9
:101A52002708AF072808B03D2908B13D0130A63656
:101A6200A50CA40C890B302D0130B136B00CAF0C93
:101A7200890B362D0130B202031D272D2F08F000ED
:101A82003008F1003108F2002E08AA002A08F300FB
:101A92003308AB002B08F4008A316422700820005E
:101AA200A4007108A5007208A60008002000E00149
:101AB200E1016108803AC20080304202031D632DB9
:101AC20014306002031808002000E201E3016308F9
:101AD200803AC20080304202031D712D283062021A
:101AE2000318062E20006208C83E860087010108FE
:101AF200893197218D3178082000A7007908A80044
:101B02007A08A9006630A4006630A5003F30A6001E
:101B12008C31A3248D3120002408B4002508B5009F
:101B22002608B6008A31C4228D3120003408C20052
:101B32006208C83E86008701420881006208A03E12
:101B4200860087010108893197218D3178082000AC
:101B5200A7007908A8007A08A9006630A4006630B8
:101B6200A5003F30A6008C31A3248D31200024082B
:101B7200B4002508B5002608B6008A31C4228D318A
:101B820020003408C2006208A03E86008701420895
:101B920081006208203E86000130870001088931F9
:101BA20097218D3178082000A7007908A8007A08CB
:101BB200A9006630A4006630A5003F30A6008C3133
:101BC200A3248D3120002408B4002508B50026087E
:101BD200B6008A31C4228D3120003408C200620866
:101BE200203E860001308700420881000130E20772
:101BF2000030E33D6308803AC20080304202031D98
:101C0200042E28306202031C732D2830F0000030AD
:101C1200F1008B31F1238D3102302000C4000430F9
:101C2200C300BA30C200C20B142EC30B142EC40B55
:101C3200142E000001302000E0070030E13D5A2D53
:101C42002000E001E1016108803AF9008030790268
:101C5200031D2D2EFC3060020318982E2000E20195
:101C6200E3016308803AF90080307902031D3B2EBC
:101C72002830620203187F2E20006308803AF900A0
:101C820080307902031D472E1F306202031C5F2E33
:101C920020006308803AF90080307902031D532E38
:101CA2002930620203185F2E20006008F9006208E2
:101CB200C83E8600870179088100652E20006208EF
:101CC200C83E8600870181016208A03E8600870126
:101CD20081016208203E86000130870081010130C7
:101CE200E2070030E33D6308803AF9008030790270
:101CF200031D7D2E28306202031C3D2E2830F00089
:101D02000030F1008B31F1238E3120006008043E57
:101D1200E0000030613DE1006108803AF900803066
:101D22007902031D962EFC306002031C2F2E063012
:101D3200FB001330FA00B130F900F90B9E2EFA0BBA
:101D42009E2EFB0B9E2E0032FC302000E000003065
:101D5200F92E20006308803AF90080307902031DD1
:101D6200B42E1F306202031CCC2E20006308803A7E
:101D7200F90080307902031DC02E29306202031857
:101D8200CC2E20006008F9006208C83E8600870158
:101D920079088100D22E20006208C83E86008701A1
:101DA20081016208A03E8600870181016208203E0F
:101DB20086000130870081010130E2070030E33DF7
:101DC2006308803AF90080307902031DEA2E283038
:101DD2006202031CAA2E2830F0000030F1008B3181
:101DE200F1238E3120006008FC3EE000FF30613DAF
:101DF200E100E001E1010630FB001330FA00B130EE
:101E0200F900F90B022FFA0B022FFB0B022F003203
:101E12002000E001E1016108803AF9008030790296
:101E2200031D152FFC3060020318802F2000E201F1
:101E3200E3016308803AF90080307902031D232F01
:101E4200283062020318672F20006308803AF900E5
:101E520080307902031D2F2F1F306202031C472F8F
:101E620020006308803AF90080307902031D3B2F7D
:101E7200293062020318472F20006008F900620827
:101E8200C83E86008701790881004D2F2000620834
:101E9200C83E8600870181016208A03E8600870154
:101EA20081016208203E86000130870081010130F5
:101EB200E2070030E33D6308803AF900803079029E
:101EC200031D652F28306202031C252F2830F000E5
:101ED2000030F1008B31F1238E3120006008043E86
:101EE200E0000030613DE1006108803AF900803095
:101EF2007902031D7E2FFC306002031C172F06306F
:101F0200FB001330FA00B130F900F90B862FFA0BFF
:101F1200862FFB0B862F0032FC302000E0000030C1
:101F2200E100E11BF32FE201E3016308803AF900CB
:101F320080307902031D9F2F283062020318E32F9D
:101F420020006308803AF90080307902031DAB2F2C
:101F52001F306202031CC32F20006308803AF9007D
:101F620080307902031DB72F293062020318C32F74
:101F720020006008F9006208C83E860087017908DF
:101F82008100C92F20006208C83E860087018101B6
:101F92006208A03E8600870181016208203E860019
:101FA2000130870081010130E2070030E33D630820
:101FB200803AF90080307902031DE12F2830620255
:101FC200031CA12F2830F0000030F1008B31F123E7
:101FD2008E3120006008FC3EE000FF30613DE100F0
:101FE200E11F942F3330FB00BC30FA001030F900AF
:0E1FF200F90BF92FFA0BF92FFB0BF92F080052
:020000040001F9
:04000E00E2FFFFFF0F
:00000001FF
