:020000040000fa
:080000000002040000000000f2
:020000040000fa
:10000800da050000da050000da050000da0500006c
:10001800da050000da050000da050000da0500005c
:10002800da050000da050000da050000da0500004c
:10003800da050000da050000da050000da0500003c
:10004800da050000da050000da050000da0500002c
:10005800da050000da050000da050000da0500001c
:10006800da050000da050000da050000a602000043
:10007800da050000da050000da050000da050000fc
:10008800da050000da050000da050000da050000ec
:10009800da050000da050000da050000da050000dc
:1000a800da050000da050000da050000da050000cc
:1000b800da050000da050000da050000da050000bc
:1000c800da050000da050000da050000da050000ac
:1000d800da050000da050000da050000da0500009c
:1000e800da050000da050000da050000da0500008c
:1000f800da050000da050000da050000da0500007c
:10010800da050000da050000da050000da0500006b
:10011800da050000da050000da050000da0500005b
:10012800da050000da050000da050000da0500004b
:10013800da050000da050000da050000da0500003b
:10014800da050000da050000da050000da0500002b
:10015800da050000da050000da050000da0500001b
:10016800da050000da050000da050000da0500000b
:10017800da050000da050000da050000da050000fb
:10018800da050000da050000da050000da050000eb
:10019800da050000da050000da050000da050000db
:1001a800da050000da050000da050000da050000cb
:1001b800da050000da050000da050000da050000bb
:1001c800da050000da050000da050000da050000ab
:1001d800da050000da050000da050000da0500009b
:1001e800da050000da050000da050000da0500008b
:0801f800da050000da05000041
:020000040000fa
:10020800da050000da050000da050000da0500006a
:10021800da050000da050000da050000da0500005a
:10022800da050000da050000da050000da0500004a
:10023800da050000da050000da050000da0500003a
:10024800da050000da050000da050000da0500002a
:10025800da050000da050000da050000da0500001a
:10026800da050000da050000da050000a602000041
:10027800da050000da050000da050000da050000fa
:10028800da050000da050000da050000da050000ea
:10029800da050000da050000da050000da050000da
:1002a800da050000da050000da050000da050000ca
:1002b800da050000da050000da050000da050000ba
:1002c800da050000da050000da050000da050000aa
:1002d800da050000da050000da050000da0500009a
:1002e800da050000da050000da050000da0500008a
:1002f800da050000da050000da050000da0500007a
:10030800da050000da050000da050000da05000069
:10031800da050000da050000da050000da05000059
:10032800da050000da050000da050000da05000049
:10033800da050000da050000da050000da05000039
:10034800da050000da050000da050000da05000029
:10035800da050000da050000da050000da05000019
:10036800da050000da050000da050000da05000009
:10037800da050000da050000da050000da050000f9
:10038800da050000da050000da050000da050000e9
:10039800da050000da050000da050000da050000d9
:1003a800da050000da050000da050000da050000c9
:1003b800da050000da050000da050000da050000b9
:1003c800da050000da050000da050000da050000a9
:1003d800da050000da050000da050000da05000099
:1003e800da050000da050000da050000da05000089
:0803f800da050000da0500003f
:020000040000fa
:100400004f8020000e7f21000e01880000000000b8
:10041000000020000000e000020032000001200087
:10042000200288000c000700a05f200001002000cf
:1004300011000700000020000000e0000200320070
:100440000000020000000000aa05020000000000f9
:100450000040da000000fe004440a9000000200037
:100460000000e0000300320000002000a00188002e
:100470004440a80000000600910188008000780038
:100480000000eb0015003700e280400032a0b4000d
:100490009101ba00e280400032a0b4009102ba009b
:1004a000e280400032a0b4000002eb00472bde00e7
:1004b000f507b200602ce10004003a000059eb009f
:1004c0008301e900fdff3e00040037006128e100e0
:1004d000010032000082eb00040007001101ba00a5
:1004e0000200e000e8ff3a00000006003159ba00bf
:1004f0008301e9000c0032002159ba008301e900b0
:10050000080032000400e00003003a00e2804000ee
:1005100032a0b400f5ff370011d9ba008301e90019
:10052000faff3a008100e800e180400032a0b40008
:1005300000000600000000000000000000000000b5
:100540000000000000000000000000003600f8007d
:10055000809fbe00829fbe00849fbe00869fbe001b
:100560003400f80000002000a00188000000fa001c
:1005700084542000810c2000200020000400010091
:1005800084392000a0002000040001008660a9003a
:1005900055168000042020000482620004f0a700a9
:1005a0000402ea000402e9004f22de005616800031
:1005b0000500210085026300e08f520002003a002e
:1005c00025002000010037008002eb008502420078
:1005d000561680000400220004026300e00f52005f
:1005e00002003a0044002000010037000002eb0046
:1005f000048242001440880014408000cfa2de0034
:100600007600200007002000860f5200878f5a00d6
:1006100029003e0004600100070037000a0037008f
:100620000d003700100037001300370016003700a8
:10063000190037001c003700c4512000a00f200013
:10064000040001001c003700c4512000000f2000ee
:100650000400010018003700c4512000600e200083
:100660000400010014003700c4512000300e2000a7
:100670000400010010003700c4512000200f2000aa
:10068000040001000c003700c4512000700e20004f
:100690000400010008003700c4512000100e2000a3
:1006a0000400010004003700c4512000400e200067
:1006b000040001000000000084542000810c200090
:1006c00010002000040001000080fa003400f9004e
:1006d0004f03be004f02be004f01be004f00be00e0
:1006e0003600f900004006000200fa00000f780012
:1006f0001e027800050020006a2bb900060378006e
:100700006020b9008003780007034300840278006a
:10071000a4002000042ab8000503430086027800e4
:100720000400be00250107000080fa00000006005a
:100730000200fa00000f78001e0278000500200079
:100740000671220006abb900060378006020b900ec
:1007500080037800070343008402780004712200bc
:10076000042ab80005034300860278000400be0096
:10077000120107000080fa00000006000000fa00e5
:10078000d522a8000080fa00000006000000fa0050
:10079000d502a8000080fa00000006000000fa0060
:1007a000d462a8000080fa00000006000000fa00f1
:1007b000d522a9000080fa00000006000000fa001f
:1007c000d502a9000080fa00000006000000fa002f
:1007d000d462a9000080fa00000006000000fa00c0
:1007e000f2ff0700f5ff0700f8ff07000080fa009e
:1007f000000006000200fa00000f78008454200078
:100800009e007800100020000400010084542000a5
:100810009e00780020002000040001008454200085
:100820009e00780030002000040001000080fa00e3
:10083000000006000000fa000002eb000416880029
:100840000002eb00441688000002eb0084168800ca
:10085000c922a800c982a800c9a2a80062a0a80055
:1008600061a0a80061c0a8008660a9009660a800e9
:100870006405800004c0a10004d0a00004e0a10031
:10088000640588000080fa00000006000000fa00fd
:1008900064102000240e8800c901a800c801a80027
:1008a000c821a900c8a1a9000002eb00b40e88006d
:1008b000c1e1a8000080fa00000006000000fa0074
:1008c00064102000b40e88000080fa0000000600ca
:1008d0000000fa000002eb00b40e88000080fa006d
:1008e000000006000000fa00f4ff0700900020005e
:1008f0008fff0700f6ff0700400020008cff070075
:10090000401f200078ff07000080fa00000006006a
:100910000000fa00e9ff07009000200084ff0700b4
:10092000ebff07002000200081ff0700a00f200040
:100930006dff07000080fa00000006000000fa00ca
:10094000deff07000023200067ff0700e0ff07002d
:100950000023200064ff07000080fa00000006006a
:100960000000fa00d5ff0700002320005eff07000b
:10097000d7ff0700100020006dff0700202b20008c
:1009800059ff07000080fa00000006000400fa008a
:100990001007980014002000044088000002eb00bb
:1009a000040f78000c003700054080001e02900004
:1009b00004826200e00f520002003a00e8ff0700e4
:1009c00001003700ddff0700044080000402420000
:1009d000044088001e0fe8001e027800e70f520056
:1009e000f1ff34000080fa00000006000000fa0069
:1009f000b2ff0700002320003bff0700b4ff070001
:100a00000080fa00000006000200fa00000f7800e3
:100a1000b4ff0700f00f2000dcff07000000eb0030
:100a2000daff07001e007800d8ff0700efff07007d
:100a30000080fa00000006000400fa001007980089
:100a4000f50f20001e029000048f5200a5ff070042
:100a5000f00f2000cdff07000000eb00cbff0700e8
:100a60001e009000c9ff07001e007800c7ff0700a6
:100a7000deff07000080fa00000006000000fa0018
:100a8000a00f2000ecff07000080fa000000060025
:100a90000400fa00000f7800110798001e02780089
:100aa000cfa2de003600200007002000860f520093
:100ab000878f5a0025003e000460010003003700c4
:100ac0000a00370011003700180037002bff07001d
:100ad0002eff070031ff07001e029000040078007f
:100ae00013ff07003dff07001800370023ff070032
:100af00032ff070035ff07001e0290000400780057
:100b00000bff070035ff07001000370027ff070025
:100b10001eff07002dff07001e0290000400780052
:100b200003ff07002dff0700080037001fff070025
:100b300022ff070019ff07001e0290000400780042
:100b4000fbfe070025ff0700000000000080fa0000
:100b5000000006000200fa0036ff07004bff070006
:100b60008660a8000002eb00040f78000600370042
:100b7000810c200020002000c5ff0700800c200011
:100b8000ebfe07001e0fe8001e027800e10f520086
:100b9000f7ff3400803e2000e5fe0700813e200084
:100ba00030002000baff0700803e2000e0fe070072
:0c0bb000faff37000040da000000fe00f1
:020000040000fa
:100bbc00f03fb1000180b10006003500ee030900e2
:100bcc0000000000403fb1000180b100fbff3d0080
:100bdc001000b000203fb00002003500008009007a
:080bec000000000000000600fb
:020000040000fa
:100bf40000080000040000000000000000000000e5
:020000040000fa
:0200000401f009
:04000000ffff0000fe
:020000040000fa
:0200000401f009
:04000800ffff0000f6
:020000040000fa
:0200000401f009
:04000c00820000006e
:020000040000fa
:0200000401f009
:04001000a600000046
:020000040000fa
:0200000401f009
:040014005f00000089
:020000040000fa
:0200000401f009
:0400180017000000cd
:020000040000fa
:0200000401f009
:04001c00dfff000002
:00000001FF
