:020000040000fa
:080000000002040000000000f2
:020000040000fa
:10000800cc020000de0200002a030000f00200001b
:1000180002030000140300003a0300001a03000062
:100028001a0300001a0300001a0300006406000007
:100038001a0300001a0300001a0300002e0700002c
:10004800f60600001a0300001a0300001a03000055
:100058001a0300001a0300001a0300001a03000024
:100068001a0300001a0300001a0300001a03000014
:100078001a0300001a0300001a0300001a03000004
:100088001a0300001a0300001a0300001a030000f4
:100098001a0300001a0300001a0300001a030000e4
:1000a8001a0300001a0300001a0300001a030000d4
:1000b8001a0300001a0300001a0300001a030000c4
:1000c8001a0300001a0300001a0300001a030000b4
:1000d8001a0300001a0300001a0300001a030000a4
:1000e8001a0300004a0300001a0300001a03000064
:1000f8001a0300001a0300001a0300001a03000084
:100108001a0300001a0300001a0300001a03000073
:100118001a0300001a0300001a0300001a03000063
:100128001a0300001a0300001a0300001a03000053
:100138001a0300001a0300001a0300001a03000043
:100148001a0300001a0300001a0300001a03000033
:100158001a0300001a0300001a0300001a03000023
:100168001a0300001a0300001a0300001a03000013
:100178001a0300001a0300001a0300001a03000003
:100188001a0300001a0300001a0300001a030000f3
:100198001a0300001a0300001a0300001a030000e3
:1001a8001a0300001a0300001a0300001a030000d3
:1001b8001a0300001a0300001a0300001a030000c3
:1001c8001a0300001a0300001a0300001a030000b3
:1001d8001a0300001a0300001a0300001a030000a3
:1001e8001a0300001a0300001a0300001a03000093
:1001f8001a0300001a0300001a0300001a03000083
:100208001a0300001a0300001a0300001a03000072
:100218001a0300001a0300001a0300001a03000062
:100228001a0300001a0300001a0300001a03000052
:100238001a0300001a0300001a0300001a03000042
:100248001a0300001a0300001a0300001a03000032
:100258001a0300001a0300001a0300001a03000022
:100268001a0300001a0300001a0300001a03000012
:0c0278001a0300001a0300001a03000023
:020000040000fa
:100400008f0d21000eff21000e018800000000006a
:1004100000012000200288000c000700a016210027
:10042000010020000f000700000020000000e00095
:10043000020032000000020000000000261102004d
:10044000000000000040da000000fe002000200054
:100450000000e0000200320010002000900188003f
:1004600000000600a1028800800078000000eb0078
:100470001a003700e280400054a0b4009101ba0095
:10048000e280400054a0b4009102ba00e280400033
:1004900054a0b4000002eb00472bde00f507b200c9
:1004a000a6018800602ce10008003a000049eb003a
:1004b0000201e800020039003420ec0002f0a00044
:1004c0008301e900f9ff3e00040037006128e100e4
:1004d000010032000082eb00040007001101ba00a5
:1004e0000200e000e3ff3a000000060004d0a30091
:1004f000e20f49001c003900810278003549ba003a
:100500000201e800020039003420ec0002f0a000f3
:100510008301e9000f0032002549ba000201e8001a
:10052000020039003420ec0002f0a0008301e90051
:10053000080032000400e0000600320015c9ba00cd
:100540000201e800020039003420ec0002f0a000b3
:100550008301e9008180e80054a0b4000300e000ba
:10056000e2ff3a00000006009102ba000559780047
:100570008301e900f7ff3200c82ade000559780040
:100580008301e900f3ff32000400e000f1ff3200d4
:1005900011d9ba00eeff37003600f800809fbe0088
:1005a000829fbe00849fbe00869fbe000000fa00ae
:1005b000b7030700c028a900ffff37003600f80086
:1005c000809fbe00829fbe00849fbe00869fbe00ab
:1005d0000000fa00ae030700c068a900ffff370063
:1005e0003600f800809fbe00829fbe00849fbe0040
:1005f000869fbe000000fa009d030700c048a900c6
:10060000ffff37003600f800809fbe00829fbe00cb
:10061000849fbe00869fbe000000fa009c03070076
:10062000c088a900ffff37000000fa00c0a8a90099
:10063000ffff37003600f800809fbe00829fbe009b
:10064000849fbe00869fbe000000fa009003070052
:10065000ffff37003600f800809fbe00829fbe007b
:10066000849fbe00869fbe000000fa00880307003a
:10067000ffff37003600f800809fbe00829fbe005b
:10068000849fbe00869fbe000000fa008003070022
:10069000ffff37003600f800809fbe00829fbe003b
:1006a000849fbe00869fbe00889fbe003200f80077
:1006b0001000200090018800000000000200fa00f5
:1006c000c51080000404200004826200e00f520084
:1006d000030032006e03070065030700ffff3700c9
:1006e000c51080000402200004826200e00f520066
:1006f00005003a0084108000044f780014002000a8
:100700004480880061013700c51080000402200089
:1007100004826200e00f52005c01320044808000dd
:100720006123b9000082eb008082eb0006024200e8
:1007300087824a004600200007002000860f5200f2
:10074000878f5a0027003e0004060100040037008e
:10075000080037000e003700140037001a00370079
:100760008410800054808800240020004480880089
:100770001c00370084108000044278000440780098
:10078000bcf0b7003400200044808800150037001a
:10079000841080000442780004407800bdf0b70067
:1007a00044062000448088000e003700841080003a
:1007b0000442780004407800bef0b70054002000e6
:1007c00044808800070037008410800004427800cd
:1007d00004407800bff0b700440620004480880041
:1007e000000000004580800044062000848f5200f5
:1007f00026013a005480800085062000850f5200b3
:100800008b00320085062000850f520011003c004d
:1008100055062000850f5200380032005506200092
:10082000850f520004003c0045062000850f520051
:10083000190032001501370065062000850f5200af
:100840005300320075062000850f5200660032000a
:100850000e013700950c2000850f5200ad003200cc
:10086000950c2000850f520004003c00850c2000f0
:10087000850f52008000320004013700a50c2000d3
:10088000850f5200ca003200f50f2000850f52007c
:10089000ef003200fd003700c40b21001442780045
:1008a0000482fb000500200096062000862bb8007d
:1008b000e021b80082037800070343008402780037
:1008c00094062000042ab80005034300860278003d
:1008d000348288004582880036828000478280000a
:1008e00004002000050024000602420087824a001e
:1008f0003482880045828800e4003700c40b210060
:10090000144278000483fb0007002000e40b210060
:10091000144278000480fb0001002000f40b210049
:10092000144278000481fb0003002000481add0017
:10093000c812de00850272004812dd00000242008b
:1009400081824a004828dd00c820de008100700056
:100950004820dd00d40b2100144278000482fb0003
:10096000050020000000420081804a00480add00a6
:10097000c802de00850272004802dd000602420065
:1009800087824a003482880045828800bf00370091
:10099000c40b2100144278000483fb0007002000f0
:1009a00034828000458280000603420087834a002b
:1009b000d40b2100144278000482fb004822dd00a1
:1009c000050020000603420087834a00040020003f
:1009d00005002c000602420087824a00348288000b
:1009e00045828800a9003700c40b2100144278001a
:1009f0000483fb00070020003482800045828000d1
:100a00000603420087834a00d40b21001442780079
:100a10000482fb004822dd0005002000060242009f
:100a200087824a0034828800458288009700370018
:100a30003682800047828000c40b21001442780077
:100a40000482fb00050020000403530085835b0043
:100a5000d40b2100144278000482fb004822dd0000
:100a6000050020000402530085825b003482880068
:100a70004582880085003700c40b210014427800ad
:100a80008482fb00d40b2100144278000482fb0016
:100a90004822dd0004824200cfa2de0024868800c6
:100aa000358688002485800035858000020020007e
:100ab000032224000400be00560507000002be0009
:100ac0000404be0024868000358680000400be0039
:100ad000f80407000002be000401be000800be00ca
:100ae0004c0507000002be0002002400c361240080
:100af0000400be006d0407000002be000400be003a
:100b0000b00407000002be002486880035868800f5
:100b10005e003700c40b2100144278008482fb0081
:100b2000d40b2100144278000482fb004822dd002f
:100b300004824200cfa2de00248688003586880029
:100b400024858000358580000200200003222c00cf
:100b50000400be002f0507000002be000404be0012
:100b600024868000358680000400be00d104070082
:100b70000002be000401be000800be0025050700fb
:100b80000002be0002002400c36124000400be0075
:100b9000460407000002be000400be0089040700ee
:100ba0000002be00248688003586880037003700a2
:100bb000c40b2100144278008482fb00d40b210076
:100bc000144278000482fb004822dd0004824200c7
:100bd000cfa2de000400be00b60407000002be0083
:100be000248588003585880024858000358580002f
:100bf00002002000a34724000400be002b040700cd
:100c00000002be0024858800358588002485800088
:100c10003585800018c0b300d2cc2c00c3f423006b
:100c20000400be006504070000027800e00f5200d7
:100c300001003c000044eb00e04f54000200320091
:100c40001302070011003700150207000f003700dc
:100c5000411f2000100020001502070004002000a2
:100c60000500240034828800458288000002eb00e1
:100c7000340e880004002400440e8800c1122000b5
:100c8000100020000a020700000000000002eb0034
:100c9000048688000002eb0004088800f8010700c1
:100ca0000628a9000080fa003200f9004f04be00b7
:100cb0004f03be004f02be004f01be004f00be00fa
:100cc0003600f900004006003600f800809fbe00a4
:100cd000829fbe00849fbe00869fbe003200f80047
:100ce0001000200090018800000000000000fa00c1
:100cf0000068a900048680000402e80004868800d9
:100d000005868000441f2000848f52002f0036008b
:100d10000002eb0004868800d501070026868000cb
:100d2000378680009400200005002000840f5300c7
:100d3000858f5b000b003c00268680003786800094
:100d400074ff2f00f5ff2f00840f5300858f5b0089
:100d5000040035006022b8002486880035868800ab
:100d6000120037002486800035868000e00f520094
:100d7000e08f5a000700340024868000358680000a
:100d80006a025200e0825a00248688003586880074
:100d90000600370024868000358680006a02420003
:100da000e0824a002486880035868800b486800068
:100db000e10f520003003a000002eb00b486880005
:100dc0000200370014002000b48688000080fa007a
:100dd0003200f9004f03be004f02be004f01be00bb
:100de0004f00be003600f90000400600849fbe00a0
:100df0003200f80014002000940188000000000078
:100e00000000fa00048680000402e80004868800de
:100e100005868000843e2000848f52000a00360040
:100e20000002eb0004868800b4868000e10f5200c7
:100e300003003a000002eb00b4868800020037008d
:100e400014002000b48688000108a9000080fa0080
:100e50003200f9004f02be00004006003600f800e4
:100e6000809fbe00829fbe00849fbe00869fbe0002
:100e7000889fbe003200f80010002000900188001a
:100e8000000000000000fa00148680000402e80060
:100e9000148688001586800044062000848f520046
:100ea000b00036000002eb0014868800340e80008b
:100eb000050020004485880055858800468580000f
:100ec000578580006485800075858000040253008a
:100ed00085825b00d4808800e5808800448580009e
:100ee000558580006485880075858800d6808000df
:100ef000e7808000c4f92f00f5ff2f00840f530016
:100f0000858f5b0008003d00d6808000e780800070
:100f100004002000150020000602420087824a00db
:100f2000d4808800e5808800d6808000e78080003b
:100f3000c4f92f00f5ff2f00840f5300858f5b004d
:100f400001003d004a010700d6808000e780800054
:100f50004406200005002000840f5300858f5b00ad
:100f600008003400d6808000e78080000400200064
:100f7000f5ff2f000602420087824a00d4808800d5
:100f8000e5808800d6808000e7808000440620004d
:100f900005002000840f5300858f5b0001003400a2
:100fa000330107002686800037868000d4808000c9
:100fb000e58080000402530085825b008485880000
:100fc000958588008685800097858000a4858000af
:100fd000b58580000402530085825b00c4858800cb
:100fe000d58588008485800095858000a48588004b
:100ff000b585880084858000958580000400be004a
:10100000ac0307000003be005486800065868000a4
:101010000401be000600be00fe0307000002be0081
:101020000403be00d4828000e58280000401be007b
:101030000600be00c00207000002be000404be009d
:10104000c4858000d58580000400be009903070098
:101050000003be0094868000a58680000401be00c7
:101060000600be00eb0307000002be000401be0044
:101070000800be00af0207000002be00d482880054
:10108000e5828800d4828000e582800018c0b30029
:1010900002002000832c24000400be004703070048
:1010a00000027800e00f520001003c000044eb0019
:1010b000e04f54000400320004002000852c24007e
:1010c000d4828800e5828800d4828000e582800096
:1010d00018c0b30002002000832c2c000400be00c6
:1010e0003403070000027800e00f520001003500d1
:1010f0000044eb00e04f54000400320004002000e4
:10110000852c2c00d4828800e5828800d48280005f
:10111000e582800018c0b3006011b8000400be0072
:101120002603070000027800e00f520001003c0097
:101130000044eb00e04f540005003200d4828000f0
:10114000e58280000400be000001070005003700b2
:10115000d4828000e582800005f0a2000400be0079
:101160005101070000e8a9000080fa003200f900f0
:101170004f04be004f03be004f02be004f01be0031
:101180004f00be003600f900004006000000fa00e3
:1011900004712200140888000442800004c0a100e9
:1011a00004d0a00004e0a000044288000068a90068
:1011b0002068a8000080fa00000006000000fa0085
:1011c0001061a90004712200740888002442800084
:1011d0000400a1000410a1000420a0002442880003
:1011e0000108a9002108a80011e1a9000080fa0067
:1011f000000006000000fa001061a8007400200042
:10120000740888000002eb00640888002442800013
:101210000400a1000410a1000420a00024428800c2
:101220000108a9002108a80011e1a9000080fa0026
:10123000000006000000fa001061a90004712200fd
:10124000640888001442800004c0a00004d0a100fb
:1012500004e0a0001442880000e8a90020e8a800eb
:1012600011e1a9000080fa00000006000000fa0069
:1012700011e1a8000080fa00000006000000fa005a
:1012800011e1a90005e1a8000080fa0000000600b5
:101290000000fa00c3c1a900140e800004b0a00031
:1012a00004c0a00004d0a000140e88000400200098
:1012b00005002400548288006582880054828000e2
:1012c0006582800074828800858288007482800034
:1012d0008582800094828800a58288000400200016
:1012e0000500240014828800258288006022b8004e
:1012f0001483880025838800c480800005002000b6
:101300000400be00ee0207000003be00148380004c
:10131000258380000401be000600be003d030700d7
:101320000002be000400be00c70207000002be00ab
:10133000348288004582880036828000478280009f
:1013400004002000050024000602420087824a00b3
:1013500034828800458288000405200004808800cb
:10136000d4cc2c00c5d4230064808800758088000c
:101370000002eb0014808800e5358000f40f28009f
:101380008482620004a0220004827200e435880096
:10139000e535800004f82f0084826200940220006a
:1013a00004827200e4358800c301a800040e8000a6
:1013b00004a0a10004b0a00004c0a000040e880096
:1013c000c1e1a8000002eb00040f88000082eb00de
:1013d000f40e88000082eb00f40e88000080fa0012
:1013e000000006000200fa00000f78001e027800dc
:1013f00005002000ea2bb800e021b8008203780045
:101400000703430084027800a4002000042ab800e7
:1014100005034300860278000400be009f03070016
:101420000080fa00000006000200fa00000f7800b9
:101430001e0278000500200006712200862bb800ed
:10144000e021b8008203780007034300840278009b
:1014500004712200042ab8000503430086027800c4
:101460000400be008d0307000080fa0000000600a3
:101470000000fa00148ea8000080fa0000000600a8
:101480000000fa00148ea9000080fa000000060097
:101490000000fa00040ea8000080fa000000060018
:1014a0000000fa00040ea9000080fa000000060007
:1014b0000400fa00000f7800110798001e0278005f
:1014c000cfa2de003600200007002000860f520069
:1014d000878f5a001b003e000406010003003700fe
:1014e0000a003700160037000e003700e0ff070043
:1014f000e7ff07001e02900004007800caff070003
:10150000dfff0700e6ff07000e003700d8ff0700e7
:101510001e02900004007800c3ff0700d8ff0700f8
:1015200008003700daff07001e0290000400780070
:10153000bdff0700daff07000000000001003700d0
:10154000000000000080fa00000006000400fa001d
:10155000881f7800008fbe00a57080000400210065
:1015600004826200e00f52001c003200a57080006f
:101570000400220004826200e00f520017003200d3
:10158000156280000400240004826200e00f520013
:1015900012003a00156280000400280004826200f4
:1015a000e00f52000d003a00156180000400280091
:1015b00004826200e00f52000800320015618000d2
:1015c0000400240004826200e00f52000300320095
:1015d000a000200083ff07000b00370015aea90014
:1015e00043cca900500020007eff070043eca90077
:1015f000158ea800500020007aff070015aea80045
:1016000023eca80023cca800248580003585800029
:1016100002002000832c24000400be007d0207008d
:101620000002be0018c0b3001e01be000400be00d0
:10163000e001070000027800e00f520001003500d1
:101640000044eb00e04f5400080032002485800085
:101650003585800002002000832c24000400be0099
:101660006c0207000002be00048fbe0002002000d2
:10167000031224001e00be00660207000002be0026
:101680000400be00f00107000002be000402780062
:10169000346188000002eb00346288004f04780057
:1016a0000080fa00000006000400fa00881f78009d
:1016b000008fbe00a5708000040024000482620038
:1016c000e00f52001c003200a570800004002800ca
:1016d00004826200e00f52001700320015618000a2
:1016e0000400240004826200e00f520012003a005d
:1016f000156180000400280004826200e00f52009f
:101700000d003a0015628000040028000482620087
:10171000e00f52000800320015628000040024002f
:1017200004826200e00f520003003200a00020009b
:101730002cff07000b00370015eea90023cca900f1
:101740005000200027ff070023eca90015cea800b9
:101750005000200023ff070015eea80043eca8006e
:1017600043cca8002485800035858000020020003d
:10177000832c24000400be00260207000002be00e5
:1017800018c0b3001e01be000400be00890107009e
:1017900000027800e00f5200010035000044eb0029
:1017a000e04f540008003200248580003585800019
:1017b00002002000832c24000400be001502070054
:1017c0000002be00048fbe000200200003122400ad
:1017d0001e00be000f0207000002be000400be0093
:1017e000990107000002be000402780034628800fc
:1017f0000002eb00346188004f0478000080fa009a
:10180000000006000000fa0015eea90015aea900c0
:1018100023cca90043cca90050002000f1fe070012
:1018200015cea800158ea80043eca90023eca90052
:101830000080fa00000006000000fa0015cea800a3
:10184000158ea80043eca90023eca900500020004d
:10185000e4fe070015eea80015aea80023cca900f1
:1018600043cca9000080fa00000006000000fa0046
:1018700016e2a80017e2a800c44280000440a100bc
:101880000450a0000460a000c44288002628a800dc
:101890000080fa00000006000000fa0024618000c9
:1018a0000400a0000410a0002461880024628000cd
:1018b0000400a0000410a00024628800843e2000e0
:1018c000246088002403200054638800546380004f
:1018d0005462880054628000546188002403200010
:1018e00064638800646380006462880064628000ce
:1018f000646188000002eb000463880004638000d8
:101900000462880004628000046188000002eb0029
:101910001460880023aca800238ca900422ca900e5
:1019200043aca800438ca90001eca8000002eb0026
:10193000346188000002eb003462880063eca90087
:1019400063cca9000080fa00000006000600fa003f
:10195000000f780011079800220798000002eb00a2
:1019600094808800090037009e0090001e007800d7
:10197000cffe07001e02900004007800aafe0700b8
:10198000948080000402e80094808800ae029000f9
:1019900094808000848f5200f3ff3e000080fa00a4
:1019a000000006000000fa00947080004722de006c
:1019b000614262000482fb0004024200840278005b
:1019c000947080004822de00614262000482fb00c5
:1019d000048242004486880044868000cfa2de0054
:1019e0003600200007002000860f5200878f5a0023
:1019f00029003e00040601000300370009003700fb
:101a00000f00370019003700220020004106200097
:101a100010002000cdff070044012000d4108800f2
:101a20001d00370022002000410620003000200069
:101a3000c6ff070054012000d410880016003700ac
:101a4000120020004106200010002000bfff070008
:101a5000120020004106200030002000bbff0700dc
:101a600064012000d41088000b0037001200200011
:101a70004106200030002000b4ff070012002000c3
:101a80004106200010002000b0ff07007401200074
:101a9000d4108800000000000080fa00000006005a
:101aa0000000fa000002eb000470880004f8200037
:101ab000847088000002eb00247088000002eb00b4
:101ac000a47088001aeea8001b0ea8000002eb000c
:101ad000747088000002eb00f4708800ecfd0700d1
:101ae0006dff070061ff0700aeff0700d1fd070093
:101af000a6fd070004002400440e88001400200006
:101b0000b486880004902600c48088000400200069
:101b100005002400348288004582880004002000eb
:101b200005f8230024858800358588000080fa00a8
:101b30000000060003f0a200889fbe008a9fbe003e
:101b40008c1f78001b010700220133006450e10064
:101b50004f0032006420e1005200320003826c002a
:101b600007003b000905d0000306d000820f540097
:101b70000c065d0002003900020032008901780085
:101b8000030678008582550004003d000003fd0037
:101b90008103fd008502ea008b854200840f7200fc
:101ba00002003b0060001000e08018006011b800e7
:101bb0000005eb007a28e1000a00390006007800f1
:101bc000c75ddd00f707b200878075002d00370084
:101bd000828171000a017800610560008180d10076
:101be0000080d3008502e900f9ff3b0006044000b5
:101bf0008784480002003b0060041400e0841c005d
:101c00000988a300070032008a8171008281710077
:101c1000610164008904d1000884d3008b05e800c9
:101c2000170037000978a30013003a000b00e0000a
:101c3000130034008b05e9000804440089844c003b
:101c40000a4474000978a3000d003a000b00e0007c
:101c5000070034008b05e9000804440089844c0027
:101c600001003a000b0020000978a300f7ff3200c2
:101c70000001eb0002003700828171000a01780048
:101c8000910007000cf0a70001f0a000da00370077
:101c90006420e10002003a00838f6c00da00330018
:101ca0000801be000200be00d3003700889fbe00be
:101cb0008a9fbe008c1f7800be000700c50033005d
:101cc00003866c006450e1002e0032006420e100c5
:101cd000330032006150e1002f0032006120e1004a
:101ce0003100320085855500eb07b0000900200067
:101cf00008042000050037000804440089844c00d3
:101d00000a0031000603430087834b0000015300a3
:101d100081815b00f8ff33000203be000800a000d1
:101d20000804440089844c00f6ff3900c639dd0000
:101d30008301730001003200130020008904d100e8
:101d40000884d3000998a300050032000800a7000a
:101d50000300a0008904d1000884d3008b05e800ab
:101d60008904d1000884d3000001eb000281d20075
:101d70005500070001f0a1000cf0a70001f0a00041
:101d80009d0037006420e1009f0032000801be0082
:101d90000200be00f7ff37006120e1009a00320028
:101da0006000b800f3ff37000000200001f82700b2
:101db000f0ff370014002000ca003700f4ff2f00a6
:101dc000c80037000001be00650007000470a700ce
:101dd00003f0a1006509b100160032000d003500c6
:101de0006828e10006003500f0ff2f00f1ff270012
:101df0000300e00013003b00010028000000050084
:101e000000004000818048008502e900fcff3a00a4
:101e100008003700f88f420002003c008000eb0011
:101e2000000005008100d1000080d3008502e80099
:101e3000fcff3a000300e00002003b0060001000dd
:101e4000e0801800000006000001be00440007000a
:101e50000470a70003f0a10003f8a30013003a00e8
:101e60006509b10010003200090035006928e10061
:101e700002003500010028000000050000004000bd
:101e8000818048008502e900fcff3a00000006005e
:101e9000f88f4200050035008100d1000080d3009a
:101ea0008502e800fcff3a00000006008000eb001d
:101eb000000005004f89de0082017800a400370091
:101ec0006011b800b2003700810020006180550029
:101ed0000b003d000b00200061fe2f000100e1001f
:101ee0001d00340082817100610164008904d10009
:101ef0000884d3000000e800faff3a0071002000d7
:101f000061006400030070000200600009003200fc
:101f100061044400e0844c000988a50005003200fb
:101f20008b05e8006808e10002003a008904d1004e
:101f30000884d300f20f20000258e10005003d00a4
:101f4000c75ddd00f907b2008980750008007800e0
:101f5000000006000bf827008b0078000000050049
:101f6000c70ade00f107b200f50fb2000800320028
:101f7000e1cf4200020032000170a0002400050001
:101f8000810f7000010032000408050044000500c4
:101f9000810f700002003a00140005008502e9007c
:101fa0000000400081c04800fcff3b000170a00021
:101fb000240005000004be00e9ff07000003be0086
:101fc0000405be000200be00e5ff0700844f750057
:101fd000000006000200be006450e100050036006b
:101fe0006420e100020036000968a30001003a0005
:101ff0000800be000160a0004f0678004f05be003b
:102000004f04be0000000600f0ff2f00f1ff270084
:10201000f9ff3700889fbe008a9fbe008c1f7800a2
:10202000e4ff0700ebff330003866c006450e1001f
:10203000240032006420e100270032006150e100fa
:10204000220032006120e100210032008b85420035
:10205000eb07b1000134b800003ab80008044200b0
:1020600089844a00013ab8000030b80088804000f6
:1020700009014a000400330000004000818048004c
:10208000020149008b05e900c909dd0083017000e8
:102090000100320013002000c814de004814dd00e7
:1020a0004709de001200b200c808de000884700094
:1020b00085ff070001f0a1000cf0a70001f0a000cf
:1020c000cdff37006120e100cfff32000801be00e4
:1020d0000200be00f7ff37006150e100fcff3a004c
:1020e000c9ff3700889fbe008a9fbe00841f78000a
:1020f000b0ff07004f00780011003300f0ff2f0001
:10210000838f6c0006003b00040565000a00a700f1
:102110000800370009f0a600100020000800370072
:10212000820f5400838f5c000300390010002000f0
:1021300001003e000000200009f0a7000000ea00b6
:102140004f05be004f04be000000e0000000060086
:10215000881f7800030478000300e00007003d00ba
:1021600060001000e080180060011900e081190093
:1021700002003b0001f02d000300370004000700bf
:1021800008f0a70001f0a0004f047800000006004e
:10219000889fbe008a9fbe0000827000040271000a
:1021a00004827100260032000004be000200be005e
:1021b0006011b8006b092000950220000182cf0059
:1021c0000a0039000541b1000082cf000700390044
:1021d0000541b1000982cf00040039000541b1007a
:1021e0000882cf00010039000541b10005425200cc
:1021f000120032000a003b0082817100610164001c
:102200008100d1000080d3008984d3000884d300ea
:102210008b05e8000442e800f7ff3a0007003700aa
:102220000804440089844c00000048008180480074
:102230008b05e9000442e900f9ff3a0022ff07009c
:0c2240004f05be004f04be000000060069
:020000040000fa
:10224c000000fa002400070012fe07000400200022
:10225c0005f8230054868800658688000400200059
:10226c0005f8230074868800858688000400200009
:10227c0005f8230094868800a586880005e1a8004f
:10228c0011e1a800803e200064fc0700fdff370030
:020000040000fa
:10229c00f03fb1000180b10006003500ee030900eb
:1022ac0000000000403fb1000180b100fbff3d0089
:1022bc001000b000203fb000020035000080090083
:0822cc00000000000000060004
:020000040000fa
:1022d40000100000d8000000800000000000000092
:020000040000fa
:0c22e4000000fa000080fa000000060074
:020000040000fa
:04afe000ceff0000a0
:020000040000fa
:04afe400dfff00008b
:020000040000fa
:04afe8003fff000027
:020000040000fa
:04afec009eff0000c4
:020000040000fa
:04aff0003aff000024
:020000040000fa
:04aff400ffff00005b
:00000001FF
