:020000004D2889
:100008007E14803120007F08AB002700931A472810
:10001800022620005408013A031D111C44285508E3
:10002800023A031D1B28F901FA0114302628200082
:100038005508033A031D2728F9011930AA002A0890
:10004800FA0000308B25F8302000970030309600F9
:100058005508013A031D4428DE08031D3B28DE012C
:10006800DE0A1724FF302000970096014428DE019D
:10007800E0309700C0309600F901FA0100308B2576
:10008800200011104828931220002B08FF007E1032
:1000980009004E2849308400003085001630EF26CC
:1000A8007E10200057282100A901A101A301A60163
:1000B800A001A501A801A201A701190887392038C4
:1000C800990022008C018E01FC3021008C00C73081
:1000D8008E0023008C0106308E00F03021009E0037
:1000E80083302000970096013D2632302000AC0076
:1000F8000030AD0059262000B501B60100301F259B
:1001080032302000AC000030AD0059263D26323098
:100118002000AC000030AD0059262000B501B60122
:1001280000301F2564302000AC000030AD00592697
:1001380021001114313020009800270092168B15E9
:100148000B178B1720000C0E890C0139210029068A
:10015800031DBB2801302000C70047082100A10764
:1001680005302102031CC528A301A30AC528A10143
:10017800A3012903FF3A013E2000C70047082100D8
:10018800A9002308031924292908013A031DD628A0
:1001980028080319D2289F262100A801A601A0013A
:1001A800A5012429A608031D2429A601A60A562567
:1001B8002000C70047082100A4002408013A031DB5
:1001C800F228C02507302000C8001430C700C70B2C
:1001D800EB28C80BEB2800329F261A292408023A7C
:1001E800031D1629C02507302000C8001430C70099
:1001F800C70BFC28C80BFC2800329F26DF302000E4
:10020800C70000320032C70B0529C025073020007F
:10021800C8001430C700C70B0F29C80B0F290032BC
:100228009F261A2920000C1E1E2974232100A501CF
:10023800A50A242920262100A801A80AA201A701AD
:10024800260803195929A508031D5929280803193F
:100258003B2901302000C70047082100A7070530C7
:100268002702031C59299F262100A801582901307B
:100278002000C70047082100A70728302702031CD1
:10028800592901302000C70047082100A207033080
:100298002202031C542974232100A501A50A592907
:1002A80020262100A801A80AA70133302000C70092
:1002B800C70B5C2900326524A6282000AF01B001D5
:1002C8003008803AAE002D08803A2E02031D6E29B0
:1002D8002C082F020318092A80302000B3000030B0
:1002E800B400B101B2013208803AAE0080302E026B
:1002F8000830031931020318A12920002F08563E9F
:10030800860087010108330503198C29DB268D290E
:10031800F5262000340D340CB400330CB300013042
:10032800B1070030B23D3208803AAE0080302E026C
:10033800083003193102031C812980302000B300E2
:100348000030B400B101B2013208803AAE0080300A
:100358002E020830031931020318D22920002F0871
:10036800593E86008701010833050319BD29DB269C
:10037800BE29F5262000340D340CB400330CB3002C
:100388000130B1070030B23D3208803AAE0080300B
:100398002E02083003193102031CB22980302000D4
:1003A800B3000030B400B101B2013208803AAE00A7
:1003B80080302E020830031931020318032A200066
:1003C8002F08533E86008701010833050319EE29DB
:1003D800DB26EF29F5262000340D340CB400330C4D
:1003E800B3000130B1070030B23D3208803AAE00A8
:1003F80080302E02083003193102031CE329013032
:100408002000AF070030B03D642933302000AE0033
:10041800AE0B0C2A00320800F301F4017408803A8C
:10042800F2007108803A7202031D1C2A70087302D8
:100438000318AD2A8030F7000030F800F501F60106
:100448007608803AF200803072020830031975028B
:1004580003184C2A7308563E860087010108770561
:100468000319382AE526392AFB26780D780CF80076
:10047800770CF7000130F5070030F63D7608803A32
:10048800F20080307202083003197502031C2E2A0C
:100498008030F7000030F800F501F6017608803A60
:1004A800F2008030720208300319750203187A2AA4
:1004B8007308593E86008701010877050319662AE3
:1004C800E526672AFB26780D780CF800770CF700EC
:1004D8000130F5070030F63D7608803AF2008030AA
:1004E8007202083003197502031C5C2A8030F70079
:1004F8000030F800F501F6017608803AF200803005
:1005080072020830031975020318A82A7308533EAB
:1005180086008701010877050319942AE526952A9C
:10052800FB26780D780CF800770CF7000130F507FA
:100538000030F63D7608803AF200803072020830CA
:1005480003197502031C8A2A0130F3070030F43DB1
:10055800122A3330F200F20BAF2A003208002000D2
:100568002F080319BC2A2E082D042C04031DCD2A9C
:100578000030AC000030AD000030AE0008000130A3
:10058800B1003108AF070130AE36AD0CAC0C890BA9
:10059800C82AFE302E050319E62AC32A0130B10005
:1005A8003108AF070130AC07003003180130AD0740
:1005B800003003180130AE070130AE36AD0CAC0C7C
:1005C800890BE12AFF302E050319F32AD22A0130BC
:1005D800AF020130AC35AD0DAE0D890BEE2AAD1F63
:1005E800EB2A2F18FD2AFF30AC057F30AD05FF3010
:1005F800AE050310AF0C2F08B100B201B3011030E3
:10060800B135B20DB30D890B042B3108AC04320897
:10061800AD043308AE04300803190800AE1708000B
:10062800730803191C2B720871047004031D2D2B09
:100638000030F0000030F1000030F2000800013016
:10064800F5007508F3070130F236F10CF00C890B50
:10065800282BFE3072050319462B232B0130F50099
:100668007508F3070130F007003003180130F1076F
:10067800003003180130F2070130F236F10CF00CAB
:10068800890B412BFF3072050319532B322B013094
:10069800F3020130F035F10DF20D890B4E2BF11FED
:1006A8004B2B73185D2BFF30F0057F30F105FF30C1
:1006B800F2050310F30C7308F500F601F70110308A
:1006C800F535F60DF70D890B642B7508F0047608DF
:1006D800F1047708F204740803190800F2170800F7
:1006E800712620002D08D201D2072C08D101D1078C
:1006F8009130B8009E30B9004330BA005208B501B5
:10070800B5075108B401B407B52620003408BB006A
:100718003508BC003608BD00A7240318AC2B2026DA
:10072800012722000E160A302000C100C10B9A2BA7
:100738000032003222000E1215302000C20049306B
:10074800C100C10BA52BC20BA52B00000427C62B8B
:10075800C025DA302000C1000032C10BB02B0032B6
:100768009F2619302000C100C10BB82B0032C025CC
:1007780009302000C2001C30C100C10BC12BC20BC4
:10078800C12B00009F260800712620002D08D201E9
:10079800D2072C08D101D1074130B800BD30B900CB
:1007A8004330BA005208B501B5075108B401B4077F
:1007B800B52620003408BB003508BC003608BD004B
:1007C800A7240318F02B2000B5011430C1004108FC
:1007D800B60000301F25080091302000B8009E3078
:1007E800B9004330BA005208B501B5075108B40141
:1007F800B407B52620003408BB003508BC0036080D
:10080800BD00A7240318112C0D302000C100410899
:10081800B500B60118301F2508002000B501B60143
:1008280028301F250800882671082000D201D20729
:100838007008D101D1074130A000BD30A10043307C
:10084800A2005208F901F9075108F801F807C9266A
:1008580078082000A3007908A4007A08A500E324FA
:1008680003183F2CF90114302000A9002908FA00C8
:1008780000308B25080091302000A0009E30A10098
:100888004330A2005208F901F9075108F801F807A6
:10089800C92678082000A3007908A4007A08A500D2
:1008A800E3240318602C0D302000A9002908F90062
:1008B800FA0118308B250800F901FA0128308B2538
:1008C8000800E425200055085706031908005508B4
:1008D800BA003A08D7005508023A031D872C07309A
:1008E800BB001430BA00BA0B772CBB0B772C003244
:1008F800E42520005508023A031D0800B501B60199
:1009080014301F25080020005508033A031D942CB5
:10091800B5011930BA003A08B60000301F250800A2
:1009280020005508013A031D08005408013A03192C
:100938000800B501B60100301F25F83020009700E7
:100948003030960008002000BA1FBE2C3809BE00BF
:100958003909BF003A09C000BE0A0319BF0A0319C2
:10096800C00A00303E07B80000303F3DB900803073
:10097800403DBA00BD1FD42C3B09BE003C09BF0056
:100988003D09C000BE0A0319BF0A0319C00A003096
:100998003E07BB0000303F3DBC008030403DBD00FD
:1009A8008030BA068030BD063D083A02031D0800B3
:1009B8003C083902031D08003B08380208002000E3
:1009C800A21FFA2C2009A6002109A7002209A800C5
:1009D800A60A0319A70A0319A80A00302607A000C7
:1009E8000030273DA1008030283DA200A51F102D12
:1009F8002309A6002409A7002509A800A60A0319A7
:100A0800A70A0319A80A00302607A3000030273DCB
:100A1800A4008030283DA5008030A2068030A506BD
:100A280025082202031D080024082102031D0800CE
:100A38002308200208002000B90018100430B7006D
:100A4800B70B242D00322100190887397038990016
:100A580029302000B8009430B700B70B312DB80BFF
:100A6800312D000020003908B7003708D9003508B3
:100A7800B7003708D6003608B7003708D30001306A
:100A8800AC000030AD0061212100190887392038F9
:100A9800990033302000B700B70B502D00322000EA
:100AA80018140800153021009D0022008E15000042
:100AB8001B3021009D009D185F2D1C082000AD01F2
:100AC800AD0721001B082000AC01AC0722008E11E5
:100AD80022302000AE000330AF002F082D02031D86
:100AE800772D2E082C0203187B2D01300800F530D5
:100AF800AE000330AF002D082F02031D852D2C08F2
:100B08002E020318892D0230080000300800FD006D
:100B1800200018100430FB00FB0B902D0032210040
:100B280019088739703899002930FC009430FB0087
:100B3800FB0B9C2DFC0B9C2D00007D08FB007B080B
:100B48002000D9007908FB007B08D6007A08FB0052
:100B58007B08D3000130F0000030F10010222100A2
:100B680019088739203899003330FB00FB0BBA2D60
:100B78000032200018140800200018108B130530CC
:100B8800AC000030AD0059262000B501B601143084
:100B98001F2532302000AC000030AD005926FF3050
:100BA80020009B000C3025009300CF309305803047
:100BB8009100FC3020009C051C15D401D40A0800C3
:100BC80020000E1CFB2D0C1DF22D5508033A0319AD
:100BD80008000330AC002C08D50008005508023A7C
:100BE800031908000230AC002C08D500080055088D
:100BF800013A03190800D501D50A080020000E1C87
:100C0800192E0C1D102E5508033A0319080003303D
:100C1800F0007008D50008005508023A03190800CA
:100C28000230F0007008D50008005508013A031991
:100C38000800D501D50A0800200018108B131230BF
:100C4800BA003A08B500B60100301F250C30200064
:100C58009B000C30250093001308CF3920389300EF
:100C680006309100FC3020009C051C15D401D40AE4
:100C78000800E42520005508023A031D482EB50156
:100C8800B60114301F25080020005508033A031D3B
:100C9800522EB501B60114301F2508002000550852
:100CA800013A031D0800C823080020002D08803AD7
:100CB800AE0080302E02031D632E01302C02031C6F
:100CC800080004302000AE00AE0B682E0032FF3062
:100CD8002000AC07FF30AD3D5A2E153021009D0095
:100CE80017309D009D18762E1C082000CA01CA07DF
:100CF80021001B082000C901C9074A08AD01AD073A
:100D08004908AC01AC070800153021009D001730D8
:100D18009D009D188D2E1C082000CA01CA072100BD
:100D28001B082000C901C9074A08F101F107490851
:100D3800F001F007080020001C1125009301220093
:100D48008E122000B501B60100301F25FD302000AD
:100D580097008B171814D401E0309700C030960024
:100D6800080020003408AC003508AD00AE018E3014
:100D7800B7003708AF00B001B32220002C08B40038
:100D88002D08B5002E08B60008007808F00079088C
:100D9800F100F2018E30FB007B08F300F40114230C
:100DA8007008F8007108F9007208FA0008002200BB
:100DB8008C140000000000000000000022008C10CD
:100DC800080022008C140000000000000000000051
:100DD80022008C100800640080010131890BF02E7C
:100DE800003422008C14000022008C10080022001D
:100DF8008C14000022008C10080022000C1408003B
:060E080022000C1008009E
:020000040001F9
:04000E0024F9FFFFD3
:00000001FF
