:0200000049288D
:10000800803120007F08AB002700931A4428172668
:1000180020005403031D111C412802305506031DFE
:100028001928F901FA011430242803302000550654
:10003800031D2528F9011930AA002A08FA00003002
:100048005125F83020009700303096005503031DE5
:1000580041285E08031D3828DE01DE0A1A24FF3015
:100068002000970096014128DE01E0309700C0305B
:100078009600F901FA010030512520001110452899
:10008800931220002B08FF0009004A2849308400F9
:10009800003085001630DD26200052282100A901F5
:1000A800A101A301A601A001A501A801A201A70120
:1000B800190887392038990022008C018E01FC30FC
:1000C80021008C00C7308E0023008C0106308E0082
:1000D800F03021009E0083302000970096013426DE
:1000E80032302000AC000030AD004F262000B501B2
:1000F800B60100301A2532302000AC000030AD00C7
:100108004F26342632302000AC000030AD004F2698
:100118002000B501B60100301A2564302000AC007B
:100128000030AD004F262100111431302000980016
:10013800270092168B150B178B1722000E1604300A
:100148002000C700C70BA628003222000E12333049
:100158002000C700C70BAE280032A12820000C0ED3
:10016800890C013921002906031DC7280130200008
:10017800C70047082100A10705302102031CD12828
:10018800A301A30AD128A101A3012903FF3A013E33
:100198002000C70047082100A900230803192E29B9
:1001A8002903031DE12828080319DD2867262100F3
:1001B800A801A601A001A5012E292608031D2E29A4
:1001C800A601A60A86252000C70047082100A4002A
:1001D8002403031DFC28B92507302000C80014306B
:1001E800C700C70BF528C80BF52800326726242955
:1001F80002302406031D2029B92507302000C80035
:100208001430C700C70B0629C80B06290032672619
:10021800DF302000C70000320032C70B0F29B92594
:1002280007302000C8001430C700C70B1929C80BB5
:10023800192900326726242920000C1E2829862324
:100248002100A501A50A2E29FA252100A801A80A3E
:10025800A201A7012608031963292508031D63299C
:1002680028080319452901302000C7004708210044
:10027800A70705302702031C632967262100A80168
:10028800622901302000C70047082100A70728304D
:100298002702031C632901302000C70047082100FA
:1002A800A20703302202031C5E2986232100A50130
:1002B800A50A6329FA252100A801A80AA701333055
:1002C8002000C700C70B662900326224B22820002C
:1002D800AF01B0013008803AAE002D08803A2E02F6
:1002E800031D78292C082F020318132A80302000B8
:1002F800B3000030B400B101B2013208803AAE0058
:1003080080302E020830031931020318AB2920006F
:100318002F08563E860087010108330503199629E0
:10032800C9269729E3262000340D340CB400330C79
:10033800B3000130B1070030B23D3208803AAE0058
:1003480080302E02083003193102031C8B298030BB
:100358002000B3000030B400B101B2013208803A85
:10036800AE0080302E020830031931020318DC2950
:1003780020002F08593E860087010108330503191C
:10038800C729C926C829E3262000340D340CB40037
:10039800330CB3000130B1070030B23D3208803A67
:1003A800AE0080302E02083003193102031CBC292C
:1003B80080302000B3000030B400B101B20132082F
:1003C800803AAE0080302E0208300319310203183B
:1003D8000D2A20002F08533E8600870101083305A7
:1003E8000319F829C926F929E3262000340D340C0D
:1003F800B400330CB3000130B1070030B23D32080D
:10040800803AAE0080302E02083003193102031CF6
:10041800ED2901302000AF070030B03D6E293330A0
:100428002000AE00AE0B162A00320800F301F401DA
:100438007408803AF2007108803A7202031D262A75
:10044800700873020318B72A8030F7000030F800EC
:10045800F501F6017608803AF20080307202083021
:10046800031975020318562A7308563E8600870139
:10047800010877050319422AD326432AE926780D6D
:10048800780CF800770CF7000130F5070030F63DDE
:100498007608803AF200803072020830031975023B
:1004A800031C382A8030F7000030F800F501F60107
:1004B8007608803AF200803072020830031975021B
:1004C8000318842A7308593E8600870101087705B6
:1004D8000319702AD326712AE926780D780CF800BA
:1004E800770CF7000130F5070030F63D7608803AC2
:1004F800F20080307202083003197502031C662A64
:100508008030F7000030F800F501F6017608803AEF
:10051800F200803072020830031975020318B22AFB
:100528007308533E860087010108770503199E2A40
:10053800D3269F2AE926780D780CF800770CF70067
:100548000130F5070030F63D7608803AF200803039
:100558007202083003197502031C942A0130F3074C
:100568000030F43D1C2A3330F200F20BB92A003275
:10057800080020002F080319C62A2E082D042C0471
:10058800031DD72A0030AC000030AD000030AE00AB
:1005980008000130B1003108AF070130AE36AD0CAC
:1005A800AC0C890BD22AFE302E050319F02ACD2A6D
:1005B8000130B1003108AF070130AC070030031833
:1005C8000130AD07003003180130AE070130AE36F8
:1005D800AD0CAC0C890BEB2AFF302E050319012B4F
:1005E800DC2A02302F02031C032B0130AF0201303A
:1005F800AC35AD0DAE0D890BFC2AAD1FF52A2F18B1
:100608000B2BFF30AC057F30AD05FF30AE05031076
:10061800AF0C2F08B100B201B3011030B135B20DE3
:10062800B30D890B122B3108AC043208AD04330822
:10063800AE04300803190800AE1708007308031940
:100648002A2B720871047004031D3B2B0030F00044
:100658000030F1000030F20008000130F5007508A4
:10066800F3070130F236F10CF00C890B362BFE3013
:1006780072050319542B312B0130F5007508F30767
:100688000130F007003003180130F107003003187B
:100698000130F2070130F236F10CF00C890B4F2BC8
:1006A800FF3072050319652B402B02307302031CBF
:1006B800672B0130F3020130F035F10DF20D890B93
:1006C800602BF11F592B73186F2BFF30F0057F300B
:1006D800F105FF30F2050310F30C7308F500F6017D
:1006E800F7011030F535F60DF70D890B762B7508E7
:1006F800F0047608F1047708F20474080319080076
:10070800F2170800912620002D08D2002C08D100ED
:100718009130B8009E30B9004330BA005208B50095
:100728005108B4007D2620003408BB003508BC0001
:100738003608BD00A2240318B52BFA25EF2622009F
:100748000E160032003222000E1215302000C200B0
:100758004930C100C10BAE2BC20BAE2B0000F226F4
:10076800CF2BB925DA302000C1000032C10BB92BDC
:100778000032672619302000C100C10BC12B00329E
:10078800B92509302000C2001C30C100C10BCA2B9A
:10079800C20BCA2B000067260800912620002D08EE
:1007A800D2002C08D1004130B800BD30B900433028
:1007B800BA005208B5005108B4007D26200034085C
:1007C800BB003508BC003608BD00A2240318F52B71
:1007D8002000B5011430C1004108B60000301A25C8
:1007E800080091302000B8009E30B9004330BA00AC
:1007F8005208B5005108B4007D2620003408BB001B
:100808003508BC003608BD00A2240318142C0D308E
:100818002000C1004108B500B60118301A250800AB
:100828002000B501B60128301A250800A426710851
:100838002000D2007008D1004130A000BD30A100D6
:100848004330A2005208F9005108F800B72678088A
:100858002000A3007908A4007A08A500DE24031864
:100868003E2CF90114302000A9002908FA000030B4
:100878005125080091302000A0009E30A10043308F
:10088800A2005208F9005108F800B726780820009D
:10089800A3007908A4007A08A500DE2403185D2CBB
:1008A8000D302000A9002908F900FA011830512557
:1008B8000800F901FA01283051250800DD2520003B
:1008C80055085706031908005508BA003A08D70012
:1008D80002305506031D842C0730BB001430BA00C3
:1008E800BA0B742CBB0B742C0032DD2502302000AF
:1008F8005506031D0800B501B60114301A25080075
:10090800033020005506031D912CB5011930BA009B
:100918003A08B60000301A25080020005503031DC8
:100928000800540303190800B501B60100301A2560
:10093800F830200097003030960008002000BA1FD9
:10094800B92C3809BE003909BF003A09C000BE0AEF
:100958000319BF0A0319C00A00303E07B800003067
:100968003F3DB9008030403DBA00BD1FCF2C3B0948
:10097800BE003C09BF003D09C000BE0A0319BF0AFA
:100988000319C00A00303E07BB0000303F3DBC00E1
:100998008030403DBD008030BA068030BD063D083D
:1009A8003A02031D08003C083902031D08003B08F1
:1009B800380208002000A21FF52C2009A6002109F2
:1009C800A7002209A800A60A0319A70A0319A80A5A
:1009D80000302607A0000030273DA1008030283DC8
:1009E800A200A51F0B2D2309A6002409A70025098D
:1009F800A800A60A0319A70A0319A80A003026079F
:100A0800A3000030273DA4008030283DA500803099
:100A1800A2068030A50625082202031D0800240826
:100A28002102031D08002308200208002000B90045
:100A380018100430B700B70B1F2D00322100190819
:100A480087397038990029302000B8009430B700F1
:100A5800B70B2C2DB80B2C2D000020003908B7003F
:100A68003708D9003508B7003708D6003608B70068
:100A78003708D3000130AC000030AD006B212100F5
:100A8800190887392038990033302000B700B70B90
:100A98004B2D0032200018140800FD00200018100B
:100AA8000430FB00FB0B562D003221001908873952
:100AB800703899002930FC009430FB00FB0B622D44
:100AC800FC0B622D00007D08FB007B082000D9008C
:100AD8007908FB007B08D6007A08FB007B08D30066
:100AE8000130F0000030F1001A222100190887397E
:100AF800203899003330FB00FB0B802D003220009A
:100B080018140800153021009D0022008E150000E1
:100B18001B3021009D009D188F2D1C082000AD0062
:100B280021001B082000AC0022008E11223020007A
:100B3800AE000330AF002F082D02031DA52D2E088F
:100B48002C020318A92D01300800F530AE0003303F
:100B5800AF002D082F02031DB32D2C082E020318F9
:100B6800B72D0230080000300800200018108B1341
:100B78000530AC000030AD004F262000B501B601AD
:100B880014301A2532302000AC000030AD004F265A
:100B9800FF3020009B000C3025009300CF309305D8
:100BA80080309100FC3020009C051C15D401D40A2B
:100BB800080020000E1CF42D0C1DEB2D03305506EB
:100BC800031908000330AC002C08D50008000230D7
:100BD8005506031908000230AC002C08D50008009F
:100BE800550303190800D501D50A0800200018107C
:100BF8008B131230BA003A08B500B60100301A2536
:100C08000C3020009B000C30250093001308CF39CE
:100C18002038930006309100FC3020009C051C15FC
:100C2800D401D40A080020000E1C2E2E0C1D252EDF
:100C380003305506031908000330F0007008D5008A
:100C4800080002305506031908000230F000700849
:100C5800D5000800550303190800D501D50A080076
:100C6800DD25023020005506031D3F2EB501B601D3
:100C780014301A250800033020005506031D492E9C
:100C8800B501B60114301A25080020005503031DCC
:100C98000800D123080020002D08803AAE008030DB
:100CA8002E02031D592E01302C02031C08000430AB
:100CB8002000AE00AE0B5E2E0032FF302000AC07E5
:100CC800FF30AD3D502E20001C112500930122005D
:100CD8008E122000B501B60100301A25FD30200023
:100CE80097008B171814D401E0309700C030960095
:100CF800080020003408AC003508AD00AE018E3085
:100D0800B7003708AF00B001BD2220002C08B4009E
:100D18002D08B5002E08B6000800153021009D00EA
:100D280017309D009D18962E1C082000CA0021002F
:100D38001B082000C9004A08AD004908AC0008009B
:100D4800153021009D0017309D009D18A92E1C0804
:100D58002000CA0021001B082000C9004A08F10031
:100D68004908F00008007808F0007908F100F2015D
:100D78008E30FB007B08F300F40122237008F80092
:100D88007108F9007208FA00080022008C140000AB
:100D9800000000000000000022008C100800220063
:100DA8008C140000000000000000000022008C10DD
:100DB8000800640080010131890BDE2E0034220016
:100DC8008C14000022008C10080022008C140000F3
:100DD80022008C10080022000C14080022000C10BD
:020DE800080001
:020000040001F9
:04000E0024F9FFFFD3
:00000001FF
