:020000040000fa
:080000000002040000000000f2
:020000040000fa
:100400004f8020000e7f21000e01880000000000b8
:100410000c00070060602000010020001f000700a2
:10042000000020000000e000020032000000020096
:1004300000000000c4050200000000000040da00d7
:100440000000fe004440a900000020000000e00081
:100450000300320000002000a00188004440a800f2
:1004600000000600f03fb1000180b1000600350039
:10047000ee03090000000000403fb1000180b10020
:10048000fbff3d001000b000203fb000020035002f
:1004900000800900000000000000060091018800b3
:1004a000800078000000eb0015003700e28040007b
:1004b00032a0b4009101ba00e280400032a0b40042
:1004c0009102ba00e280400032a0b4000002eb00ca
:1004d000472bde00f507b200602ce10004003a0073
:1004e0000059eb008301e900fdff3e0004003700e6
:1004f0006128e100010032000082eb0004000700e7
:100500001101ba000200e000e8ff3a000000060016
:100510003159ba008301e9000c0032002159ba00b8
:100520008301e900080032000400e00003003a0003
:10053000e280400032a0b400f5ff370011d9ba00c4
:100540008301e900faff3a008100e800e180400001
:1005500032a0b400000006000040da000000fe00f7
:020000040000fa
:10000800ac020000ac020000ac020000ac02000030
:10001800ac020000ac020000ac020000ac02000020
:10002800ac020000ac020000ac020000ac02000010
:10003800ac020000ac020000ac020000ac02000000
:10004800ac020000ac020000ac020000ac020000f0
:10005800ac020000ac020000ac020000ac020000e0
:10006800ac020000ac020000ac020000b0020000cc
:10007800ac020000ac020000ac020000ac020000c0
:10008800ac020000ac020000ac020000ac020000b0
:10009800ac020000ac020000ac020000ac020000a0
:1000a800ac020000ac020000ac020000ac02000090
:1000b800ac020000ac020000ac020000ac02000080
:1000c800ac020000ac020000ac020000ac02000070
:1000d800ac020000ac020000ac020000ac02000060
:1000e800ac020000ac020000ac020000ac02000050
:1000f800ac020000ac020000ac020000ac02000040
:10010800ac020000ac020000ac020000ac0200002f
:10011800ac020000ac020000ac020000ac0200001f
:10012800ac020000ac020000ac020000ac0200000f
:10013800ac020000ac020000ac020000ac020000ff
:10014800ac020000ac020000ac020000ac020000ef
:10015800ac020000ac020000ac020000ac020000df
:10016800ac020000ac020000ac020000ac020000cf
:10017800ac020000ac020000ac020000ac020000bf
:10018800ac020000ac020000ac020000ac020000af
:10019800ac020000ac020000ac020000ac0200009f
:1001a800ac020000ac020000ac020000ac0200008f
:1001b800ac020000ac020000ac020000ac0200007f
:1001c800ac020000ac020000ac020000ac0200006f
:1001d800ac020000ac020000ac020000ac0200005f
:1001e800ac020000ac020000ac020000ac0200004f
:0801f800ac020000ac020000a3
:020000040000fa
:10020800ac020000ac020000ac020000ac0200002e
:10021800ac020000ac020000ac020000ac0200001e
:10022800ac020000ac020000ac020000ac0200000e
:10023800ac020000ac020000ac020000ac020000fe
:10024800ac020000ac020000ac020000ac020000ee
:10025800ac020000ac020000ac020000ac020000de
:10026800ac020000ac020000ac020000b0020000ca
:10027800ac020000ac020000ac020000ac020000be
:10028800ac020000ac020000ac020000ac020000ae
:10029800ac020000ac020000ac020000ac0200009e
:1002a800ac020000ac020000ac020000ac0200008e
:1002b800ac020000ac020000ac020000ac0200007e
:1002c800ac020000ac020000ac020000ac0200006e
:1002d800ac020000ac020000ac020000ac0200005e
:1002e800ac020000ac020000ac020000ac0200004e
:1002f800ac020000ac020000ac020000ac0200003e
:10030800ac020000ac020000ac020000ac0200002d
:10031800ac020000ac020000ac020000ac0200001d
:10032800ac020000ac020000ac020000ac0200000d
:10033800ac020000ac020000ac020000ac020000fd
:10034800ac020000ac020000ac020000ac020000ed
:10035800ac020000ac020000ac020000ac020000dd
:10036800ac020000ac020000ac020000ac020000cd
:10037800ac020000ac020000ac020000ac020000bd
:10038800ac020000ac020000ac020000ac020000ad
:10039800ac020000ac020000ac020000ac0200009d
:1003a800ac020000ac020000ac020000ac0200008d
:1003b800ac020000ac020000ac020000ac0200007d
:1003c800ac020000ac020000ac020000ac0200006d
:1003d800ac020000ac020000ac020000ac0200005d
:1003e800ac020000ac020000ac020000ac0200004d
:0803f800ac020000ac020000a1
:020000040000fa
:100560003600f800809fbe00829fbe00849fbe00c0
:10057000869fbe003400f80000002000a001880023
:100580000a00fa00a0002000750007008660a9009c
:10059000cbc2bf00624060008000eb0041079800c2
:1005a0000004e00002003a00120020004207980018
:1005b000cbc2bf00704060000004e00003003a00be
:1005c0002000200030079800020037008000eb0078
:1005d000310798004e0190003e009000000141005c
:1005e00022079800cbc2bf000042b2000004e00026
:1005f00003003a0041002000110798000200370074
:100600000001eb0012079800ae0090001e01900060
:10061000028040001040880010408000000f7800e9
:100620009e007800e38f5000230032001e01780006
:10063000e30f51000a003c001e007800e10f50005b
:10064000170032009e007800e18f500017003c0038
:100650001e0178000200e0000e0032002400370086
:100660001e007800e50f5000190032009e0078004f
:10067000e58f5000130035001e017800e60f510091
:10068000160032001e007800e70f500016003200fe
:1006900017003700a00f2000f200070014003700f9
:1006a000000f2000ef00070011003700600e20004f
:1006b000ec0007000e003700300e2000e9000700b4
:1006c0000b003700200f2000e6000700080037006d
:1006d000700e2000e300070005003700100e200018
:1006e000e000070002003700400e2000dd00070098
:1006f000813e200010002000f00007000080fa007a
:100700003400f9004f03be004f02be004f01be008f
:100710004f00be003600f900004006000200fa005b
:10072000000f78001e0078006103b8008600780092
:10073000a0002000000ab8006030b9000501780070
:10074000000141006a38b9000001410082027800ce
:100750000400be0043ff07000080fa00000006000e
:100760000200fa00000f78001e0078006103b80054
:1007700086007800007122000009b8006030b900de
:1007800003027800000242000071220000b8b900a4
:1007900000024200840178000200be0031ff070021
:1007a0000080fa00000006000000fa00d522a80030
:1007b0000080fa00000006000000fa00d502a80040
:1007c0000080fa00000006000000fa00d462a800d1
:1007d0000080fa00000006000000fa00d522a900ff
:1007e0000080fa00000006000000fa00d502a9000f
:1007f0000080fa00000006000000fa00d462a900a0
:100800000080fa00000006000000fa00f2ff070076
:10081000f5ff0700f8ff07000080fa00000006005f
:100820000200fa00000f78009e00780010002000ff
:10083000a20007009e007800200020009f00070013
:100840009e007800300020009c0007000080fa0025
:10085000000006000000fa000000eb00001688000f
:100860000000eb00401688000000eb0080168800b6
:10087000c922a800c982a800c9a2a80062a0a80035
:1008800061a0a80061c0a80069a0a80069c0a80074
:100890006aa0a8008660a9009660a800d10a20007e
:1008a00091407800f0c8b30000c0600001c2b300fe
:1008b00001407000ade0b7000080fa0000000600c3
:1008c0000000fa0060102000200e8800c901a80076
:1008d000c801a8000000eb00b00e8800c1e1a8002c
:1008e0000080fa00000006000000fa0060102000fe
:1008f000b00e88000080fa00000006000000fa0038
:100900000000eb00b00e88000080fa000000060036
:100910000000fa00f4ff07009000200090ff07009d
:10092000f6ff0700400020008dff0700401f200059
:100930007aff07000080fa00000006000000fa00bd
:10094000e9ff07009000200085ff0700ebff07008c
:100950002000200082ff0700a00f20006fff07008b
:100960000080fa00000006000000fa00deff070029
:100970000023200069ff0700e0ff0700002320009c
:1009800066ff07000080fa00000006000000fa0081
:10099000d5ff07000023200060ff0700d7ff0700f6
:1009a000100020006eff0700202b20005bff0700d7
:1009b0000080fa00000006000400fa00100798000a
:1009c00010002000004088000000eb00000f7800bd
:1009d0000c003700004080009e0090000100600085
:1009e0000000e00002003a00e8ff070001003700c5
:1009f000ddff07000040800000004000004088004c
:100a00001e0fe800700020009e0f1000f1ff340060
:100a10000080fa00000006000000fa00b2ff0700a4
:100a2000002320003dff0700b4ff07000080fa000c
:100a3000000006000200fa00000f7800b4ff070073
:100a4000f00f2000dcff07000000eb00daff0700da
:100a50001e007800d8ff0700efff07000080fa00b3
:100a6000000006000400fa0010079800f10f2000b3
:100a70001e009000008f5000a5ff0700f00f20001f
:100a8000cdff07000000eb00cbff07001e00900029
:100a9000c9ff07001e007800c7ff0700deff070040
:100aa0000080fa00000006000000fa00a00f2000fd
:100ab000ecff07000080fa00000006000600fa00c4
:100ac000000f7800110798001e007800200798009a
:100ad0002e009000e10f5000150032002e00900013
:100ae000e10f500004003c002e0090000000e000e8
:100af00008003200220037002e009000e20f500064
:100b0000120032002e009000e30f50001600320059
:100b10001b00370024ff070027ff07002aff0700fc
:100b20001e0090000eff070037ff0700140037007b
:100b30001dff07002cff07002fff07001e0090007d
:100b400007ff070030ff07000d00370022ff0700f6
:100b500019ff070028ff07001e00900000ff070094
:100b600029ff0700060037001bff07001eff0700d4
:100b700015ff07001e009000f9fe070022ff070086
:100b80000080fa00000006000000fa0031ff0700b4
:100b90004bff0700c012200021ff0700c0122000f9
:100ba0001fff0700810c200020002000c3ff07006a
:100bb000800c2000eafe0700810c200020002000ad
:100bc000beff0700800c2000e5fe0700810c20001e
:100bd00020002000b9ff0700800c2000e0fe070085
:100be000813e200030002000b4ff0700803e20003e
:100bf000dbfe0700813e200030002000afff070031
:0c0c0000803e2000d6fe0700faff3700ff
:020000040000fa
:100c0c0000080000040000000000000000000000cc
:00000001FF
