:020000040000fa
:080000000002040000000000f2
:020000040000fa
:100008005203000052030000520300005203000094
:100018005203000052030000520300005203000084
:100028005203000052030000520300005203000074
:100038005203000052030000520300005203000064
:100048005203000052030000520300003e790000f2
:100058007c790000520300005203000052030000a4
:100068005203000052030000520300005203000034
:100078005203000052030000520300005203000024
:100088005203000052030000520300005203000014
:100098005203000052030000520300005203000004
:1000a80052030000520300005203000052030000f4
:1000b80052030000520300005203000052030000e4
:1000c80052030000520300005203000052030000d4
:1000d80052030000520300005203000052030000c4
:1000e80052030000520300005203000052030000b4
:1000f80052030000520300005203000052030000a4
:100108005203000052030000520300005203000093
:100118005203000052030000520300005203000083
:100128005203000052030000520300005203000073
:100138005203000052030000520300005203000063
:100148005203000052030000520300005203000053
:100158005203000052030000520300005203000043
:100168005203000052030000520300005203000033
:100178005203000052030000c82800005203000088
:100188005203000052030000520300005203000013
:100198005203000052030000520300005203000003
:1001a80052030000520300005203000052030000f3
:1001b80052030000520300005203000052030000e3
:1001c80052030000520300005203000052030000d3
:1001d80052030000520300005203000052030000c3
:1001e80052030000520300005203000052030000b3
:0801f800520300005203000055
:020000040000fa
:100208005203000052030000520300005203000092
:100218005203000052030000520300005203000082
:100228005203000052030000520300005203000072
:100238005203000052030000520300005203000062
:100248005203000052030000520300003e790000f0
:100258007c790000520300005203000052030000a2
:100268005203000052030000520300005203000032
:100278005203000052030000520300005203000022
:100288005203000052030000520300005203000012
:100298005203000052030000520300005203000002
:1002a80052030000520300005203000052030000f2
:1002b80052030000520300005203000052030000e2
:1002c80052030000520300005203000052030000d2
:1002d80052030000520300005203000052030000c2
:1002e80052030000520300005203000052030000b2
:1002f80052030000520300005203000052030000a2
:100308005203000052030000520300005203000091
:100318005203000052030000520300005203000081
:100328005203000052030000520300005203000071
:100338005203000052030000520300005203000061
:100348005203000052030000520300005203000051
:100358005203000052030000520300005203000041
:100368005203000052030000520300005203000031
:100378005203000052030000c82800005203000086
:100388005203000052030000520300005203000011
:100398005203000052030000520300005203000001
:1003a80052030000520300005203000052030000f1
:1003b80052030000520300005203000052030000e1
:1003c80052030000520300005203000052030000d1
:1003d80052030000520300005203000052030000c1
:1003e80052030000520300005203000052030000b1
:0803f800520300005203000053
:020000040000fa
:10040000ef9621000e7f22000e0188000000000000
:10041000000020000000e000020032000001200087
:10042000200288000c00070020bc270001002000eb
:1004300011000700000020000000e0000200320070
:1004400000000200000000002e6a02000000000010
:100450000040da000000fe004440a9006044200093
:100460000000e0000300320000002000a00188002e
:100470004440a80000000600910188008000780038
:100480000000eb0015003700e280400032a0b4000d
:100490009101ba00e280400032a0b4009102ba009b
:1004a000e280400032a0b4000002eb00472bde00e7
:1004b000f507b200602ce10004003a000059eb009f
:1004c0008301e900fdff3e00040037006128e100e0
:1004d000010032000082eb00040007001101ba00a5
:1004e0000200e000e8ff3a00000006003159ba00bf
:1004f0008301e9000c0032002159ba008301e900b0
:10050000080032000400e00003003a00e2804000ee
:1005100032a0b400f5ff370011d9ba008301e90019
:10052000faff3a008100e800e180400032a0b40008
:1005300000000600000000000000000000000000b5
:1005400000000000000000000000000000000000ab
:10055000000000000000000000000000000000009b
:10056000000000000000000000000000000000008b
:10057000000000000000000000000000000000007b
:10058000000000000000000000000000000000006b
:10059000000000000000000000000000000000005b
:1005a000000000000000000000000000000000004b
:1005b000000000000000000000000000000000003b
:1005c000000000000000000000000000000000002b
:1005d000000000000000000000000000000000001b
:1005e000000000000000000000000000000000000b
:1005f00000000000000000000000000000000000fb
:1006000000000000000000000000000000000000ea
:1006100000000000000000000000000000000000da
:1006200000000000000000000000000000000000ca
:1006300000000000000000000000000000000000ba
:1006400000000000000000000000000000000000aa
:10065000000000000000000000000000000000009a
:10066000000000000000000000000000000000008a
:10067000000000000000000000000000000000007a
:10068000000000000000000000000000000000006a
:10069000000000000000000000000000000000005a
:1006a000000000000040da000000fe00889fbe004d
:1006b00080047800608b8000e00f500004003a0056
:1006c0000e0007000084eb00e00f5000080035002a
:1006d000688b8000e08f5400050032000900440060
:1006e00006000700e00f500001003d000084eb0011
:1006f000080078004f04be0000000600e00f500024
:1007000004003a00e4162100648b8800000278009f
:10071000060037000082eb00e5962100850f5000af
:1007200002003e00608b88000002eb0004007800ad
:10073000000006006022b800060220000000d00081
:100740008180d2000482d2008582d2000000a00005
:100750000202520083825a0003003100020242006a
:1007600083824a000000a1000603e900f3ff3a007b
:1007700000000600efff07000400be0000000600b6
:1007800024162100e4874700158b8000889fbe0057
:100790008a9fbe008c9fbe008e1f7800e08f5200a3
:1007a0000b003a0024029800e4024200f47f880023
:1007b000158b8800558b8800a44290000504a0008a
:1007c00025429800e44290000504a000654298008c
:1007d00067044000e4162100250020004244de00aa
:1007e000e99621004244dd0084845400050744005a
:1007f000110009008504d8001c972100f27f8000b9
:100800000406560080bf9f000e0747000003eb0060
:10081000e4054400080646000200370016002000e8
:100820000d01780022429000610262000200320055
:100830000a003700150978009202780025429000de
:1008400061026200fbff320008024100848f520007
:1008500002003900e00f54003f003d00920678008e
:100860000d00a100828f5600edff3e00e10f530006
:10087000eaff3a000fba9700840f540002003600d6
:10088000890f540010003900614ab900b0ff2f00f1
:10089000010020006143b800040250008582580026
:1008a000840f5300858f5b00020035000b05780034
:1008b00006003700110009000986d8000982b90036
:1008c00004057800010037000e0578000a00780062
:1008d00076ff0700e10f400005003a000b057800a5
:1008e0000b00780071ff0700e10f40002b00320081
:1008f000548b8000000a7800548b8000640342000f
:10090000a4429000860f5000020032000504a000af
:10091000010037000504a100254298006405550038
:10092000241621000a0540000a0878005a8b880026
:10093000040d7800558b80000003eb0025429000e9
:100940000404a000a4429800204290000404a100e6
:1009500024409800b2ff3700f47f8800848f520053
:10096000070036001403be008042eb00d67f8800eb
:10097000e77f8800120a7800f47f80002542980003
:1009800022429000f77f80000404a000070978004d
:100990002441980064004100010037000000eb0092
:1009a0004f0778004f06be004f05be004f04be0043
:1009b0004f00b10000000600e00f500008003200b8
:1009c00064005000f47f8000840f5000010031006b
:1009d000f07f8800204290000404a1002440980089
:1009e00000000600e68747008e1f780066875700e4
:1009f000d0bf9f00012f78000e0037005fbb97002b
:100a0000efba970016407800154278000201e9001d
:100a1000844f5000040032000080fb000482fb0081
:100a200004005000060037000603e800d6bf9f0010
:100a3000050fe800e00f5100f0ff3a0002007800d7
:100a40004f0778006f00b100000006000002780038
:100a500002003700315a78000201e900e00f51002e
:100a6000fcff3a0000000600000278000200370098
:100a7000015a78000201e900e00f5100fcff3a0042
:100a800000000600000278008042eb00b4cf1200a4
:100a9000fdff3a000080ea0000004200000006006e
:100aa0000b00370030427800e04f52000300320064
:100ab0000201e900b14f5200050032000480fb0042
:100ac000954278008582fb0005005000000006007a
:100ad00081027800e00f5100f2ff3a000200780036
:100ae000000006000002780006003700314378005d
:100af0000201e900065a780084027800e04f5300b2
:100b00000600320084027800e00f5100f7ff3a003f
:100b100002003700805aeb000201e900e00f5100ab
:080b2000fcff3a000000060092
:020000040000fa
:100b2800333100003100000001040000948500000a
:100b380000000000020400009c8500004232000012
:100b480031310000323100000000000005040000cf
:100b5800a2850000483100000000000006040000e3
:100b6800ae8500004200000008040000b6850000c1
:100b7800423100000000000009040000bc850000ac
:100b88000a040000bc85000042500000000000007c
:100b98000b040000c88500000c040000b6850000a6
:100ba80042310000500000000d040000d485000010
:100bb8000e040000b6850000480000001104000083
:100bc800e085000013040000ae8500001504000055
:100bd800e0850000423100003132000000000000d2
:100be80019040000ee8500001a040000b685000014
:100bf80048320000323200003200000003080000d2
:100c0800fc85000048310000313400003434000015
:100c180034000000070800000686000009080000ec
:100c2800e08500000b080000bc8500000c080000ef
:100c3800e085000048320000000000000d080000b8
:100c48001e8600003434000000000000010c000083
:100c580026860000030c00009c8500000d0c000097
:100c6800bc8500003142000050000000110c00005b
:100c780036860000120c0000bc8500004e00000003
:100c8800130c00004286000032000000180c00001f
:100c980048860000310000001a0c00004e86000053
:100ca800200c00004e86000033000000240c0000d9
:100cb80058860000290c00009c8500002a0c0000c2
:100cc8004e86000032310000323200000000000081
:100cd800330c000066860000360c0000e08500003a
:100ce800370c00001e860000450c00004e860000f0
:100cf8003145000000000000520c00007c86000016
:100d0800560c00004e8600006c0c00009c8500000c
:100d180031310000000000006d0c00008c860000de
:100d2800031000009c850000051000009c85000051
:100d3800091000009c85000001f400009c8500005b
:100d480002f400004e86000003f400004e86000006
:100d580004f400009c85000005f400009c85000058
:100d680006f400004e86000007f400004e860000de
:100d780008f400004e860000423200000000000027
:100d880020f40000c086000042320000320000005b
:100d980026f40000c8860000323100000000000080
:100da80021f40000d086000032320000000000006c
:100db80022f40000d886000023f4000048860000d2
:100dc80024f400004886000025f40000d0860000c6
:100dd8005300000030f40000ec86000034000000ee
:100de80031f40000f286000040f40000bc850000e9
:100df80042310000323100000000000047f40000da
:100e0800fc86000049f40000d086000041f4000090
:100e1800d0860000313200000000000042f40000db
:100e28000e870000313200003100000048f4000055
:100e38001687000043f400004886000044f40000d0
:100e48004886000045f40000d086000046f4000003
:100e58004286000025300000327800003a25000064
:100e680030320000783a0000253000003278000067
:100e78003a25000030320000783a000025300000a2
:100e8800327800003a250000303200007800000077
:100e980000910000e372000007960000e47500006e
:100ea8000e9f0000ed7c000009980000ea7b00001e
:100eb8001c8d0000ff6e00001b8a0000f86900000e
:100ec80012830000f160000015840000f66700003e
:100ed80038a90000db4a00003fae0000dc4d0000ee
:100ee80036a70000d544000031a00000d24300001e
:100ef80024b50000c756000023b20000c05100000e
:100f08002abb0000c95800002dbc0000ce5f0000bd
:100f180070e100009302000077e6000094050000ed
:100f28007eef00009d0c000079e800009a0b00009d
:100f38006cfd00008f1e00006bfa0000881900008d
:100f480062f300008110000065f4000086170000bd
:100f580048d90000ab3a00004fde0000ac3d00006d
:100f680046d70000a534000041d00000a23300009d
:100f780054c50000b726000053c20000b02100008d
:100f88005acb0000b92800005dcc0000be2f00003d
:100f9800e071000003920000e7760000049500006d
:100fa800ee7f00000d9c0000e97800000a9b00001d
:100fb800fc6d00001f8e0000fb6a0000188900000d
:100fc800f263000011800000f5640000168700003d
:100fd800d84900003baa0000df4e00003cad0000ed
:100fe800d647000035a40000d140000032a300001d
:100ff800c455000027b60000c352000020b100000d
:10100800ca5b000029b80000cd5c00002ebf0000bc
:101018009001000073e200009706000074e50000ec
:101028009e0f00007dec0000990800007aeb00009c
:101038008c1d00006ffe00008b1a000068f900008c
:101048008213000061f000008514000066f70000bc
:10105800a83900004bda0000af3e00004cdd00006c
:10106800a637000045d40000a130000042d300009c
:10107800b425000057c60000b322000050c100008c
:10108800ba2b000059c80000bd2c00005ecf00003c
:10109800202000002020000000740000797000006b
:1010a8006520000025350000732000002825000079
:1010b800752900002c200000656c0000656d00009b
:1010c800656e0000742000006c6500006e20000052
:1010d8002532000075200000000a0000002c0000e6
:1010e80020760000616c0000756500003a20000061
:1010f800006c0000656e00002025000075200000cf
:1011080028300000782500003032000078290000df
:101118000a0000002c200000766100006c750000b9
:10112800653a0000203000007825000030380000c3
:101138006c7800000a0000004e4900004c000000d6
:10114800554900004e540000004900004e5400006c
:1011580000550000554900004400000053540000a9
:10116800524900004e470000004200004f4f000067
:101178004c000000444500005300000044450000b6
:1011880041000000555200004c000000a0880000fb
:10119800a4880000a9880000ad880000b28800007b
:1011a800b9880000be880000c2880000c688000018
:1011b8000000000000000000000000001000000017
:1011c80080000000008000005f9b000034fb0000ee
:1011d8005342000044420000542d00002530000016
:1011e80032780000253000003278000025300000f9
:1011f80032780000253000003278000025300000e9
:1012080032780000253000003278000000300000fd
:101218003030000030000000535000005000000043
:101228008000000000400000404000004000000036
:1012380000000000000000000000000000000000a6
:1012480000020000ff2700001000000032ff00002d
:101258002710000000320000ff27000010000000e7
:1012680032ff0000271000000032000000000000dc
:101278000000000000000000000000000000000066
:101288000000000000000000000000000000000056
:101298004400000032320000003200003232000008
:1012a80032000000323200004400000032320000f8
:1012b8003244000000320000000000004c890000a9
:1012c8004e89000051890000568900005a890000a3
:1012d8004e8900004e8900004c8900004c890000ae
:1012e8005f890000568900000000000036000000f9
:1012f80053000000110000001b0000000000000067
:1013080000000000000000006f010000280200003b
:1013180079000000b7000000a7020000fd030000ec
:10132800e00000005301000025300000386c000088
:10133800582000000020000025300000325800002e
:101348000020000025300000345800000020000074
:1013580025300000384c000058000000427600009c
:10136800447600005e770000a67700008a770000c8
:10137800ea76000016770000ce7600004676000078
:101388003a830000b8830000b083000006830000a1
:10139800a88300004c830000268300005049000009
:0c13a8004355000053420000000000000c
:020000040000fa
:1013b400908180004600de006100600000000600ad
:1013c40004f02000c58080000502620010c3b30051
:1013d4001600320005f02000c48080008482620080
:1013e40004402000848f520008003a00040f2000bb
:1013f400c5808000050262000040e900f00f520041
:101404000a003a006a4040000800370005f0200056
:10141400c48080008482620020c3b3000450200092
:10142400848f520001003a0026d0bf00000006005d
:101434000042780060c0b300550221009542780054
:1014440084cf520007003a0004f02000c5808000d9
:101454000502620030c0b300020032000000eb005d
:10146400c0808800000006000042780060c0b3001d
:10147400550221009542780084cf520007003a00bb
:10148400c580800030c0b30004412000848f520026
:1014940002003a001830ec000040eb0000000600a7
:1014a4000042780060c0b3005502210095427800e4
:1014b40084cf520009003a00c580800030c0b300d8
:1014c40004402000848f520004003a009404a900d0
:1014d40070024200c48088000040eb000000060057
:1014e400d5808000150290000460a1009402980049
:1014f400d5808000150290000450a1009402980049
:10150400b450ed00b4f0b7000400320004ff2f0023
:1015140085012100950a62000b003700b550ed00eb
:10152400b5f0b7000300320004112000c480880025
:101534000500370075c0b30066022100054b780032
:1015440004502000c480880000000600ec87470097
:10155400889fbe008a9fbe008c9fbe008e1f7800ad
:1015640080457800014678008246780083bf9f005a
:101574009a808000a9e320000004eb009e0720006d
:101584004342dd0066024200a5e3200065027a00c2
:101594000402d10061426200e14f52003b003a0074
:1015a4004342dd006602420065027a004522de0005
:1015b4006142620002003a0099cf150033003a00fc
:1015c4004342dd0066024200a5e3200065027a0082
:1015d4004422de006142620003003a001942900096
:1015e4008c4f520029003a004342dd00660242005b
:1015f400a5e3200065027a004322de006142620016
:1016040003003a00294290008d4f52001f003a0017
:101614000a4a90000482fb009a4a9000c82add001e
:1016240084827200c5b79f00aa4a90008582fb009d
:101634003a4a90004822dd0004827200d4b79f0029
:10164400cbef9f00dcef9f00edef9f0084002000b4
:1016540005002000788157008e00780000c0eb0060
:10166400902d0700e00f500008003a004344dd00cd
:10167400e4e3200004024400144290008fba97006f
:10168400844a780010002000050037000804e800b0
:10169400e8844400ea0f5400b9ff3a000000eb006c
:1016a4004f0778004f06be004f05be004f04be0032
:1016b400cf00b100000006000800fa00889fbe00b9
:1016c4008a9fbe008c9fbe009980800032d0a90002
:1016d40032f0a900b8e320008805e8000005eb001b
:1016e4009d0720000c0420004352dd0066024200e6
:1016f400a5e3200065027a000402d1006142620081
:101704000c003200f8fa97004942900084cf52004e
:101714004f003a0059429000984f12004c003a0092
:10172400694290009b4f120049003a0032d0a80051
:101734004700370008027800094b90000683fb003d
:10174400994a9000c82add00850273000803e90065
:10175400968f12001e003a00294b90000683fb006e
:10176400b94a9000c82add00850273009b8f1200dd
:1017740017003a00c352dd00e6824200a6e32000cf
:10178400e6827a00c72ade00e1c26200e1cf52009d
:101794000e003a0032f0a800c842900080022100f6
:1017a40005487800c352dd00e6824200e6827a00f2
:1017b400c22ade00e1c2620005003200b843900094
:1017c40026022100074b78000100370032d0a80020
:1017d4008402e9000080eb00950f10001c003a0021
:1017e4009b0f10001a003a00094b90000683fb007f
:1017f400994b9000c83bdd0086837300e7b79f00d8
:10180400a94b90008783fb00394b90004833dd00df
:1018140006837300f6b79f0074fb970086f79f005a
:101824001442780094f79f009b427800a5f79f002c
:101834008400200005002000748157008d0078008a
:10184400182d0700e00f500001003a0032d0a80024
:10185400978180000702660014003200c352dd0045
:10186400a4e3200005034200d64390007002210047
:1018740007487800e682420064827a004222de0051
:1018840061426200100020000e0032004355dd006a
:1018940064054500a4e32000e4427d002002210009
:1018a4000548780010002000060037000a05e8000b
:1018b40068044400e8854500ea0f55008aff3a00b1
:1018c4000000eb004f06be004f05be004f04be00f3
:1018d4000080fa000000060000427800e04f520049
:1018e40002003a0080818000180037007681800071
:1018f4000000eb00800f530014003200a602900099
:10190400e08f52000d00320025009000e00f5000df
:101914000a003200a05a900084cf520004003a001a
:101924000a003700a05a900084cf5200070032000a
:1019340010007800e00f5000faff3a001603780018
:10194400e00f5300edff3a000000eb00000006003a
:10195400889fbe00820478000304780054022100aa
:1019640014427800804f52000600320064c0b30075
:10197400844c7800000ceb00381478001000200030
:101984002200370001407800d3ff0700e00f500029
:101994001b003200100290004922de006142620006
:1019a400900290000510b20005003200804ceb005c
:1019b400000b9000900b9000068cbe000e003700c8
:1019c400900290000502b2000300320015c1b3007a
:1019d400854c780008003700900290000504b2009e
:1019e4000300320040589000804c78000200370019
:1019f40095c1b300854c78000480fb0003003700d8
:101a040044c1b300844c7800100020004f04be0091
:101a1400000006005402210014427800804f520056
:101a24000a003a0001407800abff0700e00f5000c5
:101a340006003200100290000470a0001400980008
:101a4400100290000490a00014009800000006000a
:101a5400889fbe00820478000304780064c0b30049
:101a6400550221009542780080cf52000d003a00c3
:101a74000140780098ff070044c1b300e00f500014
:101a840008003200e18464004d4add0090049000b7
:101a940009d0a10089047200190098000810980068
:101aa4000042eb00044078004f04be000000060032
:101ab40064c0b300550221009542780080cf5200e3
:101ac4000c003a000140780083ff070044c1b300d2
:101ad400e00f500007003200100290000450a100f3
:101ae40014009800100290000460a10014009800f3
:101af4000042eb000440780000000600881f7800d4
:101b040080437800848180000783fb00d40a90001e
:101b1400c82ade00e3826200868f520006003a0083
:101b2400940290000520b20003003a00d48088009b
:101b340010002000530037001f70ef0075818000f3
:101b44000000eb00808f52004e0032002500900010
:101b54000002eb00840f50000100320020029000cc
:101b64000001eb000120200003002100e00f5200df
:101b740036003200540890004800de006300600024
:101b8400800f53002e003a00e2cf530019003200b8
:101b9400e3cf530008003200e0cf530028003a009e
:101ba400140090000100600025003a00d4808800f1
:101bb4001000200033003700140090000100600082
:101bc4000600320034009000e00f50001c003a0080
:101bd400240090003002980019003700340090006f
:101be400e00f500016003a00d48088001000200056
:101bf40024003700140090000100600010003a0037
:101c040014009000030060000d003a001f70ec0007
:101c1400f8012100184478001ed0bf00804f540002
:101c240007003600f501210095427800e601210005
:101c3400054b7800d4808800100020001100370084
:101c440014027800e00f520009003a00950278006f
:101c5400e08f52000a003200250090000202780052
:101c6400e00f5000c1ff320020029000bfff370098
:101c7400e08f5200bdff3a000000eb000100370086
:101c84000000eb004f04780000000600889fbe00af
:101c94008a9fbe007b818000e08f550027003200c0
:101ca4008004eb009b057800708180001002900096
:101cb400e00f52001d00320014057800748180008a
:101cc4001402900024009000e00f50000d00320038
:101cd4001004780037fb0700748180001402900020
:101ce4002902980074818000140290002802980050
:101cf400748180001402900024009000e00f5000d2
:101d0400f3ff3a00040078002afb07007481800086
:101d140019029800748180001a0298007081800072
:101d240010029000e00f5200e3ff3a0021fb07008d
:101d34007b818800e08f5500daff3a003010f8000c
:101d44001a10f9004f05be004f04be000000060043
:101d5400889fbe00648180008004eb00e00f520085
:101d640002003a000b0037000802780014049000c7
:101d7400140078000ffb070064818000090a7800d2
:101d8400608180000bfb070068818800e00f54002d
:101d9400f5ff3a0090808000e00f5000020032000e
:101da40004fb07001230ef00a0818000e00f500018
:101db40002003200fffa07003430ef00b3ff0700df
:101dc4004f04be000000060084818000e00f520032
:101dd40009003a002002200068fa07000002780097
:101de400848188000000eb00800f52001200320052
:101df400000aeb0001003700d5ff07003010f8009f
:101e04001a10f9000002eb00c480880014b0ef003f
:101e140045022100844a780055022100844a780052
:101e2400b610a800a5002000b5818800c5818800ef
:101e3400d481880010002000000006009002900069
:101e44000550a10015009800900290000560a100c3
:101e540015009800900290000570a10015009800ec
:101e6400900290000580a1001500980010039000d6
:101e740005fe2f0085026300150098009002900073
:101e840005c0a10015009800330898006033b8001d
:101e940006089800170898000500200054009800d0
:101ea400650098000002eb0074089800210898006f
:101eb4007200980004c2b300045898001002900005
:101ec4000490a10014009800000006009002900005
:101ed4000550a10015009800900290000560a10033
:101ee40015009800900290000570a100150098005c
:101ef400900290000580a100150098001003900046
:101f040005fe2f00850263001500980090029000e2
:101f140005c0a10015009800330898006033b8008c
:101f240006089800170898006123b8005600980026
:101f3400670098008002eb0075089800210898005b
:101f440072009800850f520003003a0004c1b300e8
:101f5400045898000200370004c3b30004589800e2
:101f6400100290000490a1001400980000000600e4
:101f7400100290000470a100140098001002900058
:101f84000480a100140098009002900004fe2f0029
:101f940004826200140098001002900004c0a100a2
:101fa40014009800310898006022b80004089800d2
:101fb4001508980003002000520098006300980060
:101fc4000002eb0074089800d00a9000043020004e
:101fd40084826200848f520003003a0004c4b30078
:101fe400045898000a00370004102000848f52001f
:101ff40005003a0004c6b300045898000042eb0000
:10200400944098000200370004c8b30004589800b4
:10201400100290000490a100140098000000060033
:10202400889fbe008a1f7800020578000404be0061
:1020340065c0b3005402210014427800804f52005e
:1020440026003a0006f02000c480800004036300e8
:1020540015c0b30004402000840f53001f003a0051
:10206400014078001cfe07000002780045c1b3005f
:10207400e00f520019003200540b90000630b200f9
:1020840085c1b30015003200245b900055c1b30034
:10209400e04f530011003d00140390000602b2000b
:1020a40015c1b3000d003a00140390000604b200f9
:1020b40025c1b30009003a00140390000620b200c1
:1020c40005c1b30005003200080178008a007800d9
:1020d40004007800a6ff07008042eb00054078006a
:1020e4004f0578004f04be00000006001002900067
:1020f4000470a10014009800100290000480a10054
:10210400140098009002900004fe2f0004826200e4
:10211400140098001002900004c0a100140098005c
:10212400310898006022b800040898001508980047
:102134000300200052009800630098000002eb00a6
:1021440074089800d00a9000043020008482620051
:10215400848f520003003a0004c5b3000458980069
:102164000a00370004102000848f520005003a0052
:1021740004c7b300045898000042eb009440980050
:102184000200370004c9b3000458980010029000fc
:102194000490a1001400980000000600889fbe006f
:1021a4008a1f7800020578000404be0065c0b300ed
:1021b4005402210014427800804f520026003a0055
:1021c40006f02000c48080000403630015c0b3003f
:1021d40004402000840f53001f003a00014078009f
:1021e400bdfd07000002780045c1b300e00f5200b6
:1021f40019003200540b90000630b20085c1b300c0
:1022040015003200245b900055c1b300e04f530029
:1022140011003500140390000602b20015c1b3008a
:102224000d003a00140390000604b20025c1b30067
:1022340009003a00140390000620b20005c1b3005f
:1022440005003200080178008a0078000400780054
:10225400a6ff07008042eb00054078004f05780098
:102264004f04be0000000600889fbe008a9fbe0087
:102274008c9fbe008e1f7800804578008104780012
:10228400020578000307780024072000848f540097
:1022940003003200f4ff2700848f54000e003a003c
:1022a4001a4a9000e14f42002d0032000482fb00e4
:1022b4004322dd000482e800a5de200065037a00e5
:1022c4006172b8000a017800890078000b40780038
:1022d400060001002200370078818000e00f5400de
:1022e4000f0032006176b800784290000482fb004f
:1022f4004322dd000482e800a5de200065037a00a5
:102304000c02be000a017800890078000b407800b6
:102314000600010018047800e00f5400f2ff3a00b0
:102324000408200095818000050262000c00320040
:1023340084022100144278000482fb004322dd0061
:102344000482e800a5de200065037a006172b8000b
:102354000a017800890078000b407800060001002b
:102364004f0778004f06be004f05be004f04be0065
:10237400000006000200fa008824ef0025d0bf0008
:102384000c0032000042eb00e4ff9f002400200018
:10239400050020000f81e900a1062000412a070062
:1023a40013002000520221001107200025d0bf0095
:1023b400adff07006000b80083fe07000080fa004c
:1023c4000000060034c0b300e1cf40000f003a0023
:1023d400e04f51000d003a0084062000840f5000a5
:1023e40004003a00e3ff0700b610a9000042eb0026
:1023f4000600370034c0b300b5062000850f500036
:1024040002003a00b610a8000042eb000440780035
:1024140000000600f0874700889fbe008a9fbe0028
:102424008c9fbe008e1f7800798180003230a90015
:102434003250a80084808000b44578000402e8008b
:1024440034447800344578000402e80034407800cd
:1024540080ef9f002442900094ef9f00e4e79f00e8
:102464007c8157000069eb00240020000500200057
:102474009106200000c0eb000a2a0700e00f50007c
:1024840005003a0085c2b300610221008548780046
:1024940015002000d90037000884fb004856dd00f1
:1024a400080646000b85fb00808080008002eb005c
:1024b4008a0f5600d10036000a0040008046eb0027
:1024c4008005780089bf9f000b007800b045780034
:1024d40030427800e94f52000c003a003230a80034
:1024e4001042780036022100044b78006202620038
:1024f400040032003270ab00020032003250a900f6
:10250400040037003270a90002003700e44f520083
:10251400060032008b85fb000b0545000a0078009d
:102524001010b40080057800ab00370090447800a8
:1025340000027800d4407800a1ef9f00544778004f
:1025440054407800d440780054417800f4b79f0098
:102554000504200096818000068262000400320097
:102564007702210097437800c7e79f000a003700ed
:10257400fc815700f5fb0700e00f500006003a000d
:102584008b85fb000b0545000a0078001010b40091
:1025940080057800900037008fb89700e08f5000d6
:1025a4000b00320061429000894f5200c200320099
:1025b4000104780018047800e00f5400040032008d
:1025c40068429000894f5200faff3a000e0037002b
:1025d4008000200069f8070000047800e00f540030
:1025e4000e003200694498004fe29700744498004a
:1025f4000002eb0014049800240498008fba97009a
:10260400050c780088bf9f00600020005bf807007d
:10261400e0b79f00e00f5000a9003a00ffb3970015
:102624008705e80015002000670037006fb09700a9
:10263400200498008b85fb000b05450089808000f1
:102644008a8544008a0f56005b003600e04f57002d
:10265400a60032008046eb001b44780051c0b30052
:10266400dbcf1000040032000884fb00080545009d
:102674008a8544004a003700200220003ff8070002
:10268400000278008402780005f0a7008502ea00c1
:102694008502e900cf2ade005b437800265a9800c1
:1026a4000b037800d6437800375a980056407800d8
:1026b4008083fb0047029800d64078000180fb002d
:1026c4004800dd00870340004702980096439000cd
:1026d4008783fb00270298000003eb001602980092
:1026e4001400900000a0a0001002980014009000b4
:1026f4000090a000100298006000b800000a980042
:10270400110a9800065a98004fe39700165a980049
:10271400540b9000003020000003630001102000df
:10272400810f530011003a00e08f530003003a0078
:10273400160020002602980004003700f08f530092
:1027440002003600060120002602980024039000af
:102754000603e90017002000063bdd00260298006e
:102764001403900006a0a100160298002403900010
:1027740036029800efb39700a7039000070a780089
:102784006fb09700240098008d46e8000884fb0091
:10279400080545008a854400e08f52000a003a008b
:1027a4008a0f5600070036008d4f5700aaff3e00df
:1027b4008002eb00040037008046eb008002eb004f
:1027c400010037008002eb008ecf560007003a006c
:1027d400e08f520008003a008a0f56003aff3e008c
:1027e4008fbc97008002eb00040037008fbc970079
:1027f40015002000010037008fbc97000000eb009b
:10280400808f540026003200808f52001c0032005a
:10281400010037008a047800190578001904900033
:10282400e00f5400100032009800780091049800e2
:1028340028009000e00f50000600320010027800db
:10284400240498005bf8070028009000e00f500073
:10285400faff3a000800780056f8070019049000bf
:10286400e00f5400f0ff3a000900780051f8070027
:10287400e00f5500e7ff3a000000eb0008003700c6
:102884000feb970025022100864a78001feb970082
:102894000682fb00548188007981880010002000a2
:1028a4004f0778004f06be004f05be004f04be0020
:1028b4000f01b100000006000fbc970052ff370063
:1028c40018009000efb39700800b7800afe89700f2
:1028d400a14398000002eb00a40398001704980099
:1028e400e0cf500051ff320052ff37008046eb002a
:1028f400b9ff37000200fa00889fbe008a9fbe001d
:10290400d4818000e00f520023003200c80321006c
:10291400f9ff2700c481800008017800e80f520005
:1029240004003c000401e8006c11b900c503210057
:10293400050141009200780024072000848f500094
:1029440002003200898f500004003a000281e8003e
:10295400a300200025d0bf0043fe070066248000aa
:102964008c24ef00d48180000402e900d481880023
:10297400c5818000e88f520003003c008502e80016
:10298400c5818800010037003830ef0066248800d4
:10299400e00f5200dfff3a00a4808000e10f420004
:1029a400030032001410f8001810f90014b0ef00fe
:1029b40004f02000c580800005026200052020008c
:1029c400850f5200c001320006003e00e00f5200a5
:1029d4000e00320005102000850f520051043a0009
:1029e4009600370005402000850f5200c3033200d3
:1029f4000510b000850f5200e103320005302000bd
:102a0400850f520047043a00ef013700040f2000fd
:102a1400c680800006026200f00f520056003200a9
:102a240005022000850f52005d003200e00f5200c5
:102a34003c043a004ffe07000002eb008581800051
:102a4400840a780085818000940298008681800041
:102a54009602900005a0a0001503980086818000ce
:102a6400960290000590a0001503980086818000ce
:102a74009602900005d0a00015039800858180007f
:102a8400860c20008612980006042000c6029800d6
:102a94006033b80085818000860a9800970a980000
:102aa40085818000a45a9800845a9800550b9000a0
:102ab4000680a1000690a100d60a980000c3eb008e
:102ac400965a980046c6b300570b2100864b7800ef
:102ad40027022100844b780036022100044b780041
:102ae40045022100844a780094818800748188001a
:102af400e480880064248800f50f200055248800b1
:102b0400c608200027482000970b63006f0353007a
:102b14000624880084248800752488000500210088
:102b2400c82ade00c524880085002000a52488006a
:102b3400a6002000a6248800a52488000503200000
:102b44003524880025002000352588004425880088
:102b5400b4248800aae4a900a40420000425880061
:102b640004ff2000c580800005026200700242005c
:102b7400c4808800eb033700640b21001442780002
:102b840061426200e703320004ff2000c680800037
:102b94000602620070024200c4808800e10337002c
:102ba4008043eb00e7f79f0024c3b300f4f79f00d2
:102bb40024002000050020006a81570091062000af
:102bc40000c0eb0037280700e00f50001700320068
:102bd40014002000442488008ec0a900f40f2f00a4
:102be400e50c2000950a6200750680000460200050
:102bf4000502720074068800f504800004042000b5
:102c040085027200f504880005ff2000c68080005c
:102c140086826200f0824200c58088008cc4a800cd
:102c24000424880082c4a800be033700b610a9009b
:102c340004012000c4808800ba033700040f200078
:102c4400c78080000702620005022000850f520041
:102c54008000320005003e00e00f52000a003200fe
:102c6400f00f5200af033a001d00370005032000a7
:102c7400850f5200d8003200f0824200850f5200c6
:102c8400a8033a0009013700c48080006f02620083
:102c940003003200e20f5200a2033a000a00370098
:102ca40014002000542488008c04a800b40f2000d1
:102cb400b4808800040420000424880082c4a8008e
:102cc4001830ec009703370004ff2000c580800013
:102cd4000502620070024200c4808800910337003c
:102ce400c48080006f026200e20f5200460032008e
:102cf400e40f52004d003200e00f520089033a0005
:102d0400a0818000e00f50000100320029f7070085
:102d14008000200099f60700a0818800e00f500091
:102d240006003a0037c3b30066022100074b78005f
:102d340004502000c48088007a0337000042eb006e
:102d440025022100844a7800844278003702210059
:102d5400854b78000002eb009481880037c0b300f3
:102d6400460b2100074b7800d5002000552588002c
:102d740064258800742588008425880094258800ab
:102d8400a4258800b4258800c4258800d42588009b
:102d9400e4258800f4258800042688001426880089
:102da400242688003426880044268800040820004d
:102db400a52480000502620007003a003210a80032
:102dc40007c8b30046022100074b7800040820001e
:102dd400b4248800aae4a8009424a8009424a90098
:102de4003290a90032b0a9009484a80034032000d2
:102df400b48088006d0242000424880082c4a800c4
:102e04001830ec00470337009484a9009404a80008
:102e1400b4002000b4808800040420000424880046
:102e240082c4a8001830ec003e033700f4002000f0
:102e340064248800f40f20008424880004ff200008
:102e4400c58080000502620070024200c4808800d0
:102e540034033700c48080006f026200e10f520027
:102e64001e00320003003900e20f52002d033a0025
:102e74002f00370090808000e00f500002003200e5
:102e8400ccf607001230ef00a181800004c8b30023
:102e94008448780064c0b300944098000042eb007a
:102ea400a440980015c0b300b5409800c4409800f1
:102eb400d440980085c0b300e5409800f4409800e1
:102ec4008400200081017800040178008081800062
:102ed400dafb07001830ec0012033700848180000d
:102ee400940290000520b2000e03320014029000f8
:102ef4000410b2000c003200a4818000444290000f
:102f0400e94f520006003a0057c3b300660221009d
:102f1400074b780004502000c48088000103370068
:102f24001830ec00ff0237006df90700fd0237008e
:102f3400a8818000184278000480fb000ff6070087
:102f44000002780094808800e00f520006003a00e6
:102f540036c3b30065022100864a7800045020007d
:102f6400c4808800ef023700184a7800f8429000c5
:102f74008582fb0084818000450298000800780067
:102f84008cf607008481800044009000fbf5070064
:102f9400a0818800e00f500006003a0035c3b3005a
:102fa40067022100854b780004502000c48088000b
:102fb400dc02370037c0b300460b2100074b780012
:102fc40004ff2000c58080000502620070024200f8
:102fd400c4808800d3023700c48080006f0262007e
:102fe400e10f52001d00320003003900e20f5200cd
:102ff400cc023a00240037001c90ab00c9023a000e
:10300400a181800004c8b3008448780064c0b30080
:10301400944098000042eb00a440980015c0b3000f
:10302400b5409800c4409800d44098009580800032
:1030340095427800e5409800f44098009380800021
:10304400134378000682fb00820020008081800008
:103054007afb07001830ec00b2023700848180004c
:10306400940290000520b200ae02320014029000d7
:103074000410b200020032001830ec00a90237003c
:1030840017f90700a702370035c0b300470b21002a
:10309400854b780004ff2000c68080000602620091
:1030a40070024200c48088009e02370082f9070043
:1030b40004f02000c7808000070262000410b00002
:1030c400c480880097023700040f2000c580800068
:1030d4000502620093023a00c48080006f0262001d
:1030e400e10f52001b00320003003900e20f5200ce
:1030f4008c023a002200370017c0b30056022100a8
:10310400074b7800a18180000042eb0084487800de
:1031140055c0b300954098005502210095427800af
:10312400a5409800b4409800c4409800d44098004a
:10313400e4409800f44098000002eb008401780019
:10314400820020008081800060fb07001830ec00c2
:103154007402370084818000940290000520b2003c
:1031640070023200140290000410b2000200320017
:103174001830ec006b023700d9f8070069023700f9
:1031840094818000610262004722dd005502210023
:103194009542780004c272008443780046022100fc
:1031a400074b780036c0b300450b2100864a7800ef
:1031b40004f02000c7808000070262000410b00001
:1031c400c480880057023700040f2000c5808000a7
:1031d4000502620005022000850f520089003200ba
:1031e40005003e00e00f52000a003200f00f5200ca
:1031f4004c023a002100370005032000850f5200dd
:10320400c1003200f0824200850f520045023a00ac
:10321400410137009480800094539000760b210084
:10322400074b7800648180008004eb00e00f5200bb
:1032340002003a000b0037000802780014049000e2
:1032440014007800dbf5070064818000090a780027
:1032540060818000d7f5070068818800e00f540082
:10326400f5ff3a0004ff2000c580800005026200db
:1032740070024200c48088002a023700c4808000a3
:103284006f026200e10f520019003200030039009e
:10329400e20f520023023a0020003700a18180008f
:1032a40004c8b3008448780064c0b3009440980014
:1032b4000042eb00a440980025c0b300b54098003c
:1032c400c4409800d440980085c0b300e5409800fd
:1032d400f440980084002000810178000401780003
:1032e40080818000d5fa07001830ec000d02370009
:1032f40084818000940290000520b200090232000b
:10330400140290000410b200020032001830ec00e5
:103314000402370072f80700020237006000200040
:1033240016f5070000047800e00f540006003a0088
:1033340037c3b30066022100074b78000450200015
:10334400c4808800f7013700ab81800063854500a5
:103354008b85e8001a4278000480fb004800dd00f9
:103364009b4278000582fb000400400003f507003f
:1033740000027800040c7800e00f520008003a00c4
:10338400080078008bf5070037c3b30066022100fc
:10339400074b780004502000c4808800e101370006
:1033a4001a4578000a83fb004833dd009b4578000a
:1033b4008b82fb008502430025429800c82ade0068
:1033c4003542980065818000150498006881880062
:1033d40084808800760b21001643780046449800c8
:1033e40035c0b300470b2100854b780004ff200053
:1033f400c68080000602620070024200c480880019
:10340400c8013700c48080006f026200e10f5200df
:103414002300320003003900e20f5200c1013a00d8
:103424002a003700a181800004c8b30084487800d2
:1034340064c0b300944098000042eb00a44098009c
:1034440025c0b300b5409800c4409800d44098000b
:10345400648180001402780024429000e4409800c3
:10346400648180001402780034429000f440980093
:103474006481800094017800234290000482fb0060
:10348400b3429000c82add000502720082002000c9
:103494008081800069fa07001830ec00a101370030
:1034a40084818000940290000520b2009d013200c6
:1034b400140290000410b200020032001830ec0034
:1034c4009801370006f807009601370035c0b300ad
:1034d400470b2100854b7800b750ed00b7f0b700db
:1034e4000300320004312000c48088008d013700bd
:1034f40004ff2000c68080000602620070024200c1
:10350400c480880087013700c48080006f02620095
:1035140005002000e30f5200e08f5a0081013e00b5
:1035240004600100030037003d0037005d003700f0
:1035340067003700d5f9070025022100954278007d
:10354400e0cf520010003a0064818000c4858800f6
:10355400e00f5200230032001402780084808800b7
:10356400acfb0700e00f50001e003a00c7f907004b
:10357400c485800014029000c4858800e00f5200c6
:10358400f5ff3a001700370064818000c485880085
:10359400e00f52000c0032004443900086cf5200ea
:1035a4000900320014029000e00f520002003a00b9
:1035b400c4858800040037004443900086cf52003d
:1035c400f8ff3a00c48588001402780084808800db
:1035d40090fb0700e00f500002003a00abf907002f
:1035e400b830ef003250ab000b003200c4858000cd
:1035f400e00f520006003a0045c3b3006702210001
:10360400854b780004502000c480880045013700b1
:103614001830ec00430137001830ec00410137004a
:103624003250ab0019003a003250a800a18180004a
:103634008048eb0034c0b300944098003270ab0073
:103644000300320034c0b300a440980002003700e5
:1036540044c0b300a44098000042eb00b44098007a
:10366400c4409800d4409800e4409800f440980086
:103674000002eb0084017800820020008081800039
:1036840012fa07001830ec002601370004ff20006e
:10369400c68080000602620070024200c480880076
:1036a4002001370084818000940290000520b2003c
:1036b4001c013200140290000410b2000200320017
:1036c4001830ec001701370085f7070015013700a3
:1036d40035c0b300470b2100854b7800c4858000ba
:1036e400e00f520006003a0047c3b300660221000f
:1036f400074b780004502000c4808800090137007b
:1037040004ff2000c58080000502620070024200b0
:10371400c480880003013700c48080006f02620007
:1037240005002000e30f5200e08f5a00fd003e0028
:103734000460010003003700160037002000370042
:1037440024003700a18180000042eb008448780007
:1037540095c0b300954098002602210016437800d6
:10376400a6409800b4409800c4409800d440980003
:10377400e4409800f44098000002eb0084017800d3
:103784008200200080818000d0f907001830ec000e
:10379400e400370084818000940290000520b20088
:1037a400e0003200140290000410b2000200320063
:1037b4001830ec00db00370049f70700d900370068
:1037c40035c0b300470b2100854b78001830ec005e
:1037d400d400370004f02000c68080000602620096
:1037e4000410b000c4808800040420009781800085
:1037f4000702620013003200710221009140780038
:103804000182fb004322dd00a6de20008402430087
:1038140066027a0025019000b501900025d0bf0012
:1038240004000100e00f50001d003a0096c3b300ed
:1038340065022100864a780004502000c480880074
:103844001700370078818000e00f54001400320024
:1038540099c3b3000a502000f84090000182fb0095
:103864004322dd00a6de20008402430066027a00c3
:1038740025019000b501900025d0bf00040001008f
:10388400e00f500003003a0067022100894b7800e2
:10389400ca80880018047800e00f5400eeff3a0054
:1038a4000408200095818000050262009d0032001a
:1038b40081022100914078000182fb004322dd0057
:1038c400a6de20008402430066027a0025019000ef
:1038d400b501900025d0bf0004000100e00f5000a6
:1038e40090003a0097c3b30066022100074b7800aa
:1038f40004502000c48088008a003700040f200090
:10390400c580800005026200f00f520085003a0075
:10391400c48080006f026200e30f52000c0032008a
:10392400e50f520013003200e10f52007d003a000f
:103934009444a80054012000b480880004042000aa
:103944000424880082c4a8001830ec0075003700f5
:103954009444a9009404a800b4002000b480880012
:10396400040420000424880082c4a8001830ec0059
:103974006c00370004402000c480880069003700d0
:10398400040f2000c68080000602620065003a0031
:1039940084002000a42488008002eb0065248800b1
:1039a400f40f200054248800c60820002748200073
:1039b400970b63006f035300062488008524880056
:1039c400742488008c04a8000404200004248800c3
:1039d40082c4a80064022100144278000482fb001f
:1039e4000500200067025200e0825a0026032000ee
:1039f400860f5200e08f5a003c003e000460010034
:103a040034003700390037003800370037003700fa
:103a140036003700350037003400370033003700f4
:103a24003200370031003700300037002f003700f4
:103a34002e0037002d0037002c0037002b003700f4
:103a44002a003700290037002800370027003700f4
:103a540026003700250037002400370023003700f4
:103a64002200370021003700200037001f003700f4
:103a74001e0037001d0037001c0037001b003700f4
:103a84001a003700190037001800370017003700f4
:103a940016003700150037001400370013003700f4
:103aa4001200370011003700100037000f003700f4
:103ab4000c0037000f003700040037000b003700fc
:103ac4000a003700090037000400370051c6b3006c
:103ad40009003700d1c6b30007003700e1c6b300c0
:103ae40005003700f1c6b3000300370001c7b30077
:103af40001003700c1c6b3008180fb001400200020
:103b040005002000a202210025d0bf006524070083
:103b140004ff2000c7808000070262007002420098
:103b2400c48088004f05be004f04be000080fa0028
:103b340000000600e04f500016003a007781800034
:103b4400e08f53001900320017039000e00f530078
:103b54000c00320026029000e00f520006003200f2
:103b64009402900005b0a100150298001402780098
:103b7400e00f5200faff3a0016037800e00f5300fa
:103b8400f4ff3a0097037800e08f5300eeff3a0009
:103b94000600370050f70700e00f50000300320022
:103ba4001002900004b0a100140098000000060068
:103bb4008f87e800889fbe008a9fbe008c9fbe004e
:103bc4008e1f7800814678000246780083047800ce
:103bd4000404780005057800860578000747780016
:103be40064c0b300550221009542780080cf520092
:103bf40068003a0006f02000c480800004036300db
:103c040014c0b30005402000850f530061003a0042
:103c140084818000940290000520b20004c1b300a6
:103c24005c003200eb4f560030003a007581800092
:103c340034c0b300e08f5200560032006542900059
:103c44000482fb00880f520059003200950278006c
:103c5400e08f52004a003200654290000482fb006b
:103c6400880f5200f9ff3a005100370026039000f4
:103c7400e00f53000d003200960390000720b200bd
:103c840034c0b30005003a00420037001602900029
:103c94000702620002003a003b00370007202000c0
:103ca40016037800e00f5300f8ff3a001503900064
:103cb40034c0b300e00f53003600320026429000b7
:103cc4000482fb00890f52003e0032001603780084
:103cd400e00f53002e003200264290000482fb00c5
:103ce400890f5200f9ff3a0036003700e14f5600c1
:103cf40006003a00e08f540004003a00e2cf560078
:103d040002003e00084078008aff0700a18180007d
:103d14008d4878009c409800a9409800c84cde006b
:103d2400b9409800c84098004844de00d840980044
:103d3400ea4098004852de00f440980080818000f8
:103d44002fea970014589800e04f570006003a00f5
:103d54000a0278008b017800820020005bf80700db
:103d64000042eb000b0037000a0278008b01780058
:103d74008200200031f807000042eb000500370004
:103d840034c0b3000300370034c0b300010037006f
:103d940034c0b300044078004f0778004f06be00db
:103da4004f05be004f04be002f00b1000000060006
:103db4002503900034c0b300e00f5300abff3a007a
:103dc400f4ff3700a6029800d0ff370095818000e9
:103dd400e1826200d4cdb30001003a00d4c5b3003f
:103de400d5808000550b90000630b20001003a00e7
:103df4000444a100550b90000630b20005102000c9
:103e0400850f530001003a000404a1000482fb0062
:103e14005425880044022100144278000482fb00e7
:103e2400b42488008180fb00c408dd00f007b200e0
:103e340001007000f02488001c90a8000000060017
:103e4400889fbe00e94f500010003a009581800021
:103e5400f08262004400210001003a0004002100c5
:103e640095818000c42ade008582ea00e182620036
:103e7400c42add00f6fe2f0097818000070363004b
:103e84000683720096818800250037000502200011
:103e94009481800084826200c400210001003a0001
:103ea4006402520095818000c52ade008582ea0002
:103eb400e1826200c52add00f6fd2f0097818000b3
:103ec400070363000683720096818800ed4f50005b
:103ed40013003a00d680800076019000060c900012
:103ee400960c900046009000030020000801510049
:103ef4008981590001002000800f5100818f5900f1
:103f040002003600c603900020003700f60390003c
:103f14000608900096089000808353001b00370029
:103f2400d5808000d50b90000730b2000610200029
:103f3400868f530002003a00c50390003e0037000c
:103f440055019000e5019000050890009508900047
:103f540045039000000051008180590007002000b3
:103f6400860f5000878f580002003600c50390006a
:103f74003100370055009000e5009000050b9000db
:103f8400950b9000860350002b003700260b900001
:103f9400160298000e003700350b9000b50a900009
:103fa400154090000080fb000000e8006600b900a6
:103fb400660378001602980005003700350b900060
:103fc40005089000950890008002430015029800af
:103fd4000043eb001642980087027800f53fb200d8
:103fe40006c02f001403630086827200050a78005d
:103ff400d680800096039000cb3bde00e183630013
:10400400ce3bdd0005e0a10085827300050a78003f
:10401400160390004a33de00610363004b33dd0076
:1040240005b0a1008502730005f0a000050a780020
:104034004f04be0000000600550890000030b20096
:1040440006102000860f5000dcff3a00d2ff370034
:10405400889fbe008a9fbe008c9fbe00c4808000e3
:104064001c90ab0001043a00e4808000610262000d
:104074000004eb00880f5200e9013a000040eb0015
:104084009ef60700880f5000e4013200d4808000bf
:10409400845a9000050fb20006022000868f520059
:1040a4009b00320070034300868f520036013200b9
:1040b400f08f5200d2013a00045b90006f0363005a
:1040c400cfb3de00066001000f003700190037008f
:1040d40028003700ca013700c9013700c80137007a
:1040e400c7013700c6013700c5013700c4013700d6
:1040f400c3013700c2013700c1013700c0013700d6
:10410400bf0137004f0037009402900005b0a100b2
:1041140015029800d0c0b30049ff0700d480800086
:1041240024589000d1c0b30028ff07001c10a80039
:10413400ce033700040890009408900050029800c1
:1041440061029800d58080001502900004b0a000a0
:104154009402980090c0b30039ff0700d480800017
:104164002458900091c0b30018ff07001c10a80049
:10417400be0337008042eb00055a9800d5808000ca
:10418400150290000490a00094029800d48180004d
:10419400e90f520027003c000402e800d4818800a3
:1041a400b4818000e80f520003003c000402e800e0
:1041b400b4818800010037003630ef00b6818000fa
:1041c4006c32b9008402780027072000c403210060
:1041d40007b27a00d4808000e7032100858343007e
:1041e4000408900094089000808bbe000603e80049
:1041f4006c33b90060032100b408900001307b00e7
:104204006e034000050343008043eb00174398000e
:10421400a45b9000074b78007003400085024300c4
:1042240034589000804a7800145a900094429800c0
:104234008c03370085c0b300d4808000355a9800c1
:10424400880337008042eb00055a9800d58080002f
:10425400150290000490a00094029800d48180007c
:10426400e90f520026003c000402e800d4818800d3
:10427400b4818000e80f520003003c000402e8000f
:10428400b4818800010037003630ef00b48180002b
:104294006c23b90086027800f7ff2700c6032100cb
:1042a40007b37a000683e80005034300000beb0024
:1042b400361378000402e8006c23b900640321007b
:1042c40006024200000aeb00d4808000460421006c
:1042d40005034300c458900011439800a45b900068
:1042e400074b78006604210085024300345890008f
:1042f400804a7800145a9000944298005903370079
:1043040085c0b300d4808000355a98005503370027
:10431400045b90006f036300cfb3de00066001000e
:104324000f00370019003700200037002f00370036
:1043340033013700320137003101370030013700d3
:104344002f0137002e0137002d0137002c013700d3
:104354002b0137002a0137002901370057003700a5
:104364009402900005b0a10015029800d0c0b300db
:10437400b3fe0700d480800024589000d1c0b3005d
:1043840092fe07001c10a8003803370090c0b30049
:10439400abfe0700d48080002458900091c0b30085
:1043a4008afe07001c10a80030033700040b90009d
:1043b400940b90005602980067029800d580800004
:1043c4001502900004b0a0009402980010c0b3003d
:1043d4009bfe0700d48080002458900011c0b300d5
:1043e4007afe07001c10a800200337008042eb006f
:1043f400055a9800d5808000150290000490a00012
:1044040094029800d4818000e90f520027003c00f8
:104414000402e800d4818800b4818000e80f5200cf
:1044240003003c000402e800b48188000100370066
:104434003630ef00b68180006c32b9008402780017
:1044440027072000c403210007b27a00d48080002b
:10445400e70321008583430004089000940890003a
:10446400808bbe000603e8006c33b90060032100b2
:10447400b408900001307b006e0340000503430044
:104484008043eb0017439800a45b9000074b78002f
:10449400700340008502430034589000804a78003d
:1044a400145a900094429800ee02370085c0b3007d
:1044b400d4808000355a9800ea0237008042eb002d
:1044c400055a9800d5808000150290000490a00041
:1044d40094029800d4818000e90f520026003c0029
:1044e4000402e800d4818800b4818000e80f5200ff
:1044f40003003c000402e800b48188000100370096
:104504003630ef00b48180006c23b9008602780055
:10451400f7ff2700c603210007b37a000683e800eb
:1045240005034300000beb00361378000402e80097
:104534006c23b9006403210006024200000aeb0068
:10454400d48080004604210005034300c458900031
:1045540011439800a45b9000074b78006604210087
:104564008502430034589000804a7800145a900021
:1045740094429800bb02370085c0b300d480800009
:10458400355a9800b7023700045b90006f0363004c
:10459400cfb3de00066001000f00370019003700ba
:1045a400200037002f0037009500370094003700b3
:1045b40093003700920037009100370090003700d5
:1045c4008f0037008e0037008d0037008c003700d5
:1045d4008b003700570037009402900005b0a1000b
:1045e40015029800d0c0b30015fe0700d4808000e7
:1045f40024589000d1c0b300f4fd07001c10a8009b
:104604009a02370010c0b3000dfe0700d48080006a
:104614002458900011c0b300ecfd07001c10a80042
:1046240092023700040b9000940b900056029800fd
:1046340067029800d58080001502900004b0a000a5
:104644009402980090c0b300fdfd0700d480800060
:104654002458900091c0b300dcfd07001c10a80092
:10466400820237008042eb00055a9800d580800012
:10467400150290000490a00094029800d481800058
:10468400e90f520027003c000402e800d4818800ae
:10469400b4818000e80f520003003c000402e800eb
:1046a400b4818800010037003630ef00b681800005
:1046b4006c32b9008402780027072000c40321006b
:1046c40007b27a00d4808000e70321008583430089
:1046d4000408900094089000808bbe000603e80054
:1046e4006c33b90060032100b408900001307b00f2
:1046f4006e034000050343008043eb00174398001a
:10470400a45b9000074b78007003400085024300cf
:1047140034589000804a7800145a900094429800cb
:104724005002370085c0b300d4808000355a980009
:104734004c0237008042eb00055a9800d580800077
:10474400150290000490a00094029800d481800087
:10475400e90f520026003c000402e800d4818800de
:10476400b4818000e80f520003003c000402e8001a
:10477400b4818800010037003630ef00b481800036
:104784006c23b90086027800f7ff2700c6032100d6
:1047940007b37a000683e80005034300000beb002f
:1047a400361378000402e8006c23b9006403210086
:1047b40006024200000aeb00d48080004604210077
:1047c40005034300c458900011439800a45b900073
:1047d400074b78006604210085024300345890009a
:1047e400804a7800145a9000944298001d023700c1
:1047f40085c0b300d4808000355a98001902370070
:104804008042eb00055a9800d58080001502900084
:104814000490a00094029800180020001c10a80026
:104824001c30ab00fe00320007013700d48080004a
:10483400845a9000050fb20006042000868f5200af
:104844000400320070034300868f5200e3003a00f4
:1048540071003700845a9000ef826200e18f5200a9
:104864000b003200ef8f52003b003200e08f520009
:10487400dc003a0090c0b30071fd0700d4808000d2
:104884002458900091c0b30050fd0700f701370091
:104894008042eb00055a9800d4808000a400900068
:1048a40031029800940290000590a000150298002f
:1048b400d4818000e90f520023003c000402e80088
:1048c400d4818800b4818000e80f520003003c00ca
:1048d4000402e800b4818800010037003630ef009c
:1048e400b68180006c32b90084027800240720006d
:1048f40084b47a00d48080008503450004089000c5
:1049040094089000808bbe000603e8006c33b90065
:1049140060032100b408900001307b00058345004a
:104924008043eb0017439800a45b9000074b78008a
:104934008502460034589000804a7800145a90004a
:1049440094429800aa00370085c0b300d480800048
:10495400355a9800a60037008042eb00055a9800ab
:10496400d4808000a400900031029800940290004a
:104974000590a00015029800d4818000e90f520030
:1049840021003c000402e800d4818800b481800046
:10499400e80f520003003c000402e800b4818800e0
:1049a400010037003630ef00b48180006c23b90079
:1049b400860278008db47a0005034500000beb00f5
:1049c400361378000402e8006c23b9006403210064
:1049d40006024200000aeb00d480800005834500f3
:1049e400c45b90001743980024589000004b780053
:1049f40085024600b4589000814a7800145a900009
:104a0400944298007a00370085c0b300d4808000b7
:104a1400355a980076003700845a9000ef8262007d
:104a2400e18f52000b003200ef8f52003b00320046
:104a3400e08f52006d003a0010c0b30000fd070083
:104a4400d48080002458900011c0b300dffc07001c
:104a5400860137008042eb00055a9800d48080001c
:104a6400a402900035029800940290000590a000e2
:104a740015029800d4818000e90f520023003c0005
:104a84000402e800d4818800b4818000e80f520059
:104a940003003c000402e800b481880001003700f0
:104aa4003630ef00b68180006c32b90084027800a1
:104ab4002407200084b47a00d48080008503450054
:104ac4000408900094089000808bbe000603e80060
:104ad4006c33b90060032100b408900001307b00fe
:104ae400058345008043eb0017439800a45b9000c6
:104af400074b78008502460034589000804a7800bd
:104b0400145a9000944298003900370085c0b300cd
:104b1400d4808000355a9800350037008042eb007d
:104b2400055a9800d4808000a400900031029800b7
:104b3400940290000590a00015029800d481800092
:104b4400e90f520021003c000402e800d4818800ef
:104b5400b4818000e80f520003003c000402e80026
:104b6400b4818800010037003630ef00b481800042
:104b74006c23b900860278008db47a0005034500e1
:104b8400000beb00361378000402e8006c23b90034
:104b94006403210006024200000aeb00d480800076
:104ba40005834500c45b9000174398002458900087
:104bb400004b780085024600b4589000814a780082
:104bc400145a9000944298000900370085c0b3003d
:104bd400d4808000355a9800050037001800200062
:104be40003003700180020000100370018002000df
:104bf400e00f54000f0032008042eb00d4808000ac
:104c0400055a9800d4808000a402900035029800d0
:104c1400940290000590a00015029800050037004a
:104c2400c90321000985e800e88544006a86440038
:104c3400fdff270030c0b300b0f30700e00f5000c1
:104c4400fafe3a001c30a8001c70ab0007013a00c1
:104c5400c90321000985e800e88544006a86440008
:104c6400fdff270020c0b300a4f30700e00f5000ad
:104c7400f2003200d4808000845a9000050fb20004
:104c840006082000868f520004003200700343009f
:104c9400868f5200db003a006d003700845a900082
:104ca400ef826200e18f52000b003200ef8f52005e
:104cb40039003200e08f5200d4003a0090c0b300b3
:104cc4005ffc0700d48080002458900091c0b3009a
:104cd4003efc0700e50037008042eb00055a9800cf
:104ce400d5808000150290000490a00094029800e2
:104cf400d4818000e90f520023003c000402e80044
:104d0400d4818800b4818000e80f520003003c0085
:104d14000402e800b4818800010037003630ef0057
:104d2400b68180006c32b900840278002407200028
:104d340084b47a00d4808000850345000408900080
:104d440094089000808bbe000603e8006c33b90021
:104d540060032100b408900001307b000583450006
:104d64008043eb0017439800a45b9000074b780046
:104d74008502460034589000804a7800145a900006
:104d840094429800a400370085c0b300d48080000a
:104d9400355a9800a00037008042eb00055a98006d
:104da400d5808000150290000490a0009402980021
:104db400d4818000e90f520021003c000402e80085
:104dc400d4818800b4818000e80f520003003c00c5
:104dd4000402e800b4818800010037003630ef0097
:104de400b48180006c23b900860278008db47a0007
:104df40005034500000beb00361378000402e800bd
:104e04006c23b9006403210006024200000aeb008f
:104e1400d480800005834500c45890001143980055
:104e2400a45b9000074b780085024600345890003c
:104e3400804a7800145a9000944298007600370013
:104e440085c0b300d4808000355a980072003700c2
:104e5400845a9000ef826200e18f52000b0032000e
:104e6400ef8f520039003200e08f520069003a009f
:104e740010c0b300f2fb0700d480800024589000d7
:104e840011c0b300d1fb0700780037008042eb006b
:104e9400055a9800d5808000150290000490a00067
:104ea40094029800d4818000e90f520023003c0052
:104eb4000402e800d4818800b4818000e80f520025
:104ec40003003c000402e800b481880001003700bc
:104ed4003630ef00b68180006c32b900840278006d
:104ee4002407200084b47a00d48080008503450020
:104ef4000408900094089000808bbe000603e8002c
:104f04006c33b90060032100b408900001307b00c9
:104f1400058345008043eb0017439800a45b900091
:104f2400074b78008502460034589000804a780088
:104f3400145a9000944298003700370085c0b3009b
:104f4400d4808000355a9800330037008042eb004b
:104f5400055a9800d5808000150290000490a000a6
:104f640094029800d4818000e90f520021003c0093
:104f74000402e800d4818800b4818000e80f520064
:104f840003003c000402e800b481880001003700fb
:104f94003630ef00b48180006c23b90086027800bb
:104fa4008db47a0005034500000beb00361378003e
:104fb4000402e8006c23b9006403210006024200e5
:104fc400000aeb00d480800005834500c45890009b
:104fd40011439800a45b9000074b780085024600bb
:104fe40034589000804a7800145a900094429800f3
:104ff4000900370085c0b300d4808000355a98007a
:1050040005003700180020000300370018002000b6
:105014000100370018002000e00f540007003200a0
:105024008042eb00d4808000055a9800d58080002f
:10503400150290000490a00094029800f40121004d
:1050440014427800e04f5200040032001e70ef005a
:105054001c70ab0003ff3200040037001c70a80072
:10506400020037000004eb00ecfd37004f06be00e1
:105074004f05be004f04be0000000600848180007e
:10508400140290000420b20010002000200032001e
:10509400718180000000eb00808f50001c00320002
:1050a4000620200091039000e08f5300100032008e
:1050b40027029000e00f52000a0032009402900090
:1050c4008682620004003a000e00370094029000c9
:1050d400868262000d00320014027800e00f520054
:1050e400faff3a0097037800e08f5300f0ff3a008c
:1050f40091007800e08f5000eaff3a000000eb00d6
:1051040003003700100020000100370010002000c9
:1051140000000600881f78000144780064c0b300d2
:10512400550221009542780080cf520014003a00c5
:1051340006f02000c48080000403630014c0b300a0
:1051440005402000850f53000d003a00cbff0700f7
:1051540024c0b300e00f500009003a000842780070
:1051640025022100844a780080c2eb0084818000fb
:10517400155a980004332000c48088000042eb00d4
:10518400044078004f047800000006003600f80060
:10519400809fbe00829fbe00849fbe00869fbe008b
:1051a4008ec0a900040420001524800005026200ba
:1051b400130032000404200006248000060262006a
:1051c4000f00320004042000042488003a21070060
:1051d400b4808000e00f5200090032001630ed0068
:1051e400b4808000e00f520005003a0004f0200073
:1051f400c580800005026200010032001830ec0016
:105204000404200066248000060262000d003200bf
:1052140004042000552480000502620009003200c5
:105224008cc4a9000404200054248800c580800094
:1052340070025200848f520002003a0004102000d1
:10524400a48088008c04ab00060032008a04ab0002
:105254000400320014002000542488008c04a900a7
:105264001430ef008c64ab00290132008a64ab0077
:10527400270132008c24ab00080032008a24ab00e2
:1052840006003200d4808000d40a90000530b200b9
:1052940004102000848f52001d013a001c90a900c4
:1052a400962480008400200054248800d480800048
:1052b400245890000080fb009e84b600ef0260003a
:1052c40012013a0086027800688362000500320009
:1052d400e4826200c600210006003a006403530021
:1052e40004003700e48262004600210001003a0015
:1052f4000600210005c0230096826200078020007a
:10530400878f520046003a00f53f200096826200e3
:10531400040b9000940b900005034300e0834b00c2
:10532400060a9800170a9800d48080000003eb0056
:10533400760a9800140390004b33de000683ea00db
:10534400610363004b33dd009403900007b0a100b8
:105354000703730016029800d4808000045b900059
:10536400f04f530008003200845b900006c2b30083
:1053740086cf530004003200845b900070434300e6
:1053840086cf53000f003a00040890009408900060
:105394007403900007002000860f5000878f580088
:1053a400da0039006033b800060a9800170a98003a
:1053b400d4808000845a90008542e800055a980001
:1053c400d2003700d40b90000730b2000610200042
:1053d400868f53000a00320044039000868f5200e7
:1053e40007003900040890009408900054039000ca
:1053f400e4039000860f5000878f5800c3003900e3
:10540400940290000580a00015029800d4808000ca
:10541400845a90008542e800055a9800bb00370082
:1054240007c02000878f52000300320007c022000b
:10543400878f52002c003a00f53f200096826200cc
:10544400040b9000940b900005034300e0834b0091
:10545400060a9800170a9800d48080000003eb0025
:10546400760a9800140390004b33de000683ea00aa
:10547400610363004b33dd009403900007b0a10087
:105484000703730016029800d4808000d40b9000a8
:105494000730b20006102000868f53000a00320045
:1054a40044039000868f52000700390004089000de
:1054b4009408900054039000e4039000860f500079
:1054c400878f580091003900940290000580a00055
:1054d40015029800d4808000845a90008542e80028
:1054e400055a98008900370006802200868f5200f2
:1054f4005d003a009402900005c0a00015029800d7
:10550400d4808000f40a90008502e800750a9800af
:10551400d40a9000c82ade00e3826200e28f5200bf
:1055240005003200e38f520029003200e18f52005f
:1055340014003a00440037001403900005002200d0
:105544008502630071003200740b90008412900095
:10555400850f53006d003600940290000560a00092
:105564001502980075c1b300d4808000455a980094
:10557400d4808000845a9000f540b300055a980006
:1055840062003700140390000500220085026300c6
:105594005e003200740b900084129000850f53005b
:1055a4005a003600940290000560a000150298008d
:1055b40075c1b300d4808000455a9800d48080001f
:1055c400845a9000f540b300055a98004f00370004
:1055d400a45a9000e0cf5200130035001403900049
:1055e400050022008502630048003200740b90001d
:1055f40084129000850f53004400360094029000fa
:105604000560a0001502980075c1b300d480800025
:10561400455a9800d4808000845a9000f540b30025
:10562400055a980039003700940290000580a000c4
:1056340015029800d4808000845a90008542e800c6
:10564400055a980031003700940290000580a000ac
:1056540015029800d4808000845a90008542e800a6
:10566400055a98002900370006802300868f5200cf
:105674000b003a00940290000550a0001502980017
:1056840015c1b300d4808000455a9800d4808000ae
:10569400845a9000f540b300055a98001b00370067
:1056a400940290008542e800ff8262009403900017
:1056b40006fe2f000683630086827200150298009e
:1056c400d480800094029000ff826200f38f520025
:1056d4000e003400940290000560a00015029800aa
:1056e40035c1b300d4808000455a9800d48080002e
:1056f400845a9000f540b300055a9800f40f200036
:1057040074248800240020005424880050fa0700e0
:105714008c44ab002a0032008a44ab0028003200db
:10572400440020005424880070818000e00f500061
:105734001d003200063020000710200020029000d7
:10574400e00f52001500320024029000e00f5200d6
:1057540012003200d40a900086826200868f5200c2
:1057640002003200878f520006003a00b402900013
:10577400e08f520003003200b40290008502e90079
:10578400350298009402900005c0a100150298000b
:1057940014027800e00f5200eeff3a001000780087
:1057a400e00f5000e5ff3a001c10a9001c30a900ce
:1057b4001c50a9001c70a9001e70ef0024fa0700f9
:1057c4008c24ab00480032008a24ab00460032002f
:1057d4001c90a900d4808000540b90000630b200c5
:1057e40005102000850f53003b0032009402900006
:1057f4008542e800ff8262009403900006fe2f00b9
:10580400068363008682720015029800d4808000ab
:1058140094029000ff826200f38f52002e00340045
:10582400050820007624800086826200020032008f
:1058340005c2b300455a9800040220007524800074
:10584400050262000300320015c2b300d480800058
:10585400455a98008e84ab000300320025c2b30081
:10586400d4808000455a98008e64ab000300320057
:1058740035c2b300d4808000455a98008e44ab00f2
:105884000300320045c2b300d4808000455a98001a
:105894008e24ab000300320055c2b300d4808000d4
:1058a400455a98008e04ab000300320065c2b30071
:1058b400d4808000455a9800d5808000150290005d
:1058c4000460a00094029800d4808000845a900060
:1058d400f540b300055a9800f40f200074248800a2
:1058e40024002000542488004f03be004f02be0051
:1058f4004f01be004f00be003600f9000040060014
:1059040065005000f4072000840f500001003600a9
:105914000000e9000000060000037800247e8000f7
:105924000000eb00800f52000d00320004007800ec
:10593400940a9000868f520005003a000800370050
:1059440004007800940a9000868f5200040032000c
:1059540014027800e00f5200f9ff3a000000eb0057
:1059640000000600047e80008002eb00850f5200d8
:105974000e0032002403900015002000800f530015
:1059840004003a0009003700a4029000808f5200fe
:105994000500320014027800e00f5200faff3a00ca
:1059a4008002eb000100370015002000050078009c
:1059b4000000060000037800047e80000000eb0075
:1059c400800f52000d00320004007800b4029000f1
:1059d400868f520005003a00080037000400780062
:1059e400b4029000868f5200040032001402780042
:1059f400e00f5200f9ff3a000000eb00000006003f
:105a0400047e80000003eb00860f52000b0032007e
:105a140004037800944a900081cf520003003a00b6
:105a2400a4029000808f5200040032001402780017
:105a3400e00f5200f6ff3a000003eb000600780086
:105a44000000060000437800147e80000000eb0094
:105a5400800f52000d00320004007800c442900010
:105a640086cf520005003a00080037000400780091
:105a7400c442900086cf5200040032001402780021
:105a8400e00f5200f9ff3a000000eb0000000600ae
:105a9400414290004450980051429000344898008c
:105aa4002002900004129000b00a9000848f5200eb
:105ab400010036003408980011029000b00a9000ea
