:020000040000fa
:080000000002040000000000f2
:020000040000fa
:10040000ef0b21000eff21000e018800000000000c
:100410000c000700200f2100010020001d00070034
:10042000000020000000e000020032000000020096
:1004300000000000940b0200000000000040da0001
:100440000000fe00000020000000e000020032007a
:10045000000020009001880000000600f03fb1007d
:100460000180b10006003500ee0309000000000025
:10047000403fb1000180b100fbff3d001000b00023
:10048000203fb0000200350000800900000000009d
:1004900000000600a1028800800078000000eb0048
:1004a0001a003700e280400054a0b4009101ba0065
:1004b000e280400054a0b4009102ba00e280400003
:1004c00054a0b4000002eb00472bde00f507b20099
:1004d000a6018800602ce10008003a000049eb000a
:1004e0000201e800020039003420ec0002f0a00014
:1004f0008301e900f9ff3e00040037006128e100b4
:10050000010032000082eb00040007001101ba0074
:100510000200e000e3ff3a000000060004d0a30060
:10052000e20f49001c003900810278003549ba0009
:100530000201e800020039003420ec0002f0a000c3
:100540008301e9000f0032002549ba000201e800ea
:10055000020039003420ec0002f0a0008301e90021
:10056000080032000400e0000600320015c9ba009d
:100570000201e800020039003420ec0002f0a00083
:100580008301e9008180e80054a0b4000300e0008a
:10059000e2ff3a00000006009102ba000559780017
:1005a0008301e900f7ff3200c82ade000559780010
:1005b0008301e900f3ff32000400e000f1ff3200a4
:1005c00011d9ba00eeff37000040da000000fe004b
:1005d000889fbe008a9fbe00010578000100e000f0
:1005e0000400350008003c000000e000200032005c
:1005f0000500370060001000e080180002003b009a
:1006000001f02c001a0037000004be006011b80091
:100610006b0920000982cf00020039000882cf0058
:100620000441b000694252000e00320008003b0055
:1006300082817100610164008904d1000884d300c3
:100640008b05e8000442e800f9ff3a000500370096
:100650000804440089844c008b05e9000442e90049
:10066000fbff3a00f80007000af0a70001f0a00025
:100670004f05be004f04be0000000600889fbe006c
:100680008a9fbe008c1f7800150107001c013300f3
:1006900003866c006450e100240032006420e10015
:1006a000270032006150e100220032006120e100a9
:1006b000210032008b854200eb07b1000134b80005
:1006c000003ab8000804420089844a00013ab800a0
:1006d0000030b8008880400009014a00040033005f
:1006e0000000400081804800020149008b05e900bc
:1006f000c909dd00830170000100320013002000f1
:10070000c814de004814dd004709de001200b20004
:10071000c808de0008847000cb00070001f0a100cb
:100720000cf0a70001f0a000fe0037006120e100fe
:10073000000132000801be000200be00f7ff3700d2
:100740006150e100fcff3a00fa00370003f0a2001c
:10075000889fbe008a9fbe008c1f7800e0000700c3
:10076000e70033006450e1004f0032006420e100f4
:100770005200320003826c0007003b000905d000e4
:100780000306d000820f54000c065d000200390001
:100790000200320089017800030678008582550046
:1007a00004003d000003fd008103fd008502ea0016
:1007b0008b854200840f720002003b006000100035
:1007c000e08018006011b8000005eb007a28e10015
:1007d0000a00390006007800c75ddd00f707b200a7
:1007e000878075002d003700828171000a01780032
:1007f000610560008180d1000080d3008502e9009e
:10080000f9ff3b00060440008784480002003b00db
:1008100060041400e0841c000988a3000700320073
:100820008a81710082817100610164008904d100b4
:100830000884d3008b05e800170037000978a3006f
:1008400013003a000b00e000130034008b05e900b0
:100850000804440089844c000a4474000978a30009
:100860000d003a000b00e000070034008b05e900a2
:100870000804440089844c0001003a000b00200069
:100880000978a300f7ff32000001eb0002003700f7
:10089000828171000a0178006b0007000cf0a7004c
:1008a00001f0a0009f0037006420e10002003a0040
:1008b000838f6c009f0033000801be000200be0061
:1008c00098003700889fbe008a9fbe008c1f78006a
:1008d000830007008a00330003866c006450e10047
:1008e0002e0032006420e100330032006150e1004c
:1008f0002f0032006120e100310032008585550073
:10090000eb07b000090020000804200005003700b4
:100910000804440089844c000a00310006034300a7
:1009200087834b000001530081815b00f8ff330097
:100930000203be000800a0000804440089844c00a3
:10094000f6ff3900c639dd00830173000100320073
:10095000130020008904d1000884d3000998a30063
:10096000050032000800a7000300a0008904d100a0
:100970000884d3008b05e8008904d1000884d300e3
:100980000001eb000281d2002f00070001f0a1005e
:100990000cf0a70001f0a000620037006420e10025
:1009a000640032000801be000200be00f7ff3700fd
:1009b0006120e1005f0032006000b800f3ff370003
:1009c0000000200001f82700f0ff3700f4ff2f009f
:1009d0005b00370014002000590037000001be0002
:1009e000720007000470a70003f0a10003f8a30041
:1009f00013003a006509b10010003200090035000b
:100a00006928e1000200350001002800000005000f
:100a100000004000818048008502e900fcff3a00a8
:100a200000000600f88f4200050035008100d1006b
:100a30000080d3008502e800fcff3a0000000600b9
:100a40008000eb000000050081002000618055005f
:100a50000b003d000b00200061fe2f000100e100b3
:100a60001d00340082817100610164008904d1009d
:100a70000884d3000000e800faff3a00710020006b
:100a80006100640003007000020060000900320091
:100a900061044400e0844c000988a5000500320090
:100aa0008b05e8006808e10002003a008904d100e3
:100ab0000884d300f20f20000258e10005003d0039
:100ac000c75ddd00f907b200898075000800780075
:100ad000000006000bf827008b00780000000500de
:100ae0000004be00310007000003be000405be0084
:100af0000200be002d000700844f750000000600b4
:100b00000200be006450e100050036006420e100f0
:100b1000020036000968a30001003a000800be0088
:100b20000160a0004f0678004f05be004f04be00d4
:100b300000000600f0ff2f00f1ff2700f9ff37004b
:100b4000889fbe008a9fbe00841f7800e4ff0700d4
:100b50004f00780011003300f0ff2f00838f6c00ee
:100b600006003b00040565000a00a70008003700e6
:100b700009f0a6001000200008003700820f540082
:100b8000838f5c00030039001000200001003e004c
:100b90000000200009f0a7000000ea004f05be0099
:100ba0004f04be000000e00000000600c70ade009f
:100bb000f107b200f50fb20008003200e1cf4200a9
:100bc000020032000170a00024000500810f7000b7
:100bd000010032000408050044000500810f700088
:100be00002003a00140005008502e9000000400000
:100bf00081c04800fcff3b000170a00024000500fc
:020000040000fa
:04afe000deff000090
:020000040000fa
:04afe400dfff00008b
:020000040000fa
:04afe8007fff0000e7
:020000040000fa
:04afec00bfff0000a3
:020000040000fa
:04aff000b9ff0000a5
:020000040000fa
:04aff400cfff00008b
:020000040000fa
:10000800e4020000e4020000e4020000e402000050
:10001800e4020000e4020000e4020000e402000040
:10002800e4020000e4020000e40200008c09000081
:10003800e4020000e4020000e4020000e402000020
:1000480022090000e4020000e40200001606000095
:1000580000060000e4020000e4020000e4020000e0
:10006800e4020000e4020000e4020000e4020000f0
:10007800e4020000e4020000e4020000e4020000e0
:10008800e4020000e4020000e4020000e4020000d0
:10009800e4020000e402000078060000e402000028
:1000a800e4020000e4020000e4020000e4020000b0
:1000b800e4020000e4020000e4020000e4020000a0
:1000c800e4020000e4020000e4020000e402000090
:1000d800e4020000e4020000e4020000e402000080
:1000e800e4020000fe060000e4020000e402000052
:1000f800e4020000e4020000e4020000e402000060
:10010800e4020000e4020000e4020000e40200004f
:10011800e4020000e4020000e4020000e40200003f
:10012800e4020000e40200005c060000e4020000b3
:10013800e4020000e4020000e4020000e40200001f
:10014800e4020000e4020000e4020000e40200000f
:10015800e4020000e4020000e4020000e4020000ff
:10016800e4020000e4020000e4020000e4020000ef
:10017800e4020000e4020000e4020000e4020000df
:10018800e4020000e4020000e4020000e4020000cf
:10019800e4020000e4020000e4020000e4020000bf
:1001a800e4020000e4020000e4020000e4020000af
:1001b800e4020000e4020000e4020000e40200009f
:1001c800e4020000e4020000e4020000e40200008f
:1001d800e4020000e4020000e4020000e40200007f
:1001e800e4020000e4020000e4020000e40200006f
:1001f800e4020000e4020000e4020000e40200005f
:10020800e4020000e4020000e4020000e40200004e
:10021800e4020000e4020000e4020000e40200003e
:10022800e4020000e4020000e4020000e40200002e
:10023800e4020000e4020000e4020000e40200001e
:10024800e4020000e4020000e4020000e40200000e
:10025800e4020000e4020000e4020000e4020000fe
:10026800e4020000e4020000e4020000e4020000ee
:0c027800e4020000e4020000e4020000c8
:020000040000fa
:100c00003200f800881f7800080020009801880052
:100c1000000000004f0478000000fa000188a900dd
:100c20000080fa003200f900004006003600f800ab
:100c3000809fbe00829fbe00849fbe00869fbe0034
:100c40003200f80000002000900188000000000041
:100c50000000fa00b0030700a7030700602220008d
:100c6000100078000000e000060032006022200042
:100c70009000780010062000808f500001003a009c
:100c80009d0307000168a90080bb200089030700bd
:100c9000a50307009c0307000080fa003200f9005a
:100ca0004f03be004f02be004f01be004f00be000a
:100cb0003600f90000400600809fbe003200f800b8
:100cc0000000200090018800000000000000fa00f1
:100cd0000848a900510420004023200001087800a2
:100ce0000080fa003200f9004f00be00004006000c
:100cf000809fbe00829fbe00849fbe00861f78003a
:100d00003200f80000002000900188000000000080
:100d10000000fa002c00370060232000100078004b
:100d200000f0b700e009210090007800e009210000
:100d30001100980000d0bf008000fb00e0092100f6
:100d400001087800e009210090009000c006200012
:100d5000808f50001c003a00e0092100100078004c
:100d6000800078004023200001087800e00921007d
:100d70001000780030858800e0092100100078001c
:100d80006102b90084007800608620000008b80085
:100d9000e023b800010178000601410063862000cd
:100da000832ab80004014100820078000001be00df
:100db000000020000100280002004000838048005d
:100dc0004082880051828800202320001040780053
:100dd000614060000004e000cfff3a0003c8a900b2
:100de0000080fa003200f9004f0378004f02be0085
:100df0004f01be004f00be00004006003600f80064
:100e0000809fbe00829fbe00849fbe00869fbe0062
:100e10003200f8000000200090018800000000006f
:100e20000600fa0080212000104078000044b20043
:100e30000004e00003003200370307002e03070020
:100e4000ffff370080212000104078000042b200f0
:100e50000004e00006003a000021200010007800a5
:100e6000004f78001000200080808800ec003700e0
:100e700080212000104078000042b2000004e00011
:100e8000e70032008080800020079800ae009000cc
:100e9000e38f50001d0032002e009000e30f500041
:100ea00007003c00ae009000e18f50000b003200c4
:100eb0002e009000e20f50000e0032002800370094
:100ec000ae009000e48f50001a0032002e00900017
:100ed000e50f50001d0032002100370000212000e6
:100ee000100078009080880020002000808088001a
:100ef0001b003700002120001000780014f0b7001c
:100f0000300020008080880015003700002120007c
:100f10001000780015f0b70015d0bf00e14f400079
:100f200001003a00f40207004000200080808800a1
:100f30000b003700002120001000780016f0b700e9
:100f4000500020008080880005003700002120002c
:100f50001000780017f0b70040062000808088005d
:100f60008180800040062000808f5000ac003a0055
:100f70009180800011079800700620009e0090006c
:100f8000808f50006b003200700620009e009000a1
:100f9000808f50000d003c00500620009e00900005
:100fa000808f50002e003200500620009e009000de
:100fb000808f50004b003c00400620009e009000b7
:100fc000808f50000e00320095003700800c20000a
:100fd0009e009000808f500076003200f00f2000bd
:100fe0009e009000808f50007d003200800620001f
:100ff0009e009000808f50005e0032008800370015
:1010000014d0bf000082fb0005002000840078009f
:10101000900620000008b800e023b8000101780025
:101020000601410093062000832ab8000401410014
:1010300082007800408288005182880042828000cd
:1010400053828000000020000100240002004000c4
:1010500083804800408288005182880070003700f9
:1010600014d0bf000082fb000500200017d0bf0095
:101070000080fb00010020004809dd00c801de00ff
:10108000830171004801dd0016d0bf000080fb0025
:101090000100200002004000838048004809dd0074
:1010a000c801de00830171004801dd0015d0bf00da
:1010b0000080fb0001002000020040008380480007
:1010c000c808dd000080fd00804078000040eb0093
:1010d00004004000858048004082880051828800da
:1010e0004f00370014d0bf000081fb000300200038
:1010f00040828000518280000201400083814800cc
:1011000015d0bf000080fb004800dd00010020007a
:1011100002014000838148000000200001002c00f3
:10112000020040008380480040828800518288008d
:101130003b00370014d0bf000081fb0003002000fb
:10114000408280005182800002014000838148007b
:1011500015d0bf000080fb004800dd00010020002a
:10116000020040008380480040828800518288004d
:101170002b003700428280005382800014d0bf00d1
:101180000080fb0001002000000151008181590016
:1011900015d0bf000080fb004800dd0001002000ea
:1011a00000005100818059004082880051828800ef
:1011b0001b003700810c2000100020005e02070099
:1011c000800c20003b020700810c20001000200052
:1011d00059020700800c200036020700100037007b
:1011e000411f2000100020005302070000002000d3
:1011f0000100240040828800518288008000eb00ba
:10120000601c20000108780001002400801c2000e0
:1012100001087800c11220001000200046020700db
:101220000628a9000080fa003200f9004f03be0032
:101230004f02be004f01be004f00be003600f90055
:1012400000400600809fbe00829fbe00849fbe00bb
:101250003200f8000000200090018800000000002b
:101260000000fa0015d0bf003042b00015f0b70002
:1012700014d0bf000081fb000300200040828000ea
:1012800051828000020140008381480015d0bf00d8
:101290000080fb004800dd00cf80de00020240003d
:1012a0008382480017d0bf000080fb0001002000af
:1012b0004809dd00c801de00830171004801dd003e
:1012c00016d0bf000080fb0001002000020040009b
:1012d00083804800c000dd000000200004014000c1
:1012e0008581480000002000010028000200400025
:1012f0008380480040828800518288000108a9004c
:101300000080fa003200f9004f02be004f01be001b
:101310004f00be00004006003600f800809fbe006f
:10132000829fbe00849fbe00869fbe00889fbe0035
:101330008a9fbe003200f800000020009001880063
:10134000000000000800fa000068a9008000eb001f
:101350000010200001087800601c200010007800b8
:101360006101b800801c20001000780001002000fe
:10137000c000dd0000002000020040008380480023
:10138000008288001182880002828000138280001f
:10139000208280003182800000005100818059004d
:1013a00020818800318188000082800011828000c5
:1013b00020828800318288006081800071818000f5
:1013c00080818800918188002081800031818000a7
:1013d0006081880071818800428280005382800091
:1013e000008280001182800000005100818059003d
:1013f000208388003183880022838000338380002b
:101400000080eb008080eb00800f5100818f59003d
:10141000080034002083800031838000e00f5000fa
:10142000e08f580003003c0010002000408088003e
:10143000b300370010808000cf80de0064fc07001e
:101440000004be00208380003183800060fc070020
:101450000001be000800be0088fc070020079800bd
:1014600031079800788380006140b90058fc07007c
:10147000008fbe000800e00005003d0002002000d3
:10148000037824001e00be00b1fc0700008fbe00e0
:101490001e01be002e009000be00900009fd070056
:1014a00002002000832c240074fc0700e0828800e6
:1014b000f1828800e0828000f1828000020020003a
:1014c000832c240041fd07000000e00001003d00e6
:1014d0000500370000002000812c2400e0828800f5
:1014e000f18288000c003700e0828000f1828000e9
:1014f00002002000832c2c0036fd07000000e000d5
:10150000010034000400370000002000812c2c0072
:10151000e0828800f1828800ea828000fb828000fd
:10152000208080006103b900248180003581800023
:1015300086007800040078000009b8008534b800ff
:1015400003007800080040008722b8000400400033
:10155000800178000200be001dfc07000001be00f3
:101560000a00be0079fc0700e0828800f182880052
:101570002083800031838000e00f5000e08f58000e
:101580001d003d0040808000e30f500007003a003e
:10159000c0818000d181800061004000e08048006f
:1015a000c0818800d1818800030037006000b80046
:1015b000c0818800d1818800e8828000f9828000a3
:1015c000c0818000d181800001fc07005280800032
:1015d0006380800029fc07000001be000800be00f7
:1015e0005afc0700e0828800f18288003000200069
:1015f000408088001a00370040808000e20f5000d1
:1016000007003a00e0818000f18180006100400025
:10161000e0804800e0818800f18188000300370005
:101620006000b800e0818800f1818800e0818000de
:10163000f1818000e6fb070052808000638080001b
:101640000efc0700e2828000f382800040fc07006d
:10165000e0828800f182880020002000408088001d
:10166000e0828000f182800002002000832c2400b0
:10167000d6fc07000000e00001003d000500370037
:1016800000002000812c2400e0828800f182880084
:101690000c003700e0828000f18280000200200010
:1016a000832c2c00cbfc07000000e000010034007c
:1016b0000400370000002000812c2c00e08288000c
:1016c000f1828800e0828000f18280006011b80021
:1016d000c0fc07000000e0000100350005003700f5
:1016e000e0828000f182800001f0a2007e0107000c
:1016f00003003700e0828000f1828000360107009d
:101700000080fa003200f9004f05be004f04be0011
:101710004f03be004f02be004f01be004f00be008f
:101720003600f900004006000000fa00b100200079
:10173000a021200001087800ca01070086000700e8
:101740000b000700000020000100240040828800f8
:101750005182880005e1a800813e20003000200071
:10176000f5000700803e2000d2000700faff370096
:101770000000fa0001e22400201020000108780097
:101780001084200090407800f0c8b30000c06000d2
:1017900001c2b3000140700011842000804878002d
:1017a0000068a9002068a8000080fa000000060078
:1017b0000000fa001061a900d1032000e010200011
:1017c000010878008000eb00c010200001087800bc
:1017d000408420009040780080cfb30000c06000bb
:1017e0000024a00041842000804878000108a9005e
:1017f0002108a90011e1a9000080fa0000000600fc
:101800000000fa002022200010407800f2c3b3004c
:101810008240600020222000014878002168a90051
:101820005084200090407800f0c8b30000c06000f1
:1018300001c4b3000140700051842000804878004a
:101840002202a9002222a9002242a9002262a900a4
:101850001108200080222000010878006068200024
:101860009040780000ccb30000c060000004a000ed
:10187000616820008048780071022000406c2000e0
:101880000108780021e2a8002342a80020c2a90094
:101890000080fa00000006000000fa00f08420003a
:1018a0009040780080cfb30000c060003040b300ab
:1018b000f18420008048780023c8a8003202a900e3
:1018c0003222a9003242a9003262a900a100200000
:1018d000802320000108780010eea8006068200036
:1018e0009040780000ccb30000c060003040b300ee
:1018f000616820008048780071022000606c200040
:101900000108780031e2a8003342a800202320001b
:1019100010407800f2c3b300824060002023200012
:101920000148780030c2a900f0842000904078007f
:10193000f0c8b30000c0600001c3b30001407000f4
:10194000f1842000804878000848a9002848a800b1
:101950000080fa00000006000400fa00881f7800ea
:10196000c3c1a900301c20009040780080c3b300a0
:1019700080c07000301c200001487800000020006a
:1019800001002400608288007182880060828000eb
:10199000718280008082880091828800808280002d
:1019a00091828000a0828800b1828800000020001f
:1019b0000100240020828800318288006000b80085
:1019c000c0808800d1808800788380006140b900a1
:1019d000fffa0700008fbe000800e00005003d0090
:1019e00002002000037824001e00be0058fb070000
:1019f000008fbe00c2808000d38080001e00be0029
:101a00001efb0700f5fb070040828800518288001a
:101a100042828000538280000000200001002400e8
:101a20000200400083804800408288005182880084
:101a3000401f20001f000700411f20000000eb0096
:101a40003d0007000005200010808800d0cc2c004d
:101a5000c1d4230050808800618088000000eb0022
:101a6000208088004f0478000080fa000000060003
:101a70000200fa00000f78001e0078006102b80032
:101a800084007800400120000009b800e023b8007d
:101a90000300780006004000f42ab800040040006b
:101aa000800178000200be006cfa07000080fa0096
:101ab000000006000200fa00000f78001e00780007
:101ac0006102b8008400780000e224000008b80039
:101ad000e023b800010178000601410003e2240080
:101ae000832ab80004014100820078005bfa0700f5
:101af0000080fa00000006000000fa00140ea800a2
:101b00000080fa00000006000000fa00140ea90090
:101b10000080fa00000006000000fa00040ea80091
:101b20000080fa00000006000000fa00040ea90080
:101b30000080fa00000006000600fa00000f78009e
:101b4000110798001e007800200798002e009000d2
:101b5000e10f5000150032002e009000e10f500000
:101b600004003c002e0090000000e000080032005d
:101b7000170037002e009000e20f500014003200d2
:101b80002e009000e30f50000d00320010003700cf
:101b9000d9ff0700e0ff07001e009000c5ff070007
:101ba000d9ff0700e0ff070009003700d2ff070058
:101bb0001e009000bfff0700d3ff0700040037009e
:101bc000d5ff07001e009000baff0700d6ff0700f0
:101bd0000080fa00000006000400fa00008fbe003a
:101be00050e1200010407800704060000004e000e8
:101bf0001e00320050e12000104078000042b20088
:101c00000004e0001900320030c4200010407800c9
:101c10000044b2000004e00014003a0030c4200088
:101c20009040780000c8b30000c060000004e000ed
:101c30000e003a0030c220009040780000c8b30087
:101c400000c060000004e0000800320030c2200044
:101c5000104078000044b2000004e00003003200ad
:101c6000a000200082ff07000b003700158ea9009e
:101c700043cca900500020007dff070043eca900e1
:101c800015aea8005000200079ff0700158ea800af
:101c900023eca80023cca80002002000832c240001
:101ca0001e00be0049fb07000000e00001003c00f0
:101cb0000300370000002000812c2400008fbe00ac
:101cc00002002000031224001e00be006bfa070071
:101cd00042fb07008000780060c220000108780005
:101ce0000080fa00000006000400fa00008fbe0029
:101cf00050e12000104078000044b2000004e000f1
:101d00001f00320050e120009040780000c8b3006e
:101d100000c060000004e0001900320030c2200062
:101d2000104078000044b2000004e00014003a00c3
:101d300030c220009040780000c8b30000c06000ae
:101d40000004e0000e003a0030c42000904078000b
:101d500000c8b30000c060000004e00008003200ca
:101d600030c42000104078000044b2000004e000bd
:101d700003003200a00020003dff07000b003700e9
:101d800015eea90023cca9005000200038ff070061
:101d900023eca90015cea8005000200034ff070056
:101da00015eea80043eca80043cca80002002000d8
:101db000832c24001e00be0004fb07000000e0008e
:101dc00001003c000300370000002000812c2400ab
:101dd000008fbe0002002000031224001e00be007f
:101de00026fa0700fdfa07008000780060c4200092
:101df000010878000080fa00000006000000fa00e8
:101e000015eea900158ea90023cca90043cca9008a
:101e10005000200016ff070015cea80015aea80040
:101e200043eca90023eca9000080fa0000000600a2
:101e30000000fa0015cea80015aea80043eca900da
:101e400023eca9005000200009ff070015eea800b0
:101e5000158ea80023cca90043cca9000080fa006d
:101e6000000006000000fa00f1032000607420006a
:101e7000010878004074200010407800f043b20060
:101e800001c4b30001407000417420008048780014
:101e9000407420009040780000ceb30000c0600085
:101ea0000004a00041742000804878008000eb000e
:101eb00000e020000108780001e0200000e120009f
:101ec00001087800116ea9008000eb0040e02000be
:101ed000010878008000eb0040e120000108780054
:101ee0008000eb00e0e02000010878008000eb00bb
:101ef000e0e1200001087800813e200040c0200081
:101f00000108780021032000a0c620000108780005
:101f1000a0c6200090007800a0c42000010878002e
:101f2000a0c4200090007800a0c220000108780022
:101f300021032000c0c6200001087800c0c6200090
:101f400090007800c0c4200001087800c0c42000c0
:101f500090007800c0c22000010878008000eb00eb
:101f600000c620000108780000c62000900078001c
:101f700000c420000108780000c420009000780010
:101f800000c22000010878008000eb0020c0200083
:101f90000108780023aca800238ca900422ca800db
:101fa00043aca900438ca80001eca8008000eb0022
:101fb00060c22000010878008000eb0060c42000af
:101fc0000108780063eca90063cca90016e2a80020
:101fd00017e2a8008085200090407800f0c8b30088
:101fe00000c0600001c6b300014070008185200080
:101ff000804878002628a800d06b20009040780008
:1020000000c8b30000c06000a1c2b300014070006e
:10201000d16b200080487800c06b20009040780091
:1020200000c8b30000c0600091c2b300014070005e
:10203000c16b200080487800c301a800101c20005c
:102040009040780030ceb30000c060008041b30003
:10205000111c200080487800c1e1a8008000eb003e
:10206000001e2000010878008080eb00e01d2000a9
:10207000010878008080eb00e01d20000108780056
:1020800001002400801c2000010878000090260038
:10209000708388004362a8004382a8001074200067
:1020a0009040780000c8b30000c060000004e00069
:1020b0000200320090fe0700ffff3700107420007e
:1020c000104078000044b2000004e0000600320036
:1020d000810c20001000200097fe0700800c2000db
:1020e00074fe0700faff37001074200010407800db
:1020f000624060000004e000020032007efe070043
:10210000ffff3700007420009040780000c8b30043
:1021100000c060000004e00003003200810c2000d9
:102120003000200084fe070000742000104078007a
:102130000044b2000004e000020032006efe07001e
:10214000ffff3700007420001040780070406000ee
:102150000004e0000200320067fe0700ffff3700c6
:102160000074200010407800684060000004e00027
:102170000200320060fe0700ffff370000742000fd
:1021800010407800644060000004e000020032006b
:1021900059fe0700ffff3700007420001040780050
:1021a000624060000004e0000300320052fe0700bd
:1021b000800c20003ffe07000074200010407800d3
:1021c000614060000004e000040032004afe0700a5
:1021d00051fe0700800c200036fe07000080fa0048
:0421e00000000600f5
:020000040000fa
:1021e40000100000aa00000080000000aa100000f7
:0c21f4001400000080000000000000004b
:00000001FF
