:020000040000fa
:080000000002040000000000f2
:020000040000fa
:10000800cc020000d2020000ee020000d80200007c
:10001800de020000e4020000f2020000ea02000032
:10002800ea020000ea020000ea02000052050000ad
:10003800ea020000ea020000ea020000ee070000ff
:10004800a2070000ea020000ea020000ea0200003b
:10005800ea020000ea020000ea020000ea020000e8
:10006800ea020000ea020000ea020000ea020000d8
:10007800ea020000ea020000ea020000ea020000c8
:10008800ea020000ea020000ea020000ea020000b8
:10009800ea020000ea020000ea020000ea020000a8
:1000a800ea020000ea020000ea020000ea02000098
:1000b800ea020000ea020000ea020000ea02000088
:1000c800ea020000ea020000ea020000ea02000078
:1000d800ea020000ea020000ea020000ea02000068
:1000e800ea020000f6020000ea020000ea0200004c
:1000f800ea020000ea020000ea020000ea02000048
:10010800ea020000ea020000ea020000ea02000037
:10011800ea020000ea020000ea020000ea02000027
:10012800ea020000ea020000ea020000ea02000017
:10013800ea020000ea020000ea020000ea02000007
:10014800ea020000ea020000ea020000ea020000f7
:10015800ea020000ea020000ea020000ea020000e7
:10016800ea020000ea020000ea020000ea020000d7
:10017800ea020000ea020000ea020000ea020000c7
:10018800ea020000ea020000ea020000ea020000b7
:10019800ea020000ea020000ea020000ea020000a7
:1001a800ea020000ea020000ea020000ea02000097
:1001b800ea020000ea020000ea020000ea02000087
:1001c800ea020000ea020000ea020000ea02000077
:1001d800ea020000ea020000ea020000ea02000067
:1001e800ea020000ea020000ea020000ea02000057
:1001f800ea020000ea020000ea020000ea02000047
:10020800ea020000ea020000ea020000ea02000036
:10021800ea020000ea020000ea020000ea02000026
:10022800ea020000ea020000ea020000ea02000016
:10023800ea020000ea020000ea020000ea02000006
:10024800ea020000ea020000ea020000ea020000f6
:10025800ea020000ea020000ea020000ea020000e6
:10026800ea020000ea020000ea020000ea020000d6
:0c027800ea020000ea020000ea020000b6
:020000040000fa
:10040000ef0b21000eff21000e018800000000000c
:1004100000012000200288000c0007008004210059
:10042000010020000f000700000020000000e00095
:10043000020032000000020000000000fc0f020079
:10044000000000000040da000000fe002000200054
:100450000000e0000200320010002000900188003f
:1004600000000600a1028800800078000000eb0078
:100470001a003700e280400054a0b4009101ba0095
:10048000e280400054a0b4009102ba00e280400033
:1004900054a0b4000002eb00472bde00f507b200c9
:1004a000a6018800602ce10008003a000049eb003a
:1004b0000201e800020039003420ec0002f0a00044
:1004c0008301e900f9ff3e00040037006128e100e4
:1004d000010032000082eb00040007001101ba00a5
:1004e0000200e000e3ff3a000000060004d0a30091
:1004f000e20f49001c003900810278003549ba003a
:100500000201e800020039003420ec0002f0a000f3
:100510008301e9000f0032002549ba000201e8001a
:10052000020039003420ec0002f0a0008301e90051
:10053000080032000400e0000600320015c9ba00cd
:100540000201e800020039003420ec0002f0a000b3
:100550008301e9008180e80054a0b4000300e000ba
:10056000e2ff3a00000006009102ba000559780047
:100570008301e900f7ff3200c82ade000559780040
:100580008301e900f3ff32000400e000f1ff3200d4
:1005900011d9ba00eeff37000000fa00c028a90008
:1005a000ffff37000000fa00c068a900ffff370016
:1005b0000000fa00c048a900ffff37000000fa0061
:1005c000c088a900ffff37000000fa00c0a8a900fa
:1005d000ffff37000000fa00ffff37000000fa00bd
:1005e000ffff37000000fa00ffff37003600f80079
:1005f000809fbe00829fbe00849fbe00869fbe007b
:100600003200f80010002000900188000000000077
:100610000200fa00c5108000040420000482620079
:10062000e00f5200030032007b0307007203070053
:10063000ffff3700c5108000040220000482620022
:10064000e00f520005003a0084108000044f78004b
:100650001400200084808800fc003700c510800052
:100660000402200004826200e00f5200f700320012
:10067000848080006123b9000082eb008082eb005f
:100680000602420087824a00460020000700200040
:10069000860f5200878f5a0027003e000406010093
:1006a00004003700080037000e0037001400370040
:1006b0001a003700841080009480880024002000f5
:1006c000848088001c003700841080000442780079
:1006d0000440780014f0b7003400200084808800c3
:1006e0001500370084108000044278000440780030
:1006f00015f0b70044062000848088000e00370003
:1007000084108000044278000440780016f0b7009e
:100710005400200084808800070037008410800087
:10072000044278000440780017f0b7004406200027
:10073000848088000000000085808000440620003e
:10074000848f5200c1003a0094808000750620001a
:10075000850f52006b00320075062000850f520095
:100760000a003c0055062000850f52002a00320086
:1007700055062000850f52004c003c004506200025
:10078000850f52000b003200b0003700850c2000ae
:10079000850f52007f003200f50f2000850f5200b8
:1007a0009b00320085062000850f52006700320052
:1007b000a600370044012100144278000482fb00a7
:1007c0000500200096062000862bb800e021b80026
:1007d0008203780007034300840278009406200017
:1007e000042ab8000503430086027800d4828800fa
:1007f000e5828800d6828000e78280000400200025
:10080000050024000602420087824a00d482880044
:10081000e58288008d0037004401210014427800f1
:100820000483fb00070020006401210014427800cb
:100830000480fb00010020007401210014427800b4
:100840000481fb0003002000481add00c812de000e
:10085000850272004812dd000002420081824a00d7
:100860004828dd00c820de00810070004820dd003f
:1008700054012100144278000482fb00050020008e
:100880000000420081804a00480add00c802de0004
:10089000850272004802dd000602420087824a009b
:1008a000d4828800e5828800680037004401210076
:1008b000144278000483fb0007002000d4828000eb
:1008c000e58280000603420087834a00540121002c
:1008d000144278000482fb004822dd00050020005d
:1008e0000603420087834a000400200005002c0014
:1008f0000602420087824a00d4828800e58288008e
:100900005200370044012100144278000483fb00a8
:1009100007002000d4828000e582800006034200a8
:1009200087834a0054012100144278000482fb00ae
:100930004822dd00050020000602420087824a00ae
:10094000d4828800e582880040003700d68280008b
:10095000e782800044012100144278000482fb00f9
:10096000050020000403530085835b00540121002f
:10097000144278000482fb004822dd0005002000bc
:100980000402530085825b00d4828800e5828800df
:100990002e003700a0020700540121001442780005
:1009a0008482fb0044012100144278000482fb0091
:1009b0004822dd0004824200cfa2de0004828800cb
:1009c000158288000482800015828000f42bb80014
:1009d000e020b80080037800070343008402780019
:1009e00044012000042ab800050343008602780071
:1009f00002712200030020000400be005a04070018
:100a00000002be0004828800158288000f003700b3
:100a1000411f200010002000870207000400200072
:100a200005002400d4828800e58288000002eb00e3
:100a3000340e880004002400440e8800c1122000f7
:100a4000100020007c020700000000000628a9001a
:100a50000080fa003200f9004f03be004f02be00d2
:100a60004f01be004f00be003600f90000400600f6
:100a70000000fa000482800015828000843eb000ed
:100a80000580b0000482880015828800411f200084
:100a90001000200068020700803e2000440207008a
:100aa000f4ff37003600f800809fbe00829fbe0032
:100ab000849fbe00869fbe00889fbe003200f80063
:100ac0001000200090018800000000000000fa00e3
:100ad0000068a9000002eb0004088800340e8000c2
:100ae0006123b800440e800005002000c022dd0014
:100af000040020000602420087824a009482880097
:100b0000a582880096828000a7828000b48280003f
:100b1000c58280000402530085825b002481880026
:100b20003581880094828000a5828000b48288008c
:100b3000c58288006481800075818000848188007e
:100b4000958188002481800035818000648188003f
:100b500075818800d6828000e782800094828000c0
:100b6000a58280000402530085825b00b483880064
:100b7000c5838800b4838000c5838000e00f5200e5
:100b8000e08f5a0008003500b4838000c5838000e0
:100b9000e00f5200e08f5a0003003c0014002000d8
:100ba00044808800de00370014808000cfa2de0081
:100bb0000400be001a0407000004be00b4838000d5
:100bc000c58380000400be00150407000002be00bb
:100bd0000401be000800be00690407000002be0058
:100be0000404be0004848000050020000400be0050
:100bf0000e0407000002be000401be000800be0093
:100c0000970307000002be0002002000832c24008e
:100c10000400be005a0407000002be00748388006e
:100c200085838800748380008583800018c0b300aa
:100c300002002000832c24000400be00db03070018
:100c400000027800e00f520001003d000044eb007c
:100c5000e04f54000500320004002000852c2400e1
:100c600074838800858388001100370074838000b6
:100c70008583800018c0b30002002000832c2c0064
:100c80000400be00c703070000027800e00f520016
:100c9000010034000044eb00e04f54000400320037
:100ca00004002000852c2c00748388008583880034
:100cb0007883800089838000248080006123b900cc
:100cc00024818000358180008438b8008629b800ee
:100cd00082007800010040000603780004027800da
:100ce0000432b80005004000800278000400be0015
:100cf000cb0307000002be000401be000800be00d6
:100d0000f90207000002be00748388008583880012
:100d1000b4838000c5838000e00f5200e08f5a004a
:100d200023003d0044808000e30f520007003a009a
:100d3000c4818000d581800061024200e0824a00c7
:100d4000c4818800d5818800030037006022b80084
:100d5000c4818800d58188007883800089838000e1
:100d6000c4818000d58180000400be00ac03070070
:100d70000003be0054808000658080000401be0036
:100d80000600be00fe0307000002be000401be0014
:100d90000800be00d40207000002be007483880071
:100da00085838800340020004480880023003700b9
:100db00044808000e20f520007003a00e481800086
:100dc000f581800061024200e0824a00e4818800ef
:100dd000f5818800030037006022b800e4818800b4
:100de000f5818800e4818000f58180000400be0068
:100df0008b0307000003be005480800065808000e4
:100e00000401be000600be00dd0307000002be00b4
:100e10000403be0074838000858380000401be004b
:100e20000600be00b10207000002be007483880005
:100e3000858388002400200044808800748380001b
:100e40008583800018c0b30002002000832c24009a
:100e50000400be005503070000027800e00f5200b6
:100e600001003d000044eb00e04f5400050032005b
:100e700004002000852c240074838800858388006a
:100e800011003700748380008583800018c0b30090
:100e900002002000832c2c000400be004103070048
:100ea00000027800e00f5200010034000044eb0023
:100eb000e04f54000400320004002000852c2c0078
:100ec0007483880085838800748380008583800014
:100ed00018c0b3006011b8000400be003103070061
:100ee00000027800e00f5200010035000044eb00e2
:100ef000e04f540006003200748380008583800038
:100f000005f0a2000400be00be0107000400370087
:100f100074838000858380000400be006d0107009b
:100f20000080fa003200f9004f04be004f03be00fb
:100f30004f02be004f01be004f00be003600f90058
:100f4000004006003600f800809fbe00829fbe0071
:100f5000849fbe00869fbe003200f8001000200073
:100f600090018800000000000000fa00d485800095
:100f70000402e800d4858800d5858000843e2000e6
:100f8000848f52000c0034000002eb00d4858800ee
:100f900074858000e10f520004003a001e01070032
:100fa0000002eb0074858800030037001e01070073
:100fb00014002000748588000108a9000080fa0050
:100fc0003200f9004f03be004f02be004f01be00c9
:100fd0004f00be003600f900004006003600f80061
:100fe000809fbe00829fbe00849fbe00869fbe0081
:100ff0003200f8001000200090018800000000007e
:101000000000fa00d48580000402e800d48588003e
:10101000d585800044062000848f520034003400bf
:101020000002eb00d4858800340e8000050020000b
:101030004482880055828800468280005782800062
:1010400064828000758280000402530085825b0008
:101050002481880035818800448280005582800088
:101060006482880075828800268280003782800032
:1010700024818000358180000602420087824a0078
:101080004f2bde00070020000602420087824a0044
:101090008582d1000482d3002482880035828800b2
:1010a0002682800037828000940120000500200005
:1010b000840f5300858f5b0002003400d6000700c8
:1010c00001003700d80007002682800037828000a8
:1010d0004401200005002000840f5300858f5b0031
:1010e00002003400c400070001003700c6000700fa
:1010f00000e8a9000080fa003200f9004f03be00aa
:101100004f02be004f01be004f00be003600f90086
:10111000004006000000fa0004e2240014088800e1
:101120000442800004c0a10004d0a00004e0a1009b
:10113000044288000068a9002068a8000080fa0026
:10114000000006000000fa001061a90004712200ee
:1011500074088800244280000400a1000410a1004b
:101160000420a000244288000108a9002108a8004a
:101170000080fa00000006000000fa001061a800dc
:1011800074002000740888000002eb0064088800e6
:10119000244280000400a1000410a1000420a0004b
:1011a000244288000108a9002108a80011e1a90033
:1011b0000080fa00000006000000fa001061a9009b
:1011c00004712200640888001442800004c0a0005a
:1011d00004d0a10004e0a0001442880000e8a900a7
:1011e00020e8a80011e1a9000080fa000000060034
:1011f0000000fa0013e1a80005e1a9000080fa0050
:10120000000006000000fa0013e1a90005e1a800b3
:101210000080fa00000006000000fa00c3c1a90027
:10122000140e800004b0a00004c0a00004d0a000f0
:10123000140e88000400200005002400f4828800b9
:1012400005838800f4828000058380001483880071
:1012500025838800148380002583800034838800e0
:10126000458388000400200005002400b482880023
:10127000c58288006022b800c4808800d5808800bc
:1012800004848000050020000400be0067020700ff
:101290000003be00c4808000d58080000401be0031
:1012a0000600be00b60207000002be000400be0039
:1012b000400207000002be00d4828800e582880058
:1012c000d6828000e7828000040020000500240010
:1012d0000602420087824a00d4828800e5828800a4
:1012e0000405200014808800d4cc2c00c5d4230031
:1012f00054808800658088000002eb00248088000c
:10130000e5358000f40f28008482620004a02200ea
:1013100004827200e4358800e535800004f82f006f
:10132000848262009402200004827200e435880006
:10133000c301a800040e800004a0a10004b0a00016
:1013400004c0a000040e8800c1e1a8000002eb0068
:10135000040f88000082eb00f40e88000082eb008e
:10136000f40e88000080fa00000006000200fa0077
:10137000000f78001e02780005002000ea2bb8005c
:10138000e021b8008203780007034300840278005c
:10139000a4002000042ab800050343008602780058
:1013a0000400be002c0307000080fa0000000600c5
:1013b0000200fa00000f78001e02780005002000ed
:1013c00006712200862bb800e021b8008203780065
:1013d000070343008402780004712200042ab80045
:1013e00005034300860278000400be001a030700cc
:1013f0000080fa00000006000000fa00148ea80029
:101400000080fa00000006000000fa00148ea90017
:101410000080fa00000006000000fa00040ea80098
:101420000080fa00000006000000fa00040ea90087
:101430000080fa00000006000400fa00000f7800a7
:10144000110798001e027800cfa2de0036002000af
:1014500007002000860f5200878f5a001b003e00b5
:1014600004060100030037000a00370016003700a9
:101470000e003700e0ff0700e7ff07001e029000a4
:1014800004007800caff0700dfff0700e6ff07003f
:101490000e003700d8ff07001e02900004007800fd
:1014a000c3ff0700d8ff070008003700daff070076
:1014b0001e02900004007800bdff0700daff07005d
:1014c0000000000001003700000000000080fa006a
:1014d000000006000400fa00881f7800008fbe009c
:1014e000a57080000400210004826200e00f520019
:1014f0001c003200a57080000400220004826200fb
:10150000e00f520017003200156280000400240032
:1015100004826200e00f520012003a00156280005f
:101520000400280004826200e00f52000d003a001f
:10153000156180000400280004826200e00f520060
:10154000080032001561800004002400048262005b
:10155000e00f520003003200a000200083ff0700cc
:101560000b00370015aea90043cca90050002000a5
:101570007eff070043eca900158ea8005000200054
:101580007aff070015aea80023eca80023cca80022
:1015900018c0b30002002000832c24001e00be00ef
:1015a0008201070000027800e00f520001003c00b9
:1015b0000044eb00e04f5400030032000400200020
:1015c000852c2400048fbe0002002000031224009a
:1015d0001e00be00ea0107000002be000400be00bb
:1015e000740107000002be00040278003461880024
:1015f0000002eb00346288004f0478000080fa009b
:10160000000006000400fa00881f7800008fbe006a
:10161000a57080000400240004826200e00f5200e4
:101620001c003200a57080000400280004826200c3
:10163000e00f520017003200156180000400240002
:1016400004826200e00f520012003a00156180002f
:101650000400280004826200e00f52000d003a00ee
:10166000156280000400280004826200e00f52002e
:101670000800320015628000040024000482620029
:10168000e00f520003003200a000200037ff0700e7
:101690000b00370015eea90023cca9005000200054
:1016a00032ff070023eca90015cea800500020004f
:1016b0002eff070015eea80043eca80043cca800bd
:1016c00018c0b30002002000832c24001e00be00be
:1016d0003601070000027800e00f520001003c00d4
:1016e0000044eb00e04f54000300320004002000ef
:1016f000852c2400048fbe000002eb0034618800ba
:1017000002002000031224001e00be009c010700fe
:101710000002be000400be00260107000002be0059
:1017200004027800346288004f0478000080fa00d8
:10173000000006000000fa0015eea90015aea90091
:1017400023cca90043cca9005000200007ff0700cc
:1017500015cea800158ea80043eca90023eca90023
:101760000080fa00000006000000fa0015cea80074
:10177000158ea80043eca90023eca900500020001e
:10178000fafe070015eea80015aea80023cca900ac
:1017900043cca9000080fa00000006000000fa0017
:1017a00016e2a80017e2a800c44280000440a1008d
:1017b0000450a0000460a000c44288002628a800ad
:1017c0000080fa00000006000000fa00246180009a
:1017d0000400a0000410a00024618800843e2000c2
:1017e0002460880024032000546388005463800030
:1017f00054628800546280005461880024032000f1
:1018000064638800646380006462880064628000ae
:10181000646188000002eb000463880004638000b8
:101820000462880004628000046188000002eb000a
:101830001460880023aca800238ca900422ca900c6
:1018400043aca800438ca90001eca8000002eb0007
:10185000346188000002eb003462880063eca90068
:1018600063cca9000080fa00000006000000fa0026
:101870000002eb000470880004f8200084708800e7
:101880000002eb00247088000002eb00a4708800c6
:101890001aeea8001b0ea8000002eb00747088006e
:1018a0000002eb00f47088005bfe0700c6ff070033
:1018b000baff070044012000d41088003efe070054
:1018c00004002400440e880004902600048488004c
:1018d0000400200005002400d4828800e5828800ee
:1018e0000080fa000000060003f0a200889fbe00fe
:1018f0008a9fbe008c1f7800090107001001330089
:101900006450e1004f0032006420e10052003200d8
:1019100003826c0007003b000905d0000306d000dd
:10192000820f54000c065d000200390002003200f4
:1019300089017800030678008582550004003d0087
:101940000003fd008103fd008502ea008b85420053
:10195000840f720002003b0060001000e08018005d
:101960006011b8000005eb007a28e1000a00390098
:1019700006007800c75ddd00f707b20087807500bc
:101980002d003700828171000a0178006105600036
:101990008180d1000080d3008502e900f9ff3b007f
:1019a000060440008784480002003b0060041400e5
:1019b000e0841c000988a300070032008a817100be
:1019c00082817100610164008904d1000884d30020
:1019d0008b05e800170037000978a30013003a00d0
:1019e0000b00e000130034008b05e90008044400fc
:1019f00089844c000a4474000978a3000d003a0061
:101a00000b00e000070034008b05e90008044400e7
:101a100089844c0001003a000b0020000978a300e3
:101a2000f7ff32000001eb000200370082817100f5
:101a30000a0178007f0007000cf0a70001f0a00069
:101a4000c80037006420e10002003a00838f6c0078
:101a5000c80033000801be000200be00c10037000c
:101a6000889fbe008a9fbe008c1f7800ac000700d4
:101a7000b300330003866c006450e1002e00320096
:101a80006420e100330032006150e1002f00320099
:101a90006120e1003100320085855500eb07b00080
:101aa0000900200008042000050037000804440055
:101ab00089844c000a0031000603430087834b00f1
:101ac0000001530081815b00f8ff33000203be0078
:101ad0000800a0000804440089844c00f6ff390087
:101ae000c639dd00830173000100320013002000bd
:101af0008904d1000884d3000998a30005003200ae
:101b00000800a7000300a0008904d1000884d300c6
:101b10008b05e8008904d1000884d3000001eb00a4
:101b20000281d2004300070001f0a1000cf0a700e1
:101b300001f0a0008b0037006420e1008d0032002e
:101b40000801be000200be00f7ff37006120e1007f
:101b5000880032006000b800f3ff3700000020006a
:101b600001f82700f0ff3700839f68000100e000c4
:101b700002003d0060001000e08018000300e0005b
:101b800002003d0060011100e0811900b000070073
:101b90004f00e00002003b0060001000e0801800f1
:101ba0000000060014002000b9003700f4ff2f00e9
:101bb000b70037000001be00440007000470a70012
:101bc00003f0a10003f8a30013003a006509b10077
:101bd00010003200090035006928e10002003500dc
:101be000010028000000050000004000818048003e
:101bf0008502e900fcff3a0000000600f88f420071
:101c0000050035008100d1000080d3008502e80086
:101c1000fcff3a00000006008000eb000000050019
:101c20004f89de0082017800b40037006011b800ef
:101c3000c200370081002000618055000b003d008c
:101c40000b00200061fe2f000100e1001d003400a8
:101c500082817100610164008904d1000884d3008d
:101c60000000e800faff3a00710020006100640003
:101c700003007000020060000900320061044400ab
:101c8000e0844c000988a500050032008b05e800bf
:101c90006808e10002003a008904d1000884d300fa
:101ca000f20f20000258e10005003d00c75ddd0095
:101cb000f907b2008980750008007800000006006e
:101cc0000bf827008b00780000000500c70ade0033
:101cd000f107b200f50fb20008003200e1cf420078
:101ce000020032000170a00024000500810f700086
:101cf000010032000408050044000500810f700057
:101d000002003a00140005008502e90000004000ce
:101d100081c04800fcff3b000170a00024000500ca
:101d20000004be00e9ff07000003be000405be007a
:101d30000200be00e5ff0700844f750000000600aa
:101d40000200be006450e100050036006420e1009e
:101d5000020036000968a30001003a000800be0036
:101d60000160a0004f0678004f05be004f04be0082
:101d700000000600f0ff2f00f1ff2700f9ff3700f9
:101d8000889fbe008a9fbe008c1f7800e4ff07007a
:101d9000ebff330003866c006450e1002400320046
:101da0006420e100270032006150e100220032008f
:101db0006120e100210032008b854200eb07b10079
:101dc0000134b800003ab8000804420089844a008f
:101dd000013ab8000030b8008880400009014a008c
:101de00004003300000040008180480002014900e7
:101df0008b05e900c909dd00830170000100320094
:101e000013002000c814de004814dd004709de007e
:101e10001200b200c808de000884700085ff0700c9
:101e200001f0a1000cf0a70001f0a000cdff3700e9
:101e30006120e100cfff32000801be000200be00b9
:101e4000f7ff37006150e100fcff3a00c9ff37009f
:101e50006022b800060220000000d0008180d2007d
:101e60000482d2008582d2000000a000020252004b
:101e700083825a00030031000202420083824a003a
:101e80000000a1000603e900f3ff3a00000006008d
:101e9000889fbe008a9fbe00841f7800a0ff0700b5
:101ea0004f00780011003300f0ff2f00838f6c008b
:101eb00006003b00040565000a00a7000800370083
:101ec00009f0a6001000200008003700820f54001f
:101ed000838f5c00030039001000200001003e00e9
:101ee0000000200009f0a7000000ea004f05be0036
:101ef0004f04be000000e00000000600881f7800cc
:101f0000030478000300e00007003d0060001000bb
:101f1000e080180060011900e081190002003b0018
:101f200001f02d00030037000400070008f0a700af
:101f300001f0a0004f04780000000600889fbe005a
:101f40008a9fbe000082700004027100048271004a
:101f5000260032000004be000200be006011b8007e
:101f60006b092000950220000182cf000a00390091
:101f70000541b1000082cf00070039000541b100e2
:101f80000982cf00040039000541b1000882cf006a
:101f9000010039000541b100054252001200320033
:101fa0000a003b0082817100610164008100d10060
:101fb0000080d3008984d3000884d3008b05e80017
:101fc0000442e800f7ff3a00070037000804440025
:101fd00089844c0000004800818048008b05e9009e
:101fe0000442e900f9ff3a0012ff07004f05be0066
:081ff0004f04be0000000600d2
:020000040000fa
:101ff8000000fa00280007001afe070084322200b9
:10200800540888004dfc070013e1a800813e200019
:102018001000200006fd0700411f200010002000ce
:1020280003fd070013e1a9000002eb005408880033
:1020380013e1a800401f2000dbfc070013e1a90002
:102048000002eb005408880013e1a800f2ff3700f3
:020000040000fa
:10205800f03fb1000180b10006003500ee03090031
:1020680000000000403fb1000180b100fbff3d00cf
:102078001000b000203fb0000200350000800900c9
:0820880000000000000006004a
:020000040000fa
:1020900000100000be0000008000000000000000f2
:020000040000fa
:0c20a0000000fa000080fa0000000600ba
:020000040000fa
:04afe000ceff0000a0
:020000040000fa
:04afe400dfff00008b
:020000040000fa
:04afe8003fff000027
:020000040000fa
:04afec009eff0000c4
:020000040000fa
:04aff0003aff000024
:020000040000fa
:04aff400ffff00005b
:00000001FF
